{
  "_format": "hh-sol-artifact-1",
  "contractName": "ShareToken",
  "sourceName": "contracts/ShareToken.sol",
  "abi": [
    {
      "inputs": [
        {
          "internalType": "string",
          "name": "uri",
          "type": "string"
        }
      ],
      "stateMutability": "nonpayable",
      "type": "constructor"
    },
    {
      "inputs": [
        {
          "internalType": "address",
          "name": "sender",
          "type": "address"
        },
        {
          "internalType": "uint256",
          "name": "balance",
          "type": "uint256"
        },
        {
          "internalType": "uint256",
          "name": "needed",
          "type": "uint256"
        },
        {
          "internalType": "uint256",
          "name": "tokenId",
          "type": "uint256"
        }
      ],
      "name": "ERC1155InsufficientBalance",
      "type": "error"
    },
    {
      "inputs": [
        {
          "internalType": "address",
          "name": "approver",
          "type": "address"
        }
      ],
      "name": "ERC1155InvalidApprover",
      "type": "error"
    },
    {
      "inputs": [
        {
          "internalType": "uint256",
          "name": "idsLength",
          "type": "uint256"
        },
        {
          "internalType": "uint256",
          "name": "valuesLength",
          "type": "uint256"
        }
      ],
      "name": "ERC1155InvalidArrayLength",
      "type": "error"
    },
    {
      "inputs": [
        {
          "internalType": "address",
          "name": "operator",
          "type": "address"
        }
      ],
      "name": "ERC1155InvalidOperator",
      "type": "error"
    },
    {
      "inputs": [
        {
          "internalType": "address",
          "name": "receiver",
          "type": "address"
        }
      ],
      "name": "ERC1155InvalidReceiver",
      "type": "error"
    },
    {
      "inputs": [
        {
          "internalType": "address",
          "name": "sender",
          "type": "address"
        }
      ],
      "name": "ERC1155InvalidSender",
      "type": "error"
    },
    {
      "inputs": [
        {
          "internalType": "address",
          "name": "operator",
          "type": "address"
        },
        {
          "internalType": "address",
          "name": "owner",
          "type": "address"
        }
      ],
      "name": "ERC1155MissingApprovalForAll",
      "type": "error"
    },
    {
      "inputs": [
        {
          "internalType": "address",
          "name": "owner",
          "type": "address"
        }
      ],
      "name": "OwnableInvalidOwner",
      "type": "error"
    },
    {
      "inputs": [
        {
          "internalType": "address",
          "name": "account",
          "type": "address"
        }
      ],
      "name": "OwnableUnauthorizedAccount",
      "type": "error"
    },
    {
      "anonymous": false,
      "inputs": [
        {
          "indexed": true,
          "internalType": "address",
          "name": "account",
          "type": "address"
        },
        {
          "indexed": true,
          "internalType": "address",
          "name": "operator",
          "type": "address"
        },
        {
          "indexed": false,
          "internalType": "bool",
          "name": "approved",
          "type": "bool"
        }
      ],
      "name": "ApprovalForAll",
      "type": "event"
    },
    {
      "anonymous": false,
      "inputs": [
        {
          "indexed": true,
          "internalType": "address",
          "name": "oldFactory",
          "type": "address"
        },
        {
          "indexed": true,
          "internalType": "address",
          "name": "newFactory",
          "type": "address"
        }
      ],
      "name": "MarketFactoryUpdated",
      "type": "event"
    },
    {
      "anonymous": false,
      "inputs": [
        {
          "indexed": true,
          "internalType": "address",
          "name": "previousOwner",
          "type": "address"
        },
        {
          "indexed": true,
          "internalType": "address",
          "name": "newOwner",
          "type": "address"
        }
      ],
      "name": "OwnershipTransferred",
      "type": "event"
    },
    {
      "anonymous": false,
      "inputs": [
        {
          "indexed": true,
          "internalType": "address",
          "name": "from",
          "type": "address"
        },
        {
          "indexed": true,
          "internalType": "uint256",
          "name": "tokenId",
          "type": "uint256"
        },
        {
          "indexed": false,
          "internalType": "uint256",
          "name": "amount",
          "type": "uint256"
        }
      ],
      "name": "SharesBurned",
      "type": "event"
    },
    {
      "anonymous": false,
      "inputs": [
        {
          "indexed": true,
          "internalType": "address",
          "name": "to",
          "type": "address"
        },
        {
          "indexed": true,
          "internalType": "uint256",
          "name": "tokenId",
          "type": "uint256"
        },
        {
          "indexed": false,
          "internalType": "uint256",
          "name": "amount",
          "type": "uint256"
        }
      ],
      "name": "SharesMinted",
      "type": "event"
    },
    {
      "anonymous": false,
      "inputs": [
        {
          "indexed": true,
          "internalType": "address",
          "name": "operator",
          "type": "address"
        },
        {
          "indexed": true,
          "internalType": "address",
          "name": "from",
          "type": "address"
        },
        {
          "indexed": true,
          "internalType": "address",
          "name": "to",
          "type": "address"
        },
        {
          "indexed": false,
          "internalType": "uint256[]",
          "name": "ids",
          "type": "uint256[]"
        },
        {
          "indexed": false,
          "internalType": "uint256[]",
          "name": "values",
          "type": "uint256[]"
        }
      ],
      "name": "TransferBatch",
      "type": "event"
    },
    {
      "anonymous": false,
      "inputs": [
        {
          "indexed": true,
          "internalType": "address",
          "name": "operator",
          "type": "address"
        },
        {
          "indexed": true,
          "internalType": "address",
          "name": "from",
          "type": "address"
        },
        {
          "indexed": true,
          "internalType": "address",
          "name": "to",
          "type": "address"
        },
        {
          "indexed": false,
          "internalType": "uint256",
          "name": "id",
          "type": "uint256"
        },
        {
          "indexed": false,
          "internalType": "uint256",
          "name": "value",
          "type": "uint256"
        }
      ],
      "name": "TransferSingle",
      "type": "event"
    },
    {
      "anonymous": false,
      "inputs": [
        {
          "indexed": false,
          "internalType": "string",
          "name": "value",
          "type": "string"
        },
        {
          "indexed": true,
          "internalType": "uint256",
          "name": "id",
          "type": "uint256"
        }
      ],
      "name": "URI",
      "type": "event"
    },
    {
      "inputs": [
        {
          "internalType": "address",
          "name": "account",
          "type": "address"
        },
        {
          "internalType": "uint256",
          "name": "id",
          "type": "uint256"
        }
      ],
      "name": "balanceOf",
      "outputs": [
        {
          "internalType": "uint256",
          "name": "",
          "type": "uint256"
        }
      ],
      "stateMutability": "view",
      "type": "function"
    },
    {
      "inputs": [
        {
          "internalType": "address[]",
          "name": "accounts",
          "type": "address[]"
        },
        {
          "internalType": "uint256[]",
          "name": "ids",
          "type": "uint256[]"
        }
      ],
      "name": "balanceOfBatch",
      "outputs": [
        {
          "internalType": "uint256[]",
          "name": "",
          "type": "uint256[]"
        }
      ],
      "stateMutability": "view",
      "type": "function"
    },
    {
      "inputs": [
        {
          "internalType": "address",
          "name": "from",
          "type": "address"
        },
        {
          "internalType": "uint256",
          "name": "tokenId",
          "type": "uint256"
        },
        {
          "internalType": "uint256",
          "name": "amount",
          "type": "uint256"
        }
      ],
      "name": "burn",
      "outputs": [],
      "stateMutability": "nonpayable",
      "type": "function"
    },
    {
      "inputs": [
        {
          "internalType": "uint256",
          "name": "tokenId",
          "type": "uint256"
        }
      ],
      "name": "getMarketId",
      "outputs": [
        {
          "internalType": "uint256",
          "name": "",
          "type": "uint256"
        }
      ],
      "stateMutability": "pure",
      "type": "function"
    },
    {
      "inputs": [
        {
          "internalType": "uint256",
          "name": "marketId",
          "type": "uint256"
        }
      ],
      "name": "getNoTokenId",
      "outputs": [
        {
          "internalType": "uint256",
          "name": "",
          "type": "uint256"
        }
      ],
      "stateMutability": "pure",
      "type": "function"
    },
    {
      "inputs": [
        {
          "internalType": "uint256",
          "name": "marketId",
          "type": "uint256"
        }
      ],
      "name": "getYesTokenId",
      "outputs": [
        {
          "internalType": "uint256",
          "name": "",
          "type": "uint256"
        }
      ],
      "stateMutability": "pure",
      "type": "function"
    },
    {
      "inputs": [
        {
          "internalType": "address",
          "name": "account",
          "type": "address"
        },
        {
          "internalType": "address",
          "name": "operator",
          "type": "address"
        }
      ],
      "name": "isApprovedForAll",
      "outputs": [
        {
          "internalType": "bool",
          "name": "",
          "type": "bool"
        }
      ],
      "stateMutability": "view",
      "type": "function"
    },
    {
      "inputs": [
        {
          "internalType": "uint256",
          "name": "tokenId",
          "type": "uint256"
        }
      ],
      "name": "isYesShare",
      "outputs": [
        {
          "internalType": "bool",
          "name": "",
          "type": "bool"
        }
      ],
      "stateMutability": "pure",
      "type": "function"
    },
    {
      "inputs": [],
      "name": "marketFactory",
      "outputs": [
        {
          "internalType": "address",
          "name": "",
          "type": "address"
        }
      ],
      "stateMutability": "view",
      "type": "function"
    },
    {
      "inputs": [
        {
          "internalType": "address",
          "name": "to",
          "type": "address"
        },
        {
          "internalType": "uint256",
          "name": "tokenId",
          "type": "uint256"
        },
        {
          "internalType": "uint256",
          "name": "amount",
          "type": "uint256"
        }
      ],
      "name": "mint",
      "outputs": [],
      "stateMutability": "nonpayable",
      "type": "function"
    },
    {
      "inputs": [],
      "name": "owner",
      "outputs": [
        {
          "internalType": "address",
          "name": "",
          "type": "address"
        }
      ],
      "stateMutability": "view",
      "type": "function"
    },
    {
      "inputs": [],
      "name": "renounceOwnership",
      "outputs": [],
      "stateMutability": "nonpayable",
      "type": "function"
    },
    {
      "inputs": [
        {
          "internalType": "address",
          "name": "from",
          "type": "address"
        },
        {
          "internalType": "address",
          "name": "to",
          "type": "address"
        },
        {
          "internalType": "uint256[]",
          "name": "ids",
          "type": "uint256[]"
        },
        {
          "internalType": "uint256[]",
          "name": "values",
          "type": "uint256[]"
        },
        {
          "internalType": "bytes",
          "name": "data",
          "type": "bytes"
        }
      ],
      "name": "safeBatchTransferFrom",
      "outputs": [],
      "stateMutability": "nonpayable",
      "type": "function"
    },
    {
      "inputs": [
        {
          "internalType": "address",
          "name": "from",
          "type": "address"
        },
        {
          "internalType": "address",
          "name": "to",
          "type": "address"
        },
        {
          "internalType": "uint256",
          "name": "id",
          "type": "uint256"
        },
        {
          "internalType": "uint256",
          "name": "value",
          "type": "uint256"
        },
        {
          "internalType": "bytes",
          "name": "data",
          "type": "bytes"
        }
      ],
      "name": "safeTransferFrom",
      "outputs": [],
      "stateMutability": "nonpayable",
      "type": "function"
    },
    {
      "inputs": [
        {
          "internalType": "address",
          "name": "operator",
          "type": "address"
        },
        {
          "internalType": "bool",
          "name": "approved",
          "type": "bool"
        }
      ],
      "name": "setApprovalForAll",
      "outputs": [],
      "stateMutability": "nonpayable",
      "type": "function"
    },
    {
      "inputs": [
        {
          "internalType": "address",
          "name": "_marketFactory",
          "type": "address"
        }
      ],
      "name": "setMarketFactory",
      "outputs": [],
      "stateMutability": "nonpayable",
      "type": "function"
    },
    {
      "inputs": [
        {
          "internalType": "bytes4",
          "name": "interfaceId",
          "type": "bytes4"
        }
      ],
      "name": "supportsInterface",
      "outputs": [
        {
          "internalType": "bool",
          "name": "",
          "type": "bool"
        }
      ],
      "stateMutability": "view",
      "type": "function"
    },
    {
      "inputs": [
        {
          "internalType": "address",
          "name": "newOwner",
          "type": "address"
        }
      ],
      "name": "transferOwnership",
      "outputs": [],
      "stateMutability": "nonpayable",
      "type": "function"
    },
    {
      "inputs": [
        {
          "internalType": "uint256",
          "name": "",
          "type": "uint256"
        }
      ],
      "name": "uri",
      "outputs": [
        {
          "internalType": "string",
          "name": "",
          "type": "string"
        }
      ],
      "stateMutability": "view",
      "type": "function"
    }
  ],
  "bytecode": "0x6080604052346200027c57620019e7803803806200001d8162000281565b928339810190602080828403126200027c5781516001600160401b03928382116200027c570192601f908082860112156200027c5784518481116200025157601f1995620000718285018816860162000281565b928284528583830101116200027c57849060005b838110620002675750506000918301015280519384116200025157600254926001938481811c9116801562000246575b828210146200023057838111620001e4575b5080928511600114620001795750839450908392916000946200016d575b50501b916000199060031b1c1916176002555b3315620001545760038054336001600160a01b03198216811790925560405191906001600160a01b03167f8be0079c531659141344cd1fd0a4f28419497f9722a3daafe3b4186f6b6457e0600080a361173f9081620002a88239f35b604051631e4fbdf760e01b815260006004820152602490fd5b015192503880620000e5565b929484908116600260005284600020946000905b88838310620001c95750505010620001af575b505050811b01600255620000f8565b015160001960f88460031b161c19169055388080620001a0565b8587015188559096019594850194879350908101906200018d565b6002600052816000208480880160051c82019284891062000226575b0160051c019085905b82811062000219575050620000c7565b6000815501859062000209565b9250819262000200565b634e487b7160e01b600052602260045260246000fd5b90607f1690620000b5565b634e487b7160e01b600052604160045260246000fd5b81810183015185820184015286920162000085565b600080fd5b6040519190601f01601f191682016001600160401b03811183821017620002515760405256fe6080604052600436101561001257600080fd5b60003560e01c8062fdd58e1461014657806301ffc9a71461014157806306ae70951461013c5780630e89341c146101375780630f610f0514610132578063156e29f61461012d5780632eb2c2d6146101285780634dcc434a146101235780634e1273f41461011e578063715018a6146101195780638da5cb5b146101145780639c5322d81461010f578063a22cb4651461010a578063a45569c514610105578063e985e9c514610100578063f242432a146100fb578063f2fde38b146100f6578063f5298aca146100f15763f7cc38df146100ec57600080fd5b611006565b610df9565b610d6b565b610c4d565b610bf0565b610bb3565b610af6565b610abf565b610a96565b610a35565b61097b565b61088a565b610761565b61042a565b6103e0565b6102da565b61025d565b6101ef565b610190565b600435906001600160a01b038216820361016157565b600080fd5b602435906001600160a01b038216820361016157565b35906001600160a01b038216820361016157565b346101615760403660031901126101615760206101d46101ae61014b565b6024356000526000835260406000209060018060a01b0316600052602052604060002090565b54604051908152f35b6001600160e01b031981160361016157565b3461016157602036600319011261016157602060043561020e816101dd565b63ffffffff60e01b16636cdb3d1360e11b811490811561024c575b811561023b575b506040519015158152f35b6301ffc9a760e01b14905038610230565b6303a24d0760e21b81149150610229565b34610161576000366003190112610161576004546040516001600160a01b039091168152602090f35b919082519283825260005b8481106102b2575050826000602080949584010152601f8019910116010190565b602081830181015184830182015201610291565b9060206102d7928181520190610286565b90565b3461016157602080600319360112610161576040519060009060025460019181831c928083169283156103d6575b82851084146103c25784875260208701939081156103a35750600114610349575b6103458661033981880382610666565b604051918291826102c6565b0390f35b6002600090815294509192917f405787fa12a823e0f2b7631cc41b3ba8828b3321ca811111fa75cd3aa3bb5ace5b83861061039257505050910190506103398261034538610329565b805485870152948201948101610377565b60ff1916845250505090151560051b0190506103398261034538610329565b634e487b7160e01b86526022600452602486fd5b93607f1693610308565b3461016157602036600319011261016157602060405160043560011c8152f35b6060906003190112610161576004356001600160a01b038116810361016157906024359060443590565b346101615761043836610400565b6004546001600160a01b039061045190821633146116be565b60409081519361046085610645565b600091828652861680156106175761049885839160405192600184526020840152604083019160018352606084015260808301604052565b95909485518751908181036105f6575050845b86518110156105125780886105066104fe8d6104e78c61050d9760051b8091602092839101015196010151946000526000602052604060002090565b9060018060a01b0316600052602052604060002090565b918254611366565b9055611069565b6104ab565b507fd5103f333769455df788908e17b0f6f83838ebeae2cd1ed6f23ec20dad88c9a3916020918a8a8a8a60018151146000146105bb5786810151828801518651918252602082015289908c9033907fc3d58168c5ae7397731d063d5bbf3d657854427343f4c083240f7aacaa2d0f6290604090a45b80516001036105ac579086806105a4959301519101519133611441565b51908152a380f35b6105b69333611652565b6105a4565b888b86517f4a39dc06d4c0dbc64b70af90fd698a233a518aa5d07e595d983b8c0526c8f7fb3391806105ee888883611373565b0390a4610587565b8251635b05999160e01b815260048101919091526024810191909152604490fd5b8351632bfa23e760e11b815260048101849052602490fd5b634e487b7160e01b600052604160045260246000fd5b6020810190811067ffffffffffffffff82111761066157604052565b61062f565b90601f8019910116810190811067ffffffffffffffff82111761066157604052565b67ffffffffffffffff81116106615760051b60200190565b81601f82011215610161578035916106b783610688565b926106c56040519485610666565b808452602092838086019260051b820101928311610161578301905b8282106106ef575050505090565b813581529083019083016106e1565b67ffffffffffffffff811161066157601f01601f191660200190565b81601f8201121561016157803590610731826106fe565b9261073f6040519485610666565b8284526020838301011161016157816000926020809301838601378301015290565b346101615760a03660031901126101615761077a61014b565b610782610166565b906044359167ffffffffffffffff90818411610161576107a7600494369086016106a0565b90606435838111610161576107bf90369087016106a0565b92608435908111610161576107d7903690870161071a565b936001600160a01b03808216903382141580610866575b61083957831615610821571561080a576108089550611167565b005b604051626a0d4560e21b8152600081880152602490fd5b604051632bfa23e760e11b8152600081890152602490fd5b6040805163711bec9160e11b815233818b019081526001600160a01b038616602082015290918291010390fd5b50600082815260016020908152604080832033845290915290205460ff16156107ee565b34610161576020366003190112610161576108a361014b565b6108ab611027565b6001600160a01b039081169081156108ff57600454826bffffffffffffffffffffffff60a01b821617600455167f1f530abe07389a43c027a615e69dd5a8aef15b053d4c0381f9ce510b2373148c600080a3005b60405162461bcd60e51b815260206004820152600f60248201526e496e76616c6964206164647265737360881b6044820152606490fd5b90815180825260208080930193019160005b828110610956575050505090565b835185529381019392810192600101610948565b9060206102d7928181520190610936565b346101615760403660031901126101615760043567ffffffffffffffff80821161016157366023830112156101615781600401356109b881610688565b926109c66040519485610666565b81845260209160248386019160051b8301019136831161016157602401905b828210610a1e57856024358681116101615761034591610a0c610a129236906004016106a0565b906110a2565b6040519182918261096a565b838091610a2a8461017c565b8152019101906109e5565b3461016157600080600319360112610a9357610a4f611027565b600380546001600160a01b0319811690915581906001600160a01b03167f8be0079c531659141344cd1fd0a4f28419497f9722a3daafe3b4186f6b6457e08280a380f35b80fd5b34610161576000366003190112610161576003546040516001600160a01b039091168152602090f35b34610161576020366003190112610161576004358060011b9080820460021490151715610af157602090604051908152f35b611053565b3461016157604036600319011261016157610b0f61014b565b602435801515808203610161576001600160a01b038316928315610b9b573360009081526001602090815260408083206001600160a01b039094168352929052209060ff801983541691161790557f17307eab39ab6107e8899845ad3d59bd9653f200f220920489ca2b5937696c3160405180610b96339482919091602081019215159052565b0390a3005b60405162ced3e160e81b815260006004820152602490fd5b34610161576020366003190112610161576004358060011b9080820460021490151715610af15760018101809111610af157602090604051908152f35b3461016157604036600319011261016157602060ff610c41610c1061014b565b610c18610166565b6001600160a01b0391821660009081526001865260408082209290931681526020919091522090565b54166040519015158152f35b346101615760a036600319011261016157610c6661014b565b610c6e610166565b60843567ffffffffffffffff811161016157610c8e90369060040161071a565b906001600160a01b03838116903382141580610d47575b610d2057821615610d075715610cef5761080892610ce76064356044359160405192600184526020840152604083019160018352606084015260808301604052565b929091611167565b604051626a0d4560e21b815260006004820152602490fd5b604051632bfa23e760e11b815260006004820152602490fd5b60405163711bec9160e11b81523360048201526001600160a01b0386166024820152604490fd5b50600082815260016020908152604080832033845290915290205460ff1615610ca5565b3461016157602036600319011261016157610d8461014b565b610d8c611027565b6001600160a01b03908116908115610de057600354826bffffffffffffffffffffffff60a01b821617600355167f8be0079c531659141344cd1fd0a4f28419497f9722a3daafe3b4186f6b6457e0600080a3005b604051631e4fbdf760e01b815260006004820152602490fd5b3461016157610e0736610400565b9060018060a01b03600490610e208183541633146116be565b8416918215610fef57610e5384829160405192600184526020840152604083019160018352606084015260808301604052565b93604092835191610e6383610645565b600080935283518751808203610fcb575050825b8451811015610f1a578060051b8a6020808389010151928b010151610eaa826104e7856000526000602052604060002090565b54818110610edd57916104e7610ed292610ed896959403936000526000602052604060002090565b55611069565b610e77565b89516303dee4c560e01b81526001600160a01b03909316838c01908152602081019190915260408101919091526060810183905281906080010390fd5b507f8038d1806af22a919dcd5b2a4c313824e515ceb65343ff568379f92a1f3230106020898786858c8a6001815114600014610f9157860151908601518451918252602082015233907fc3d58168c5ae7397731d063d5bbf3d657854427343f4c083240f7aacaa2d0f6290604090a451908152a380f35b845133927f4a39dc06d4c0dbc64b70af90fd698a233a518aa5d07e595d983b8c0526c8f7fb928291610fc39183611373565b0390a46105a4565b8651635b05999160e01b815280890192835260208301919091529081906040010390fd5b604051626a0d4560e21b8152600081840152602490fd5b34610161576020366003190112610161576020604051600160043516158152f35b6003546001600160a01b0316330361103b57565b60405163118cdaa760e01b8152336004820152602490fd5b634e487b7160e01b600052601160045260246000fd5b6000198114610af15760010190565b805182101561108c5760209160051b010190565b634e487b7160e01b600052603260045260246000fd5b919091805183518082036111455750508051906110be82610688565b916110cc6040519384610666565b8083526110db601f1991610688565b0190602091368385013760005b815181101561113d57600581901b8281018401519087018401516000908152602081815260408083206001600160a01b039094168352929052205461113891906111328287611078565b52611069565b6110e8565b509193505050565b604051635b05999160e01b815260048101919091526024810191909152604490fd5b94919091815184519081810361114557505060005b825181101561127057600581901b83810160209081015191870101516001600160a01b03929186908a85166111e9575b6111bf9482166111c4575b505050611069565b61117c565b6111df916104e76104fe926000526000602052604060002090565b90553885816111b7565b91929390506112068a6104e7846000526000602052604060002090565b5483811061123957918791846111bf969594036112318d6104e7856000526000602052604060002090565b5594506111ac565b6040516303dee4c560e01b81526001600160a01b038c16600482015260248101919091526044810184905260648101839052608490fd5b50949193929093600185511460001461131b576020858101518382015160408051928352928201526001600160a01b03838116929086169133917fc3d58168c5ae7397731d063d5bbf3d657854427343f4c083240f7aacaa2d0f6291a45b6001600160a01b0381166112e4575b5050505050565b845160010361130a57602080611300960151920151923361153b565b38808080806112dd565b61131694919233611687565b611300565b6040516001600160a01b03828116919085169033907f4a39dc06d4c0dbc64b70af90fd698a233a518aa5d07e595d983b8c0526c8f7fb908061135e888c83611373565b0390a46112ce565b91908201809211610af157565b909161138a6102d793604084526040840190610936565b916020818403910152610936565b9081602091031261016157516102d7816101dd565b909260a0926102d79594600180861b0316835260006020840152604083015260608201528160808201520190610286565b91926102d795949160a094600180871b038092168552166020840152604083015260608201528160808201520190610286565b3d1561143c573d90611422826106fe565b916114306040519384610666565b82523d6000602084013e565b606090565b9293919093843b611453575050505050565b602091611476604051948593849363f23a6e6160e01b98898652600486016113ad565b038160006001600160a01b0388165af16000918161150b575b506114ce578261149d611411565b80519190826114c757604051632bfa23e760e11b81526001600160a01b0383166004820152602490fd5b6020915001fd5b6001600160e01b031916036114e8575038808080806112dd565b604051632bfa23e760e11b81526001600160a01b03919091166004820152602490fd5b61152d91925060203d8111611534575b6115258183610666565b810190611398565b903861148f565b503d61151b565b939290949194853b611550575b505050505050565b611573602093604051958694859463f23a6e6160e01b998a8752600487016113de565b038160006001600160a01b0388165af1600091816115b5575b5061159a578261149d611411565b6001600160e01b031916036114e85750388080808080611548565b6115ce91925060203d8111611534576115258183610666565b903861158c565b926116046102d795936116129360018060a01b031686526000602087015260a0604087015260a0860190610936565b908482036060860152610936565b916080818403910152610286565b93906102d79593611604916116129460018060a01b03809216885216602087015260a0604087015260a0860190610936565b9293919093843b611664575050505050565b602091611476604051948593849363bc197c8160e01b98898652600486016115d5565b939290949194853b61169b57505050505050565b611573602093604051958694859463bc197c8160e01b998a875260048701611620565b156116c557565b606460405162461bcd60e51b815260206004820152602060248201527f4f6e6c79204d61726b6574466163746f72792063616e2063616c6c20746869736044820152fdfea26469706673582212202f47cb05831b4fdc2e162d7aaf2ce022aaeb5e4f44416a54be2d66f76a11e7d264736f6c63430008140033",
  "linkReferences": {},
  "deployedLinkReferences": {}
}