{
  "_format": "hh-sol-artifact-1",
  "contractName": "MarketFactory",
  "sourceName": "contracts/MarketFactory.sol",
  "abi": [
    {
      "inputs": [
        {
          "internalType": "address",
          "name": "_shareToken",
          "type": "address"
        },
        {
          "internalType": "address",
          "name": "_collateralToken",
          "type": "address"
        }
      ],
      "stateMutability": "nonpayable",
      "type": "constructor"
    },
    {
      "inputs": [
        {
          "internalType": "address",
          "name": "owner",
          "type": "address"
        }
      ],
      "name": "OwnableInvalidOwner",
      "type": "error"
    },
    {
      "inputs": [
        {
          "internalType": "address",
          "name": "account",
          "type": "address"
        }
      ],
      "name": "OwnableUnauthorizedAccount",
      "type": "error"
    },
    {
      "inputs": [],
      "name": "ReentrancyGuardReentrantCall",
      "type": "error"
    },
    {
      "anonymous": false,
      "inputs": [
        {
          "indexed": true,
          "internalType": "uint256",
          "name": "marketId",
          "type": "uint256"
        },
        {
          "indexed": true,
          "internalType": "address",
          "name": "scout",
          "type": "address"
        },
        {
          "indexed": false,
          "internalType": "string",
          "name": "tweetId",
          "type": "string"
        },
        {
          "indexed": false,
          "internalType": "enum MarketFactory.MetricType",
          "name": "metric",
          "type": "uint8"
        },
        {
          "indexed": false,
          "internalType": "uint256",
          "name": "currentValue",
          "type": "uint256"
        },
        {
          "indexed": false,
          "internalType": "uint256",
          "name": "targetValue",
          "type": "uint256"
        }
      ],
      "name": "MarketCreated",
      "type": "event"
    },
    {
      "anonymous": false,
      "inputs": [
        {
          "indexed": true,
          "internalType": "uint256",
          "name": "marketId",
          "type": "uint256"
        },
        {
          "indexed": false,
          "internalType": "enum MarketFactory.ResolutionStatus",
          "name": "status",
          "type": "uint8"
        },
        {
          "indexed": false,
          "internalType": "uint256",
          "name": "finalValue",
          "type": "uint256"
        }
      ],
      "name": "MarketResolved",
      "type": "event"
    },
    {
      "anonymous": false,
      "inputs": [
        {
          "indexed": true,
          "internalType": "address",
          "name": "previousOwner",
          "type": "address"
        },
        {
          "indexed": true,
          "internalType": "address",
          "name": "newOwner",
          "type": "address"
        }
      ],
      "name": "OwnershipTransferred",
      "type": "event"
    },
    {
      "anonymous": false,
      "inputs": [
        {
          "indexed": true,
          "internalType": "uint256",
          "name": "marketId",
          "type": "uint256"
        },
        {
          "indexed": true,
          "internalType": "address",
          "name": "buyer",
          "type": "address"
        },
        {
          "indexed": false,
          "internalType": "bool",
          "name": "isYes",
          "type": "bool"
        },
        {
          "indexed": false,
          "internalType": "uint256",
          "name": "sharesReceived",
          "type": "uint256"
        },
        {
          "indexed": false,
          "internalType": "uint256",
          "name": "usdcPaid",
          "type": "uint256"
        },
        {
          "indexed": false,
          "internalType": "uint256",
          "name": "newPrice",
          "type": "uint256"
        }
      ],
      "name": "SharesBought",
      "type": "event"
    },
    {
      "anonymous": false,
      "inputs": [
        {
          "indexed": true,
          "internalType": "uint256",
          "name": "marketId",
          "type": "uint256"
        },
        {
          "indexed": true,
          "internalType": "address",
          "name": "user",
          "type": "address"
        },
        {
          "indexed": false,
          "internalType": "uint256",
          "name": "shares",
          "type": "uint256"
        },
        {
          "indexed": false,
          "internalType": "uint256",
          "name": "payout",
          "type": "uint256"
        }
      ],
      "name": "SharesRedeemed",
      "type": "event"
    },
    {
      "anonymous": false,
      "inputs": [
        {
          "indexed": true,
          "internalType": "uint256",
          "name": "marketId",
          "type": "uint256"
        },
        {
          "indexed": true,
          "internalType": "address",
          "name": "seller",
          "type": "address"
        },
        {
          "indexed": false,
          "internalType": "bool",
          "name": "isYes",
          "type": "bool"
        },
        {
          "indexed": false,
          "internalType": "uint256",
          "name": "sharesSold",
          "type": "uint256"
        },
        {
          "indexed": false,
          "internalType": "uint256",
          "name": "usdcReceived",
          "type": "uint256"
        },
        {
          "indexed": false,
          "internalType": "uint256",
          "name": "newPrice",
          "type": "uint256"
        }
      ],
      "name": "SharesSold",
      "type": "event"
    },
    {
      "inputs": [],
      "name": "BPS_DENOMINATOR",
      "outputs": [
        {
          "internalType": "uint256",
          "name": "",
          "type": "uint256"
        }
      ],
      "stateMutability": "view",
      "type": "function"
    },
    {
      "inputs": [],
      "name": "FEE_BPS",
      "outputs": [
        {
          "internalType": "uint256",
          "name": "",
          "type": "uint256"
        }
      ],
      "stateMutability": "view",
      "type": "function"
    },
    {
      "inputs": [],
      "name": "INITIAL_LIQUIDITY",
      "outputs": [
        {
          "internalType": "uint256",
          "name": "",
          "type": "uint256"
        }
      ],
      "stateMutability": "view",
      "type": "function"
    },
    {
      "inputs": [],
      "name": "INITIAL_SHARES",
      "outputs": [
        {
          "internalType": "uint256",
          "name": "",
          "type": "uint256"
        }
      ],
      "stateMutability": "view",
      "type": "function"
    },
    {
      "inputs": [],
      "name": "MARKET_DURATION",
      "outputs": [
        {
          "internalType": "uint256",
          "name": "",
          "type": "uint256"
        }
      ],
      "stateMutability": "view",
      "type": "function"
    },
    {
      "inputs": [],
      "name": "RESOLUTION_DELAY",
      "outputs": [
        {
          "internalType": "uint256",
          "name": "",
          "type": "uint256"
        }
      ],
      "stateMutability": "view",
      "type": "function"
    },
    {
      "inputs": [],
      "name": "SHARES_DECIMALS",
      "outputs": [
        {
          "internalType": "uint256",
          "name": "",
          "type": "uint256"
        }
      ],
      "stateMutability": "view",
      "type": "function"
    },
    {
      "inputs": [],
      "name": "USDC_DECIMALS",
      "outputs": [
        {
          "internalType": "uint256",
          "name": "",
          "type": "uint256"
        }
      ],
      "stateMutability": "view",
      "type": "function"
    },
    {
      "inputs": [
        {
          "internalType": "uint256",
          "name": "marketId",
          "type": "uint256"
        },
        {
          "internalType": "uint256",
          "name": "usdcAmount",
          "type": "uint256"
        }
      ],
      "name": "buyNo",
      "outputs": [
        {
          "internalType": "uint256",
          "name": "sharesOut",
          "type": "uint256"
        }
      ],
      "stateMutability": "nonpayable",
      "type": "function"
    },
    {
      "inputs": [
        {
          "internalType": "uint256",
          "name": "marketId",
          "type": "uint256"
        },
        {
          "internalType": "uint256",
          "name": "usdcAmount",
          "type": "uint256"
        }
      ],
      "name": "buyYes",
      "outputs": [
        {
          "internalType": "uint256",
          "name": "sharesOut",
          "type": "uint256"
        }
      ],
      "stateMutability": "nonpayable",
      "type": "function"
    },
    {
      "inputs": [],
      "name": "collateralToken",
      "outputs": [
        {
          "internalType": "contract IERC20",
          "name": "",
          "type": "address"
        }
      ],
      "stateMutability": "view",
      "type": "function"
    },
    {
      "inputs": [
        {
          "internalType": "string",
          "name": "tweetUrl",
          "type": "string"
        },
        {
          "internalType": "string",
          "name": "tweetId",
          "type": "string"
        },
        {
          "internalType": "string",
          "name": "authorHandle",
          "type": "string"
        },
        {
          "internalType": "enum MarketFactory.MetricType",
          "name": "metric",
          "type": "uint8"
        },
        {
          "internalType": "uint256",
          "name": "currentValue",
          "type": "uint256"
        },
        {
          "internalType": "uint256",
          "name": "targetValue",
          "type": "uint256"
        }
      ],
      "name": "createMarket",
      "outputs": [
        {
          "internalType": "uint256",
          "name": "marketId",
          "type": "uint256"
        }
      ],
      "stateMutability": "nonpayable",
      "type": "function"
    },
    {
      "inputs": [
        {
          "internalType": "uint256",
          "name": "marketId",
          "type": "uint256"
        },
        {
          "internalType": "uint256",
          "name": "usdcAmount",
          "type": "uint256"
        }
      ],
      "name": "estimateBuyNo",
      "outputs": [
        {
          "internalType": "uint256",
          "name": "sharesOut",
          "type": "uint256"
        }
      ],
      "stateMutability": "view",
      "type": "function"
    },
    {
      "inputs": [
        {
          "internalType": "uint256",
          "name": "marketId",
          "type": "uint256"
        },
        {
          "internalType": "uint256",
          "name": "usdcAmount",
          "type": "uint256"
        }
      ],
      "name": "estimateBuyYes",
      "outputs": [
        {
          "internalType": "uint256",
          "name": "sharesOut",
          "type": "uint256"
        }
      ],
      "stateMutability": "view",
      "type": "function"
    },
    {
      "inputs": [
        {
          "internalType": "uint256",
          "name": "marketId",
          "type": "uint256"
        }
      ],
      "name": "getMarket",
      "outputs": [
        {
          "components": [
            {
              "internalType": "uint256",
              "name": "id",
              "type": "uint256"
            },
            {
              "internalType": "string",
              "name": "tweetUrl",
              "type": "string"
            },
            {
              "internalType": "string",
              "name": "tweetId",
              "type": "string"
            },
            {
              "internalType": "string",
              "name": "authorHandle",
              "type": "string"
            },
            {
              "internalType": "address",
              "name": "scout",
              "type": "address"
            },
            {
              "internalType": "enum MarketFactory.MetricType",
              "name": "metric",
              "type": "uint8"
            },
            {
              "internalType": "uint256",
              "name": "currentValue",
              "type": "uint256"
            },
            {
              "internalType": "uint256",
              "name": "targetValue",
              "type": "uint256"
            },
            {
              "internalType": "uint256",
              "name": "startTime",
              "type": "uint256"
            },
            {
              "internalType": "uint256",
              "name": "endTime",
              "type": "uint256"
            },
            {
              "internalType": "enum MarketFactory.ResolutionStatus",
              "name": "status",
              "type": "uint8"
            },
            {
              "internalType": "uint256",
              "name": "yesTokenId",
              "type": "uint256"
            },
            {
              "internalType": "uint256",
              "name": "noTokenId",
              "type": "uint256"
            }
          ],
          "internalType": "struct MarketFactory.Market",
          "name": "",
          "type": "tuple"
        }
      ],
      "stateMutability": "view",
      "type": "function"
    },
    {
      "inputs": [
        {
          "internalType": "string",
          "name": "tweetId",
          "type": "string"
        },
        {
          "internalType": "enum MarketFactory.MetricType",
          "name": "metric",
          "type": "uint8"
        }
      ],
      "name": "getMarketByTweetAndMetric",
      "outputs": [
        {
          "internalType": "uint256",
          "name": "marketId",
          "type": "uint256"
        },
        {
          "internalType": "bool",
          "name": "exists",
          "type": "bool"
        }
      ],
      "stateMutability": "view",
      "type": "function"
    },
    {
      "inputs": [],
      "name": "getMarketCount",
      "outputs": [
        {
          "internalType": "uint256",
          "name": "",
          "type": "uint256"
        }
      ],
      "stateMutability": "view",
      "type": "function"
    },
    {
      "inputs": [
        {
          "internalType": "uint256",
          "name": "marketId",
          "type": "uint256"
        }
      ],
      "name": "getNoPrice",
      "outputs": [
        {
          "internalType": "uint256",
          "name": "",
          "type": "uint256"
        }
      ],
      "stateMutability": "view",
      "type": "function"
    },
    {
      "inputs": [
        {
          "internalType": "uint256",
          "name": "marketId",
          "type": "uint256"
        }
      ],
      "name": "getReserves",
      "outputs": [
        {
          "internalType": "uint256",
          "name": "yesRes",
          "type": "uint256"
        },
        {
          "internalType": "uint256",
          "name": "noRes",
          "type": "uint256"
        }
      ],
      "stateMutability": "view",
      "type": "function"
    },
    {
      "inputs": [
        {
          "internalType": "uint256",
          "name": "marketId",
          "type": "uint256"
        }
      ],
      "name": "getYesPrice",
      "outputs": [
        {
          "internalType": "uint256",
          "name": "",
          "type": "uint256"
        }
      ],
      "stateMutability": "view",
      "type": "function"
    },
    {
      "inputs": [
        {
          "internalType": "bytes32",
          "name": "",
          "type": "bytes32"
        }
      ],
      "name": "marketByHash",
      "outputs": [
        {
          "internalType": "uint256",
          "name": "",
          "type": "uint256"
        }
      ],
      "stateMutability": "view",
      "type": "function"
    },
    {
      "inputs": [
        {
          "internalType": "bytes32",
          "name": "",
          "type": "bytes32"
        }
      ],
      "name": "marketExists",
      "outputs": [
        {
          "internalType": "bool",
          "name": "",
          "type": "bool"
        }
      ],
      "stateMutability": "view",
      "type": "function"
    },
    {
      "inputs": [
        {
          "internalType": "uint256",
          "name": "",
          "type": "uint256"
        }
      ],
      "name": "markets",
      "outputs": [
        {
          "internalType": "uint256",
          "name": "id",
          "type": "uint256"
        },
        {
          "internalType": "string",
          "name": "tweetUrl",
          "type": "string"
        },
        {
          "internalType": "string",
          "name": "tweetId",
          "type": "string"
        },
        {
          "internalType": "string",
          "name": "authorHandle",
          "type": "string"
        },
        {
          "internalType": "address",
          "name": "scout",
          "type": "address"
        },
        {
          "internalType": "enum MarketFactory.MetricType",
          "name": "metric",
          "type": "uint8"
        },
        {
          "internalType": "uint256",
          "name": "currentValue",
          "type": "uint256"
        },
        {
          "internalType": "uint256",
          "name": "targetValue",
          "type": "uint256"
        },
        {
          "internalType": "uint256",
          "name": "startTime",
          "type": "uint256"
        },
        {
          "internalType": "uint256",
          "name": "endTime",
          "type": "uint256"
        },
        {
          "internalType": "enum MarketFactory.ResolutionStatus",
          "name": "status",
          "type": "uint8"
        },
        {
          "internalType": "uint256",
          "name": "yesTokenId",
          "type": "uint256"
        },
        {
          "internalType": "uint256",
          "name": "noTokenId",
          "type": "uint256"
        }
      ],
      "stateMutability": "view",
      "type": "function"
    },
    {
      "inputs": [],
      "name": "nextMarketId",
      "outputs": [
        {
          "internalType": "uint256",
          "name": "",
          "type": "uint256"
        }
      ],
      "stateMutability": "view",
      "type": "function"
    },
    {
      "inputs": [
        {
          "internalType": "uint256",
          "name": "",
          "type": "uint256"
        }
      ],
      "name": "noReserves",
      "outputs": [
        {
          "internalType": "uint256",
          "name": "",
          "type": "uint256"
        }
      ],
      "stateMutability": "view",
      "type": "function"
    },
    {
      "inputs": [],
      "name": "owner",
      "outputs": [
        {
          "internalType": "address",
          "name": "",
          "type": "address"
        }
      ],
      "stateMutability": "view",
      "type": "function"
    },
    {
      "inputs": [
        {
          "internalType": "uint256",
          "name": "marketId",
          "type": "uint256"
        },
        {
          "internalType": "uint256",
          "name": "shares",
          "type": "uint256"
        }
      ],
      "name": "redeem",
      "outputs": [],
      "stateMutability": "nonpayable",
      "type": "function"
    },
    {
      "inputs": [],
      "name": "renounceOwnership",
      "outputs": [],
      "stateMutability": "nonpayable",
      "type": "function"
    },
    {
      "inputs": [
        {
          "internalType": "uint256",
          "name": "marketId",
          "type": "uint256"
        }
      ],
      "name": "resolveAsInvalid",
      "outputs": [],
      "stateMutability": "nonpayable",
      "type": "function"
    },
    {
      "inputs": [
        {
          "internalType": "uint256",
          "name": "marketId",
          "type": "uint256"
        },
        {
          "internalType": "uint256",
          "name": "finalValue",
          "type": "uint256"
        }
      ],
      "name": "resolveMarket",
      "outputs": [],
      "stateMutability": "nonpayable",
      "type": "function"
    },
    {
      "inputs": [
        {
          "internalType": "uint256",
          "name": "marketId",
          "type": "uint256"
        },
        {
          "internalType": "uint256",
          "name": "shares",
          "type": "uint256"
        }
      ],
      "name": "sellNo",
      "outputs": [
        {
          "internalType": "uint256",
          "name": "usdcOut",
          "type": "uint256"
        }
      ],
      "stateMutability": "nonpayable",
      "type": "function"
    },
    {
      "inputs": [
        {
          "internalType": "uint256",
          "name": "marketId",
          "type": "uint256"
        },
        {
          "internalType": "uint256",
          "name": "shares",
          "type": "uint256"
        }
      ],
      "name": "sellYes",
      "outputs": [
        {
          "internalType": "uint256",
          "name": "usdcOut",
          "type": "uint256"
        }
      ],
      "stateMutability": "nonpayable",
      "type": "function"
    },
    {
      "inputs": [],
      "name": "shareToken",
      "outputs": [
        {
          "internalType": "contract ShareToken",
          "name": "",
          "type": "address"
        }
      ],
      "stateMutability": "view",
      "type": "function"
    },
    {
      "inputs": [
        {
          "internalType": "address",
          "name": "newOwner",
          "type": "address"
        }
      ],
      "name": "transferOwnership",
      "outputs": [],
      "stateMutability": "nonpayable",
      "type": "function"
    },
    {
      "inputs": [
        {
          "internalType": "uint256",
          "name": "",
          "type": "uint256"
        }
      ],
      "name": "yesReserves",
      "outputs": [
        {
          "internalType": "uint256",
          "name": "",
          "type": "uint256"
        }
      ],
      "stateMutability": "view",
      "type": "function"
    }
  ],
  "bytecode": "0x608034620000f057601f62002c5438819003918201601f19168301916001600160401b03831184841017620000f5578084926040948552833981010312620000f0576200005a602062000052836200010b565b92016200010b565b3315620000d75760008054336001600160a01b0319808316821784556040519590946001600160a01b03949093859391908416907f8be0079c531659141344cd1fd0a4f28419497f9722a3daafe3b4186f6b6457e09080a3600180551683600254161760025516906003541617600355612b339081620001218239f35b604051631e4fbdf760e01b815260006004820152602490fd5b600080fd5b634e487b7160e01b600052604160045260246000fd5b51906001600160a01b0382168203620000f05756fe6080604052600436101561001257600080fd5b6000803560e01c806301bf317a1461228857806330dc389c1461226a578063399af5021461205d578063406ef2ef1461203f578063474e19f21461201c5780634d7baeb114611d7157806355097bf114611d535780636055733314611c575780636c9fa59e14611c2e578063715018a614611bd457806374cbc98814611b545780637ca9a08c14611b2a5780637cbc2373146115245780638da5cb5b146114fd5780638e558d99146114d35780638ea7495c1461149b5780639ba85fae1461147c5780639f7d9cf9146113df578063a1ce5f94146113b5578063a9f6b0581461116c578063b1283e771461105b578063b155851d14611037578063b2016bd41461100e578063bf333f2c14610ff2578063c0ffa4a614610f70578063c1419def14610f52578063c354648514610f33578063c3ba3257146105ad578063d8d039891461057e578063dd899e2c14610561578063e1a4521814610544578063eb44fdd314610327578063eb77281514610254578063f2fde38b146101be5763fd69f3c21461019e57600080fd5b346101bb57806003193601126101bb576020600454604051908152f35b80fd5b50346101bb5760203660031901126101bb576004356001600160a01b0381811691829003610250576101ee61274a565b811561023757600054826bffffffffffffffffffffffff60a01b821617600055167f8be0079c531659141344cd1fd0a4f28419497f9722a3daafe3b4186f6b6457e0600080a380f35b604051631e4fbdf760e01b815260048101849052602490fd5b8280fd5b50346101bb5761026336612534565b6064819392930281810460641482151715610313579061271061028792049061292d565b670de0b6b3a7640000908181029181830414901517156102ff57916040826102e9602095846102f79652600687526102e3620f42406102d18686205460078b528787205490612819565b9287865260078a5204858520546127f6565b9061290d565b92815260068552205461292d565b604051908152f35b634e487b7160e01b82526011600452602482fd5b634e487b7160e01b83526011600452602483fd5b50346101bb5760203660031901126101bb5780604091610180835161034b816125ae565b828152606060208201526060858201526060808201528260808201528260a08201528260c08201528260e08201528261010082015282610120820152826101408201528261016082015201526004358152600560205220600b604051916103b1836125ae565b805483526103c1600182016125ed565b60208401526103d2600282016125ed565b60408401526103e3600382016125ed565b606084015260048101546001600160a01b038116608085015260a01c60ff1661040b816126d3565b60a0840152600581015460c0840152600681015460e08401526007810154610100840152600881015461012084015260ff60098201541661044b816126d3565b610140840152600a8101546101608401520154610180820152604051809160208252805160208301526101806104c661049560208401516101a060408701526101c0860190612693565b6104b1604085015191601f199283888303016060890152612693565b90606085015190868303016080870152612693565b9160018060a01b0360808201511660a085015260a08101516104e7816126d3565b60c085015260c081015160e085015260e0810151610100850152610100810151610120850152610120810151610140850152610140810151610528816126d3565b6101608501526101608101518285015201516101a08301520390f35b50346101bb57806003193601126101bb5760206040516127108152f35b50346101bb57806003193601126101bb576020604051610e108152f35b50346101bb5760203660031901126101bb5760ff60406020926004358152600984522054166040519015158152f35b50346101bb5760c03660031901126101bb5760043567ffffffffffffffff8111610b5c576105df9036906004016126f3565b60243567ffffffffffffffff8111610250576105ff9036906004016126f3565b60443567ffffffffffffffff8111610b4d5761061f9036906004016126f3565b9160046064351015610b4d5761063361282c565b60843560a4351115610eee576040516020810190610666816106586064358786612776565b03601f1981018352826125cb565b519020808552600960205260ff604086205416610e9b576003546040516323b872dd60e01b815233600482015230602482015262989680604482015290602090829060649082908a906001600160a01b03165af18015610e90576106d1918791610e61575b506127b3565b600454936000198514610e4d57600185016004556201518042014211610e4d5760025460405163138a645b60e31b8152600481018790526001600160a01b0390911691602082602481865afa918215610e0b578892610e16575b5060206024936040519485809263a45569c560e01b82528b60048301525afa928315610e0b578893610dd2575b5060405194610766866125ae565b8786526020860152856040860152606085015233608085015261078a6064356126d3565b60643560a085015260843560c085015260a43560e0850152426101008501526201518042016101208501528661014085015261016084015261018083015283855260056020526040852082518155602083015180519067ffffffffffffffff8211610c2a5781906107fe600185015461254a565b601f8111610d82575b50602090601f8311600114610d13578992610d08575b50508160011b916000199060031b1c19161760018201555b604083015180519067ffffffffffffffff8211610c2a57819061085b600285015461254a565b601f8111610cb8575b50602090601f8311600114610c49578992610c3e575b50508160011b916000199060031b1c19161760028201555b606083015180519067ffffffffffffffff8211610c2a5781906108b8600385015461254a565b601f8111610bda575b50602090601f8311600114610b6b578992610b60575b50508160011b916000199060031b1c19161760038201555b6004810160018060a01b0360808501511681549060a0860151610911816126d3565b61091a816126d3565b60ff60a01b9060a01b16916affffffffffffffffffffff60a81b161717905560c0830151600582015560e0830151600682015561010083015160078201556101208301516008820155600b61018060098301946101408101519561097d876126d3565b610986876126d3565b60ff199660ff888354169116179055610160810151600a8501550151910155838552600660205268056bc75e2d63100000806040872055600760205260408620558452600960205260016040852091825416179055600860205281604084205560018060a01b0360025416828452600560205283600a60408220015491803b15610b5c57604051630ab714fb60e11b8082523360048301526024820194909452678ac7230489e8000060448201529082908290606490829084905af18015610b5157610b39575b50600254848252600560205260408220600b0154906001600160a01b0316803b15610250576040519384523360048501526024840191909152678ac7230489e8000060448401528290606490829084905af18015610b2e57610b1a575b60208383817fd6c1663437064cef92f6aa4b8125518354af71edefa213c58d3d965708e6e496610ae560405193608085526080850190612693565b92610af16064356126d3565b60643586820152608435604082015260a43560608201528033940390a360018055604051908152f35b610b248491612584565b6102505782610aaa565b6040513d86823e3d90fd5b610b4290612584565b610b4d578338610a4d565b8380fd5b6040513d84823e3d90fd5b5080fd5b0151905038806108d7565b9250600384018952602089209089935b601f1984168510610bbf576001945083601f19811610610ba6575b505050811b0160038201556108ef565b015160001960f88460031b161c19169055388080610b96565b81810151835560209485019460019093019290910190610b7b565b90915060038401895260208920601f840160051c810160208510610c23575b90849392915b601f830160051c82018110610c155750506108c1565b8b8155859450600101610bff565b5080610bf9565b634e487b7160e01b88526041600452602488fd5b01519050388061087a565b9250600284018952602089209089935b601f1984168510610c9d576001945083601f19811610610c84575b505050811b016002820155610892565b015160001960f88460031b161c19169055388080610c74565b81810151835560209485019460019093019290910190610c59565b90915060028401895260208920601f840160051c810160208510610d01575b90849392915b601f830160051c82018110610cf3575050610864565b8b8155859450600101610cdd565b5080610cd7565b01519050388061081d565b9250600184018952602089209089935b601f1984168510610d67576001945083601f19811610610d4e575b505050811b016001820155610835565b015160001960f88460031b161c19169055388080610d3e565b81810151835560209485019460019093019290910190610d23565b90915060018401895260208920601f840160051c810160208510610dcb575b90849392915b601f830160051c82018110610dbd575050610807565b8b8155859450600101610da7565b5080610da1565b9092506020813d602011610e03575b81610dee602093836125cb565b81010312610dfe57519138610758565b600080fd5b3d9150610de1565b6040513d8a823e3d90fd5b9291506020833d602011610e45575b81610e32602093836125cb565b81010312610dfe5791519091602061072b565b3d9150610e25565b634e487b7160e01b86526011600452602486fd5b610e83915060203d602011610e89575b610e7b81836125cb565b81019061279b565b386106cb565b503d610e71565b6040513d88823e3d90fd5b60405162461bcd60e51b815260206004820152602560248201527f4d61726b657420616c72656164792065786973747320666f722074686973206d604482015264657472696360d81b6064820152608490fd5b60405162461bcd60e51b815260206004820152601860248201527f546172676574206d757374206265203e2063757272656e7400000000000000006044820152606490fd5b50346101bb5760203660031901126101bb5760206102f7600435612aad565b50346101bb57806003193601126101bb576020604051620f42408152f35b50346101bb5760403660031901126101bb5760043567ffffffffffffffff8111610b5c57610fa29036906004016126f3565b90602435916004831015610b5c57610658610fc96040948551928391602083019586612776565b519020815260096020528160ff8183205416916008602052205490825191825215156020820152f35b50346101bb57806003193601126101bb57602060405160648152f35b50346101bb57806003193601126101bb576003546040516001600160a01b039091168152602090f35b50346101bb57806003193601126101bb57602060405168056bc75e2d631000008152f35b50346101bb5760203660031901126101bb5760043581526005602052604090208054611089600183016125ed565b91611096600282016125ed565b6110a2600383016125ed565b916004810154928360a01c60ff1660058301546006840154600785015491600886015493600987015460ff1695600a88015497600b0154986040519c8d9c8d528c6101a06020819201528d016110f791612693565b8c810360408e015261110891612693565b8b810360608d015261111991612693565b6001600160a01b0390991660808b0152611132816126d3565b60a08a015260c089015260e0880152610100870152610120860152611156816126d3565b6101408501526101608401526101808301520390f35b50346101bb5761117b36612534565b909161118561282c565b8281526020926005845260408220926111ae60ff6009860154166111a8816126d3565b1561284f565b6111bd6008850154421061288f565b8015936111ca85156128cc565b6003546040516323b872dd60e01b8152336004820152306024820152604481018490526001600160a01b0396918890829060649082908a908c165af1908115610e90579061121e91879161139e57506127b3565b6064830290838204606414171561138a5761271061123d91048361292d565b94670de0b6b3a76400009586810296818804149015171561138a57600b908486526006885261129d611296620f424061128360408a205460078d5260408b205490612819565b99888a5260068c520460408920546127f6565b809861290d565b858752600789526112b281604089205461292d565b976112be89151561293a565b86885260068a52604088205560078952604087205560025416910154813b1561138657604051630ab714fb60e11b81523360048201526024810191909152604481018690529084908290606490829084905af18015610b2e57908491611372575b505061132a82612aad565b906040519384528486850152604084015260608301527f15eef4583a8d7b01a2e9f28a5bcefcbe011f11c6f42616426e59462a7cf14e4e60803393a360018055604051908152f35b61137b90612584565b61025057823861131f565b8480fd5b634e487b7160e01b85526011600452602485fd5b610e839150893d8b11610e8957610e7b81836125cb565b50346101bb5760203660031901126101bb5760406020916004358152600883522054604051908152f35b50346101bb576113ee36612534565b6064819392930281810460641482151715610313579061271061141292049061292d565b670de0b6b3a7640000908181029181830414901517156102ff579160408261146e602095846102f79652600687526102e3620f424061145c8686205460078b528787205490612819565b9287865260068a5204858520546127f6565b92815260078552205461292d565b50346101bb5760203660031901126101bb5760206102f7600435612a4c565b50346101bb5760203660031901126101bb57604090600435815260066020528180822054916007602052205482519182526020820152f35b50346101bb5760203660031901126101bb5760406020916004358152600683522054604051908152f35b50346101bb57806003193601126101bb57546040516001600160a01b039091168152602090f35b50346101bb5761153336612534565b9061153c61282c565b808352602060058152604084209060ff6009830154169161155c836126d3565b8215611af6578415611ab15785908193611575816126d3565b600181036117525750600254600a9190910154604051627eeac760e11b81523360048201526024810182905293945091926001600160a01b03909116908481604481855afa8015610b2e578791859161171c575b50906115d691101561297c565b803b1561025057604051637a94c56560e11b815233600482015260248101929092526044820186905282908290606490829084905af18015610b5157611708575b5050620f42408302620f423f198482040161138a57670de0b6b3a76400009004905b60035460405163a9059cbb60e01b815233600482015260248101849052908290829060449082908a906001600160a01b03165af1908115610e905786916116eb575b50156116b7576040519384528301527f693faff7f0019974c7e4470b52030262ebd85d7f2bb9373e1c9eb677f4cabc9760403393a36001805580f35b6064906040519062461bcd60e51b82526004820152600d60248201526c14185e5bdd5d0819985a5b1959609a1b6044820152fd5b6117029150823d8411610e8957610e7b81836125cb565b3861167b565b61171190612584565b610b4d578338611617565b945050508383813d831161174b575b61173581836125cb565b81010312610dfe576115d68688945190916115c9565b503d61172b565b61175b816126d3565b6002810361186d5750600254600b9190910154604051627eeac760e11b81523360048201526024810182905293945091926001600160a01b03909116908481604481855afa8015610b2e5787918591611837575b50906117bc9110156129c8565b803b1561025057604051637a94c56560e11b815233600482015260248101929092526044820186905282908290606490829084905af18015610b5157611823575b5050620f42408302620f423f198482040161138a57670de0b6b3a7640000900490611639565b61182c90612584565b610b4d5783386117fd565b945050508383813d8311611866575b61185081836125cb565b81010312610dfe576117bc8688945190916117af565b503d611846565b806118796003926126d3565b14611886575b5050611639565b600254600a82018054604051627eeac760e11b8082523360048301526024820192909252959650939490936001600160a01b039391928416918784604481865afa938415611a72578794611a7d575b50600b015460405191825233600483015260248201819052928782604481865afa908115611a72578a928892611a3d575b508211611996575050505060025416905490803b1561025057604051637a94c56560e11b815233600482015260248101929092526044820186905282908290606490829084905af18015610b5157611982575b50505b620f42408302620f423f198482040161138a57671bc16d674ec80000900490843861187f565b61198b90612584565b610b4d578338611959565b929550909350119050611a0257908186923b1561025057604051637a94c56560e11b815233600482015260248101929092526044820186905282908290606490829084905af18015610b51576119ee575b505061195c565b6119f790612584565b610b4d5783386119e7565b60405162461bcd60e51b8152600481018490526013602482015272496e73756666696369656e742073686172657360681b6044820152606490fd5b92509650508681813d8311611a6b575b611a5781836125cb565b81010312610dfe5751899589919082611906565b503d611a4d565b6040513d89823e3d90fd5b965092508686813d8111611aaa575b611a9681836125cb565b81010312610dfe57600b8a965193906118d5565b503d611a8c565b60405162461bcd60e51b815260048101839052601c60248201527f4d7573742072656465656d206174206c656173742031207368617265000000006044820152606490fd5b60405162461bcd60e51b815260048101839052600c60248201526b139bdd081c995cdbdb1d995960a21b6044820152606490fd5b50346101bb5760203660031901126101bb5760406020916004358152600783522054604051908152f35b50346101bb5760203660031901126101bb57600435611b7161274a565b80825260056020526009604083200160038154611b9a60ff8216611b94816126d3565b15612a0d565b60ff19161790557f661ce16e44a34377fc37c19874f4b1bec6e84b072cf8d318838fe17c20c58e446040805160038152846020820152a280f35b50346101bb57806003193601126101bb57611bed61274a565b600080546001600160a01b0319811682556001600160a01b03167f8be0079c531659141344cd1fd0a4f28419497f9722a3daafe3b4186f6b6457e08280a380f35b50346101bb57806003193601126101bb576002546040516001600160a01b039091168152602090f35b50346101bb57611c6636612534565b611c6e61274a565b8183526005602052604083206009810191825491611c9260ff8416611b94816126d3565b6008810154610e108101809111611d3f574210611d0e57600601547f661ce16e44a34377fc37c19874f4b1bec6e84b072cf8d318838fe17c20c58e449360409360ff928410611d015750600182198254161781555b541690825191611cf6816126d3565b82526020820152a280f35b8219166002178155611ce7565b60405162461bcd60e51b8152602060048201526009602482015268546f6f206561726c7960b81b6044820152606490fd5b634e487b7160e01b87526011600452602487fd5b50346101bb57806003193601126101bb576020604051629896808152f35b50346101bb57611d8036612534565b611d8b92919261282c565b828252602092600584526040832092611dae60ff6009860154166111a8816126d3565b611db98315156128cc565b600254600a949094018054604051627eeac760e11b8152336004820152602481019190915290946001600160a01b03919087908290604490829086165afa8015611fe05785908490611feb575b611e129250101561297c565b82825260068652611e30604083205460078852604084205490612819565b9483835260068752611e50611e498660408620546127f6565b809761290d565b84845260078852611e6581604086205461292d565b620f42409081810291818304149015171561138a57670de0b6b3a764000090046064810281810460641482151715610e4d5790612710611ea692049061292d565b96611eb288151561293a565b85855260068952604085205560078852604084205581600254169054813b15610b4d57604051637a94c56560e11b81523360048201526024810191909152604481018690529083908290606490829084905af18015611fe057908391611fcc575b505060035460405163a9059cbb60e01b815233600482015260248101879052918791839160449183918791165af1918215611fc05790611f5792611fa957506127b3565b611f6081612a4c565b60405192600184528584015283604084015260608301527f15eef4583a8d7b01a2e9f28a5bcefcbe011f11c6f42616426e59462a7cf14e4e60803393a360018055604051908152f35b610e839150863d8811610e8957610e7b81836125cb565b604051903d90823e3d90fd5b611fd590612584565b610b5c578138611f13565b6040513d85823e3d90fd5b50508681813d8311612015575b61200281836125cb565b81010312610dfe5784611e129151611e06565b503d611ff8565b50346101bb57806003193601126101bb576020604051670de0b6b3a76400008152f35b50346101bb57806003193601126101bb576020600454604051908152f35b50346101bb5761206c36612534565b61207792919261282c565b82825260209260058452604083209261209a60ff6009860154166111a8816126d3565b6120a96008850154421061288f565b8215936120b685156128cc565b6003546040516323b872dd60e01b8152336004820152306024820152604481018690526001600160a01b03969188908290606490829088908c165af1908115610b2e579061210a91859161139e57506127b3565b606485029085820460641417156103135761271061212991048561292d565b94670de0b6b3a76400009586810296818804149015171561031357600a9084845260068852612182611296620f424061216f604088205460078d52604089205490612819565b9988885260078c520460408720546127f6565b968585526006895261219888604087205461292d565b976121a489151561293a565b86865260068a52604086205560078952604085205560025416910154813b1561025057604051630ab714fb60e11b81523360048201526024810191909152604481018690529082908290606490829084905af18015610b5157612256575b505061220d81612a4c565b60405192600184528486850152604084015260608301527fdfc3df575591df09b1f214131575349702f567430580df7944e88be601f25db260803393a360018055604051908152f35b6122608291612584565b6101bb5780612202565b50346101bb57806003193601126101bb576020604051620151808152f35b50346101bb5761229736612534565b90916122a161282c565b8281526020926005845260408220926122c460ff6009860154166111a8816126d3565b6122cf8115156128cc565b600254600b949094018054604051627eeac760e11b8152336004820152602481019190915290946001600160a01b03919087908290604490829086165afa80156124e05783908690612503575b612328925010156129c8565b82845260068652612346604085205460078852604086205490612819565b948385526007875261235f611e498460408820546127f6565b958486526006885261237587604088205461292d565b620f424090818102918183041490151715611d3f57670de0b6b3a7640000900460648102818104606414821517156124ef57906127106123b692049061292d565b966123c288151561293a565b85875260068952604087205560078852604086205581600254169054813b156124eb57604051637a94c56560e11b81523360048201526024810191909152604481018490529085908290606490829084905af180156124e0576124cd575b5060035460405163a9059cbb60e01b815233600482015260248101879052918791839160449183918991165af1908115610b2e57906124659185916124b657506127b3565b61246e82612aad565b906040519384528584015283604084015260608301527f15eef4583a8d7b01a2e9f28a5bcefcbe011f11c6f42616426e59462a7cf14e4e60803393a360018055604051908152f35b610e839150873d8911610e8957610e7b81836125cb565b6124d990949194612584565b9238612420565b6040513d87823e3d90fd5b8580fd5b634e487b7160e01b88526011600452602488fd5b50508681813d831161252d575b61251a81836125cb565b810103126113865782612328915161231c565b503d612510565b6040906003190112610dfe576004359060243590565b90600182811c9216801561257a575b602083101461256457565b634e487b7160e01b600052602260045260246000fd5b91607f1691612559565b67ffffffffffffffff811161259857604052565b634e487b7160e01b600052604160045260246000fd5b6101a0810190811067ffffffffffffffff82111761259857604052565b90601f8019910116810190811067ffffffffffffffff82111761259857604052565b90604051918260008254926126018461254a565b908184526001948581169081600014612670575060011461262d575b505061262b925003836125cb565b565b9093915060005260209081600020936000915b81831061265857505061262b9350820101388061261d565b85548884018501529485019487945091830191612640565b91505061262b94506020925060ff191682840152151560051b820101388061261d565b919082519283825260005b8481106126bf575050826000602080949584010152601f8019910116010190565b60208183018101518483018201520161269e565b600411156126dd57565b634e487b7160e01b600052602160045260246000fd5b81601f82011215610dfe5780359067ffffffffffffffff82116125985760405192612728601f8401601f1916602001856125cb565b82845260208383010111610dfe57816000926020809301838601378301015290565b6000546001600160a01b0316330361275e57565b60405163118cdaa760e01b8152336004820152602490fd5b92919061278d602091604086526040860190612693565b93612797836126d3565b0152565b90816020910312610dfe57518015158103610dfe5790565b156127ba57565b60405162461bcd60e51b81526020600482015260146024820152731554d110c81d1c985b9cd9995c8819985a5b195960621b6044820152606490fd5b9190820180921161280357565b634e487b7160e01b600052601160045260246000fd5b8181029291811591840414171561280357565b60026001541461283d576002600155565b604051633ee5aeb560e01b8152600490fd5b1561285657565b60405162461bcd60e51b81526020600482015260116024820152704d61726b6574206e6f742061637469766560781b6044820152606490fd5b1561289657565b60405162461bcd60e51b815260206004820152600e60248201526d13585c9ad95d08195e1c1a5c995960921b6044820152606490fd5b156128d357565b60405162461bcd60e51b81526020600482015260126024820152710416d6f756e74206d757374206265203e20360741b6044820152606490fd5b8115612917570490565b634e487b7160e01b600052601260045260246000fd5b9190820391821161280357565b1561294157565b60405162461bcd60e51b8152602060048201526013602482015272125b9cdd59999a58da595b9d081bdd5d1c1d5d606a1b6044820152606490fd5b1561298357565b60405162461bcd60e51b815260206004820152601760248201527f496e73756666696369656e7420594553207368617265730000000000000000006044820152606490fd5b156129cf57565b60405162461bcd60e51b8152602060048201526016602482015275496e73756666696369656e74204e4f2073686172657360501b6044820152606490fd5b15612a1457565b60405162461bcd60e51b815260206004820152601060248201526f105b1c9958591e481c995cdbdb1d995960821b6044820152606490fd5b6000526006602052604060002054600760205260406000205490612a7082826127f6565b15612a9f57670de0b6b3a76400009081830291838304148315171561280357612a9c926102e3916127f6565b90565b50506706f05b59d3b2000090565b6000526006602052604060002054600760205260406000205490612ad182826127f6565b15612a9f57670de0b6b3a76400009081810291818304148115171561280357612a9c926102e3916127f656fea2646970667358221220dd1d54747181ff1731491771716b7b5e097c5683000c37c85c0efc039eb00a4d64736f6c63430008140033",
  "linkReferences": {},
  "deployedLinkReferences": {}
}