{
  "_format": "hh-sol-artifact-1",
  "contractName": "MarketFactory",
  "sourceName": "contracts/MarketFactory.sol",
  "abi": [
    {
      "inputs": [
        {
          "internalType": "address",
          "name": "_shareToken",
          "type": "address"
        },
        {
          "internalType": "address",
          "name": "_collateralToken",
          "type": "address"
        }
      ],
      "stateMutability": "nonpayable",
      "type": "constructor"
    },
    {
      "inputs": [
        {
          "internalType": "address",
          "name": "owner",
          "type": "address"
        }
      ],
      "name": "OwnableInvalidOwner",
      "type": "error"
    },
    {
      "inputs": [
        {
          "internalType": "address",
          "name": "account",
          "type": "address"
        }
      ],
      "name": "OwnableUnauthorizedAccount",
      "type": "error"
    },
    {
      "inputs": [],
      "name": "ReentrancyGuardReentrantCall",
      "type": "error"
    },
    {
      "anonymous": false,
      "inputs": [
        {
          "indexed": true,
          "internalType": "uint256",
          "name": "marketId",
          "type": "uint256"
        },
        {
          "indexed": true,
          "internalType": "address",
          "name": "scout",
          "type": "address"
        },
        {
          "indexed": false,
          "internalType": "string",
          "name": "tweetId",
          "type": "string"
        },
        {
          "indexed": false,
          "internalType": "enum MarketFactory.MetricType",
          "name": "metric",
          "type": "uint8"
        },
        {
          "indexed": false,
          "internalType": "uint256",
          "name": "currentValue",
          "type": "uint256"
        },
        {
          "indexed": false,
          "internalType": "uint256",
          "name": "targetValue",
          "type": "uint256"
        }
      ],
      "name": "MarketCreated",
      "type": "event"
    },
    {
      "anonymous": false,
      "inputs": [
        {
          "indexed": true,
          "internalType": "uint256",
          "name": "marketId",
          "type": "uint256"
        },
        {
          "indexed": false,
          "internalType": "enum MarketFactory.ResolutionStatus",
          "name": "status",
          "type": "uint8"
        },
        {
          "indexed": false,
          "internalType": "uint256",
          "name": "finalValue",
          "type": "uint256"
        }
      ],
      "name": "MarketResolved",
      "type": "event"
    },
    {
      "anonymous": false,
      "inputs": [
        {
          "indexed": true,
          "internalType": "address",
          "name": "previousOwner",
          "type": "address"
        },
        {
          "indexed": true,
          "internalType": "address",
          "name": "newOwner",
          "type": "address"
        }
      ],
      "name": "OwnershipTransferred",
      "type": "event"
    },
    {
      "anonymous": false,
      "inputs": [
        {
          "indexed": true,
          "internalType": "uint256",
          "name": "marketId",
          "type": "uint256"
        },
        {
          "indexed": true,
          "internalType": "address",
          "name": "buyer",
          "type": "address"
        },
        {
          "indexed": false,
          "internalType": "bool",
          "name": "isYes",
          "type": "bool"
        },
        {
          "indexed": false,
          "internalType": "uint256",
          "name": "shares",
          "type": "uint256"
        },
        {
          "indexed": false,
          "internalType": "uint256",
          "name": "cost",
          "type": "uint256"
        }
      ],
      "name": "SharesBought",
      "type": "event"
    },
    {
      "anonymous": false,
      "inputs": [
        {
          "indexed": true,
          "internalType": "uint256",
          "name": "marketId",
          "type": "uint256"
        },
        {
          "indexed": true,
          "internalType": "address",
          "name": "user",
          "type": "address"
        },
        {
          "indexed": false,
          "internalType": "uint256",
          "name": "shares",
          "type": "uint256"
        },
        {
          "indexed": false,
          "internalType": "uint256",
          "name": "payout",
          "type": "uint256"
        }
      ],
      "name": "SharesRedeemed",
      "type": "event"
    },
    {
      "anonymous": false,
      "inputs": [
        {
          "indexed": true,
          "internalType": "uint256",
          "name": "marketId",
          "type": "uint256"
        },
        {
          "indexed": true,
          "internalType": "address",
          "name": "seller",
          "type": "address"
        },
        {
          "indexed": false,
          "internalType": "bool",
          "name": "isYes",
          "type": "bool"
        },
        {
          "indexed": false,
          "internalType": "uint256",
          "name": "shares",
          "type": "uint256"
        },
        {
          "indexed": false,
          "internalType": "uint256",
          "name": "payout",
          "type": "uint256"
        }
      ],
      "name": "SharesSold",
      "type": "event"
    },
    {
      "inputs": [],
      "name": "INITIAL_LIQUIDITY",
      "outputs": [
        {
          "internalType": "uint256",
          "name": "",
          "type": "uint256"
        }
      ],
      "stateMutability": "view",
      "type": "function"
    },
    {
      "inputs": [],
      "name": "MARKET_DURATION",
      "outputs": [
        {
          "internalType": "uint256",
          "name": "",
          "type": "uint256"
        }
      ],
      "stateMutability": "view",
      "type": "function"
    },
    {
      "inputs": [],
      "name": "RESOLUTION_DELAY",
      "outputs": [
        {
          "internalType": "uint256",
          "name": "",
          "type": "uint256"
        }
      ],
      "stateMutability": "view",
      "type": "function"
    },
    {
      "inputs": [],
      "name": "SHARES_PER_SET",
      "outputs": [
        {
          "internalType": "uint256",
          "name": "",
          "type": "uint256"
        }
      ],
      "stateMutability": "view",
      "type": "function"
    },
    {
      "inputs": [],
      "name": "SHARE_PRICE",
      "outputs": [
        {
          "internalType": "uint256",
          "name": "",
          "type": "uint256"
        }
      ],
      "stateMutability": "view",
      "type": "function"
    },
    {
      "inputs": [
        {
          "internalType": "uint256",
          "name": "marketId",
          "type": "uint256"
        },
        {
          "internalType": "uint256",
          "name": "sets",
          "type": "uint256"
        }
      ],
      "name": "buyShares",
      "outputs": [],
      "stateMutability": "nonpayable",
      "type": "function"
    },
    {
      "inputs": [],
      "name": "collateralToken",
      "outputs": [
        {
          "internalType": "contract IERC20",
          "name": "",
          "type": "address"
        }
      ],
      "stateMutability": "view",
      "type": "function"
    },
    {
      "inputs": [
        {
          "internalType": "string",
          "name": "tweetUrl",
          "type": "string"
        },
        {
          "internalType": "string",
          "name": "tweetId",
          "type": "string"
        },
        {
          "internalType": "string",
          "name": "authorHandle",
          "type": "string"
        },
        {
          "internalType": "enum MarketFactory.MetricType",
          "name": "metric",
          "type": "uint8"
        },
        {
          "internalType": "uint256",
          "name": "currentValue",
          "type": "uint256"
        },
        {
          "internalType": "uint256",
          "name": "targetValue",
          "type": "uint256"
        }
      ],
      "name": "createMarket",
      "outputs": [
        {
          "internalType": "uint256",
          "name": "marketId",
          "type": "uint256"
        }
      ],
      "stateMutability": "nonpayable",
      "type": "function"
    },
    {
      "inputs": [
        {
          "internalType": "uint256",
          "name": "marketId",
          "type": "uint256"
        }
      ],
      "name": "getMarket",
      "outputs": [
        {
          "components": [
            {
              "internalType": "uint256",
              "name": "id",
              "type": "uint256"
            },
            {
              "internalType": "string",
              "name": "tweetUrl",
              "type": "string"
            },
            {
              "internalType": "string",
              "name": "tweetId",
              "type": "string"
            },
            {
              "internalType": "string",
              "name": "authorHandle",
              "type": "string"
            },
            {
              "internalType": "address",
              "name": "scout",
              "type": "address"
            },
            {
              "internalType": "enum MarketFactory.MetricType",
              "name": "metric",
              "type": "uint8"
            },
            {
              "internalType": "uint256",
              "name": "currentValue",
              "type": "uint256"
            },
            {
              "internalType": "uint256",
              "name": "targetValue",
              "type": "uint256"
            },
            {
              "internalType": "uint256",
              "name": "startTime",
              "type": "uint256"
            },
            {
              "internalType": "uint256",
              "name": "endTime",
              "type": "uint256"
            },
            {
              "internalType": "enum MarketFactory.ResolutionStatus",
              "name": "status",
              "type": "uint8"
            },
            {
              "internalType": "uint256",
              "name": "yesTokenId",
              "type": "uint256"
            },
            {
              "internalType": "uint256",
              "name": "noTokenId",
              "type": "uint256"
            },
            {
              "internalType": "uint256",
              "name": "totalYesShares",
              "type": "uint256"
            },
            {
              "internalType": "uint256",
              "name": "totalNoShares",
              "type": "uint256"
            }
          ],
          "internalType": "struct MarketFactory.Market",
          "name": "",
          "type": "tuple"
        }
      ],
      "stateMutability": "view",
      "type": "function"
    },
    {
      "inputs": [
        {
          "internalType": "string",
          "name": "tweetId",
          "type": "string"
        },
        {
          "internalType": "enum MarketFactory.MetricType",
          "name": "metric",
          "type": "uint8"
        }
      ],
      "name": "getMarketByTweetAndMetric",
      "outputs": [
        {
          "internalType": "uint256",
          "name": "marketId",
          "type": "uint256"
        },
        {
          "internalType": "bool",
          "name": "exists",
          "type": "bool"
        }
      ],
      "stateMutability": "view",
      "type": "function"
    },
    {
      "inputs": [],
      "name": "getMarketCount",
      "outputs": [
        {
          "internalType": "uint256",
          "name": "",
          "type": "uint256"
        }
      ],
      "stateMutability": "view",
      "type": "function"
    },
    {
      "inputs": [
        {
          "internalType": "bytes32",
          "name": "",
          "type": "bytes32"
        }
      ],
      "name": "marketByHash",
      "outputs": [
        {
          "internalType": "uint256",
          "name": "",
          "type": "uint256"
        }
      ],
      "stateMutability": "view",
      "type": "function"
    },
    {
      "inputs": [
        {
          "internalType": "bytes32",
          "name": "",
          "type": "bytes32"
        }
      ],
      "name": "marketExists",
      "outputs": [
        {
          "internalType": "bool",
          "name": "",
          "type": "bool"
        }
      ],
      "stateMutability": "view",
      "type": "function"
    },
    {
      "inputs": [
        {
          "internalType": "uint256",
          "name": "",
          "type": "uint256"
        }
      ],
      "name": "markets",
      "outputs": [
        {
          "internalType": "uint256",
          "name": "id",
          "type": "uint256"
        },
        {
          "internalType": "string",
          "name": "tweetUrl",
          "type": "string"
        },
        {
          "internalType": "string",
          "name": "tweetId",
          "type": "string"
        },
        {
          "internalType": "string",
          "name": "authorHandle",
          "type": "string"
        },
        {
          "internalType": "address",
          "name": "scout",
          "type": "address"
        },
        {
          "internalType": "enum MarketFactory.MetricType",
          "name": "metric",
          "type": "uint8"
        },
        {
          "internalType": "uint256",
          "name": "currentValue",
          "type": "uint256"
        },
        {
          "internalType": "uint256",
          "name": "targetValue",
          "type": "uint256"
        },
        {
          "internalType": "uint256",
          "name": "startTime",
          "type": "uint256"
        },
        {
          "internalType": "uint256",
          "name": "endTime",
          "type": "uint256"
        },
        {
          "internalType": "enum MarketFactory.ResolutionStatus",
          "name": "status",
          "type": "uint8"
        },
        {
          "internalType": "uint256",
          "name": "yesTokenId",
          "type": "uint256"
        },
        {
          "internalType": "uint256",
          "name": "noTokenId",
          "type": "uint256"
        },
        {
          "internalType": "uint256",
          "name": "totalYesShares",
          "type": "uint256"
        },
        {
          "internalType": "uint256",
          "name": "totalNoShares",
          "type": "uint256"
        }
      ],
      "stateMutability": "view",
      "type": "function"
    },
    {
      "inputs": [],
      "name": "nextMarketId",
      "outputs": [
        {
          "internalType": "uint256",
          "name": "",
          "type": "uint256"
        }
      ],
      "stateMutability": "view",
      "type": "function"
    },
    {
      "inputs": [],
      "name": "owner",
      "outputs": [
        {
          "internalType": "address",
          "name": "",
          "type": "address"
        }
      ],
      "stateMutability": "view",
      "type": "function"
    },
    {
      "inputs": [
        {
          "internalType": "uint256",
          "name": "marketId",
          "type": "uint256"
        },
        {
          "internalType": "uint256",
          "name": "shares",
          "type": "uint256"
        }
      ],
      "name": "redeem",
      "outputs": [],
      "stateMutability": "nonpayable",
      "type": "function"
    },
    {
      "inputs": [],
      "name": "renounceOwnership",
      "outputs": [],
      "stateMutability": "nonpayable",
      "type": "function"
    },
    {
      "inputs": [
        {
          "internalType": "uint256",
          "name": "marketId",
          "type": "uint256"
        }
      ],
      "name": "resolveAsInvalid",
      "outputs": [],
      "stateMutability": "nonpayable",
      "type": "function"
    },
    {
      "inputs": [
        {
          "internalType": "uint256",
          "name": "marketId",
          "type": "uint256"
        },
        {
          "internalType": "uint256",
          "name": "finalValue",
          "type": "uint256"
        }
      ],
      "name": "resolveMarket",
      "outputs": [],
      "stateMutability": "nonpayable",
      "type": "function"
    },
    {
      "inputs": [
        {
          "internalType": "uint256",
          "name": "marketId",
          "type": "uint256"
        },
        {
          "internalType": "uint256",
          "name": "sets",
          "type": "uint256"
        }
      ],
      "name": "sellShares",
      "outputs": [],
      "stateMutability": "nonpayable",
      "type": "function"
    },
    {
      "inputs": [],
      "name": "shareToken",
      "outputs": [
        {
          "internalType": "contract ShareToken",
          "name": "",
          "type": "address"
        }
      ],
      "stateMutability": "view",
      "type": "function"
    },
    {
      "inputs": [
        {
          "internalType": "address",
          "name": "newOwner",
          "type": "address"
        }
      ],
      "name": "transferOwnership",
      "outputs": [],
      "stateMutability": "nonpayable",
      "type": "function"
    }
  ],
  "bytecode": "0x608034620000f057601f6200243638819003918201601f19168301916001600160401b03831184841017620000f5578084926040948552833981010312620000f0576200005a602062000052836200010b565b92016200010b565b3315620000d75760008054336001600160a01b0319808316821784556040519590946001600160a01b03949093859391908416907f8be0079c531659141344cd1fd0a4f28419497f9722a3daafe3b4186f6b6457e09080a36001805516836002541617600255169060035416176003556123159081620001218239f35b604051631e4fbdf760e01b815260006004820152602490fd5b600080fd5b634e487b7160e01b600052604160045260246000fd5b51906001600160a01b0382168203620000f05756fe608080604052600436101561001357600080fd5b600090813560e01c90816315e54a3214611e98575080632279a97014611b6557806330dc389c14611b47578063406ef2ef14611b2957806355097bf114611b0b5780636055733314611a235780636c9fa59e146119fa578063715018a6146119a057806371a2fbfa1461198257806374cbc988146119025780637cbc2373146112e85780638da5cb5b146112c1578063a1ce5f9414611297578063b1283e7714611170578063b2016bd414611147578063beebc5da14610e93578063c0ffa4a614610e11578063c3ba325714610479578063d8d039891461044a578063dd899e2c1461042d578063eb44fdd3146101d4578063f2fde38b1461013e5763fd69f3c21461011e57600080fd5b3461013b578060031936011261013b576020600454604051908152f35b80fd5b503461013b57602036600319011261013b576004356001600160a01b03818116918290036101d05761016e6120d0565b81156101b757600054826bffffffffffffffffffffffff60a01b821617600055167f8be0079c531659141344cd1fd0a4f28419497f9722a3daafe3b4186f6b6457e0600080a380f35b604051631e4fbdf760e01b815260048101849052602490fd5b8280fd5b503461013b57602036600319011261013b57806040916101c083516101f881611f34565b828152606060208201526060858201526060808201528260808201528260a08201528260c08201528260e08201528261010082015282610120820152826101408201528261016082015282610180820152826101a082015201526004358152600560205220600d6040519161026c83611f34565b8054835261027c60018201611f73565b602084015261028d60028201611f73565b604084015261029e60038201611f73565b606084015260048101546001600160a01b038116608085015260a01c60ff166102c681612059565b60a0840152600581015460c0840152600681015460e08401526007810154610100840152600881015461012084015260ff60098201541661030681612059565b610140840152600a810154610160840152600b810154610180840152600c8101546101a084015201546101c0820152604051809160208252805160208301526101c061039761036660208401516101e06040870152610200860190612019565b610382604085015191601f199283888303016060890152612019565b90606085015190868303016080870152612019565b9160018060a01b0360808201511660a085015260a08101516103b881612059565b60c085015260c081015160e085015260e08101516101008501526101008101516101208501526101208101516101408501526101408101516103f981612059565b6101608501526101608101516101808501526101808101516101a08501526101a08101518285015201516101e08301520390f35b503461013b578060031936011261013b576020604051610e108152f35b503461013b57602036600319011261013b5760ff60406020926004358152600784522054166040519015158152f35b503461013b5760c036600319011261013b5760043567ffffffffffffffff8111610a3a576104ab903690600401612079565b60243567ffffffffffffffff81116101d0576104cb903690600401612079565b60443567ffffffffffffffff8111610a2b576104eb903690600401612079565b9160046064351015610a2b576104ff61219f565b60843560a4351115610dcc5760405160208101906105328161052460643587866120fc565b03601f198101835282611f51565b519020808552600760205260ff604086205416610d79576003546040516323b872dd60e01b815233600482015230602482015262989680604482015290602090829060649082908a906001600160a01b03165af18015610d6e5761059d918791610d3f575b50612139565b600454936000198514610d2b57600185016004556201518042014211610d2b5760025460405163138a645b60e31b8152600481018790526001600160a01b0390911691602082602481865afa918215610ce9578892610cf4575b5060206024936040519485809263a45569c560e01b82528b60048301525afa928315610ce9578893610cb0575b506040519461063286611f34565b87865260208601528560408601526060850152336080850152610656606435612059565b60643560a085015260843560c085015260a43560e08501524261010085015262015180420161012085015286610140850152610160840152610180830152678ac7230489e800006101a0830152678ac7230489e800006101c083015283855260056020526040852082518155602083015180519067ffffffffffffffff8211610b085781906106e86001850154611ed0565b601f8111610c60575b50602090601f8311600114610bf1578992610be6575b50508160011b916000199060031b1c19161760018201555b604083015180519067ffffffffffffffff8211610b085781906107456002850154611ed0565b601f8111610b96575b50602090601f8311600114610b27578992610b1c575b50508160011b916000199060031b1c19161760028201555b606083015180519067ffffffffffffffff8211610b085781906107a26003850154611ed0565b601f8111610ab8575b50602090601f8311600114610a49578992610a3e575b50508160011b916000199060031b1c19161760038201555b6004810160018060a01b0360808501511681549060a08601516107fb81612059565b61080481612059565b60ff60a01b9060a01b16916affffffffffffffffffffff60a81b161717905560c0830151600582015560e0830151600682015561010083015160078201556101208301516008820155600d6101c060098301946101408101519561086787612059565b61087087612059565b60ff199660ff888354169116179055610160810151600a850155610180810151600b8501556101a0810151600c85015501519101558452600760205260016040852091825416179055600660205281604084205560018060a01b0360025416828452600560205283600a60408220015491803b15610a3a57604051630ab714fb60e11b8082523360048301526024820194909452678ac7230489e8000060448201529082908290606490829084905af18015610a2f57610a17575b50600254848252600560205260408220600b0154906001600160a01b0316803b156101d0576040519384523360048501526024840191909152678ac7230489e8000060448401528290606490829084905af18015610a0c576109f8575b60208383817fd6c1663437064cef92f6aa4b8125518354af71edefa213c58d3d965708e6e4966109c360405193608085526080850190612019565b926109cf606435612059565b60643586820152608435604082015260a43560608201528033940390a360018055604051908152f35b610a028491611f0a565b6101d05782610988565b6040513d86823e3d90fd5b610a2090611f0a565b610a2b57833861092b565b8380fd5b6040513d84823e3d90fd5b5080fd5b0151905038806107c1565b9250600384018952602089209089935b601f1984168510610a9d576001945083601f19811610610a84575b505050811b0160038201556107d9565b015160001960f88460031b161c19169055388080610a74565b81810151835560209485019460019093019290910190610a59565b90915060038401895260208920601f840160051c810160208510610b01575b90849392915b601f830160051c82018110610af35750506107ab565b8b8155859450600101610add565b5080610ad7565b634e487b7160e01b88526041600452602488fd5b015190503880610764565b9250600284018952602089209089935b601f1984168510610b7b576001945083601f19811610610b62575b505050811b01600282015561077c565b015160001960f88460031b161c19169055388080610b52565b81810151835560209485019460019093019290910190610b37565b90915060028401895260208920601f840160051c810160208510610bdf575b90849392915b601f830160051c82018110610bd157505061074e565b8b8155859450600101610bbb565b5080610bb5565b015190503880610707565b9250600184018952602089209089935b601f1984168510610c45576001945083601f19811610610c2c575b505050811b01600182015561071f565b015160001960f88460031b161c19169055388080610c1c565b81810151835560209485019460019093019290910190610c01565b90915060018401895260208920601f840160051c810160208510610ca9575b90849392915b601f830160051c82018110610c9b5750506106f1565b8b8155859450600101610c85565b5080610c7f565b9092506020813d602011610ce1575b81610ccc60209383611f51565b81010312610cdc57519138610624565b600080fd5b3d9150610cbf565b6040513d8a823e3d90fd5b9291506020833d602011610d23575b81610d1060209383611f51565b81010312610cdc579151909160206105f7565b3d9150610d03565b634e487b7160e01b86526011600452602486fd5b610d61915060203d602011610d67575b610d598183611f51565b810190612121565b38610597565b503d610d4f565b6040513d88823e3d90fd5b60405162461bcd60e51b815260206004820152602560248201527f4d61726b657420616c72656164792065786973747320666f722074686973206d604482015264657472696360d81b6064820152608490fd5b60405162461bcd60e51b815260206004820152601860248201527f546172676574206d757374206265203e2063757272656e7400000000000000006044820152606490fd5b503461013b57604036600319011261013b5760043567ffffffffffffffff8111610a3a57610e43903690600401612079565b90602435916004831015610a3a57610524610e6a60409485519283916020830195866120fc565b519020815260076020528160ff8183205416916006602052205490825191825215156020820152f35b503461013b57610ea236611eba565b90610eab61219f565b8083526020916005835260408420610ed360ff600983015416610ecd81612059565b156121c2565b60088101544210156111115781156110cc57620f4240820290620f423f1983830401610d2b576003546040516323b872dd60e01b8152336004820152306024820152604481018490526001600160a01b03918790829060649082908c9087165af18015610ce957610f4a9189916110b55750612139565b670de0b6b3a7640000808502948504036110a1578087916002541690600a84015491803b15610a2b57604051630ab714fb60e11b8082523360048301526024820194909452604481018890529084908290606490829084905af1908115610a0c57849161108d575b50506002541690600b84015490823b15610a2b576040519081523360048201526024810191909152604481018690529082908290606490829084905af18015610a2f57611075575b505080600c600d920161100e85825461217c565b90550161101c83825461217c565b9055604051916001835280858401528160408401527f7cda082fcba0bd59667d9826eac7270e04ca66bfcd492be9af7ed132936b2ed492848460603393a360405194868652850152604084015260603393a36001805580f35b61107e90611f0a565b611089578538610ffa565b8580fd5b61109690611f0a565b6101d0578238610fb2565b634e487b7160e01b87526011600452602487fd5b610d619150883d8a11610d6757610d598183611f51565b60405162461bcd60e51b815260048101859052601760248201527f4d75737420627579206174206c656173742031207365740000000000000000006044820152606490fd5b60405162461bcd60e51b815260048101859052600e60248201526d13585c9ad95d08195e1c1a5c995960921b6044820152606490fd5b503461013b578060031936011261013b576003546040516001600160a01b039091168152602090f35b503461013b57602036600319011261013b576004358152600560205260409020805461119e60018301611f73565b916111ab60028201611f73565b6111b760038301611f73565b91600481015492600582015460068301546007840154600885015490600986015460ff1692600a87015494600b88015496600c89015498600d0154996040519d8e9d8e528d6101e0908160208201520161121091612019565b8d810360408f015261122191612019565b8c810360608e015261123291612019565b6001600160a01b038b1660808d01529960a01c60ff1661125181612059565b60a08c015260c08b015260e08a015261010089015261012088015261127581612059565b6101408701526101608601526101808501526101a08401526101c08301520390f35b503461013b57602036600319011261013b5760406020916004358152600683522054604051908152f35b503461013b578060031936011261013b57546040516001600160a01b039091168152602090f35b503461013b576112f736611eba565b9061130061219f565b808352602060058152604084209060ff6009830154169161132083612059565b82156118ce578415611889578590819361133981612059565b6001810361152a5750600254600a9190910154604051627eeac760e11b81523360048201526024810182905293945091926001600160a01b03909116908481604481855afa8015610a0c57879185916114f4575b509061139a911015612202565b803b156101d057604051637a94c56560e11b815233600482015260248101929092526044820186905282908290606490829084905af18015610a2f576114e0575b5050620f42408302620f423f19848204016114cc57670de0b6b3a76400009004905b60035460405163a9059cbb60e01b815233600482015260248101849052908290829060449082908a906001600160a01b03165af1908115610d6e5786916114af575b501561147b576040519384528301527f693faff7f0019974c7e4470b52030262ebd85d7f2bb9373e1c9eb677f4cabc9760403393a36001805580f35b6064906040519062461bcd60e51b82526004820152600d60248201526c14185e5bdd5d0819985a5b1959609a1b6044820152fd5b6114c69150823d8411610d6757610d598183611f51565b3861143f565b634e487b7160e01b85526011600452602485fd5b6114e990611f0a565b610a2b5783386113db565b945050508383813d8311611523575b61150d8183611f51565b81010312610cdc5761139a86889451909161138d565b503d611503565b61153381612059565b600281036116455750600254600b9190910154604051627eeac760e11b81523360048201526024810182905293945091926001600160a01b03909116908481604481855afa8015610a0c578791859161160f575b509061159491101561224e565b803b156101d057604051637a94c56560e11b815233600482015260248101929092526044820186905282908290606490829084905af18015610a2f576115fb575b5050620f42408302620f423f19848204016114cc57670de0b6b3a76400009004906113fd565b61160490611f0a565b610a2b5783386115d5565b945050508383813d831161163e575b6116288183611f51565b81010312610cdc57611594868894519091611587565b503d61161e565b80611651600392612059565b1461165e575b50506113fd565b600254600a82018054604051627eeac760e11b8082523360048301526024820192909252959650939490936001600160a01b039391928416918784604481865afa93841561184a578794611855575b50600b015460405191825233600483015260248201819052928782604481865afa90811561184a578a928892611815575b50821161176e575050505060025416905490803b156101d057604051637a94c56560e11b815233600482015260248101929092526044820186905282908290606490829084905af18015610a2f5761175a575b50505b620f42408302620f423f19848204016114cc57671bc16d674ec800009004908438611657565b61176390611f0a565b610a2b578338611731565b9295509093501190506117da57908186923b156101d057604051637a94c56560e11b815233600482015260248101929092526044820186905282908290606490829084905af18015610a2f576117c6575b5050611734565b6117cf90611f0a565b610a2b5783386117bf565b60405162461bcd60e51b8152600481018490526013602482015272496e73756666696369656e742073686172657360681b6044820152606490fd5b92509650508681813d8311611843575b61182f8183611f51565b81010312610cdc57518995899190826116de565b503d611825565b6040513d89823e3d90fd5b965092508686813d8111611882575b61186e8183611f51565b81010312610cdc57600b8a965193906116ad565b503d611864565b60405162461bcd60e51b815260048101839052601c60248201527f4d7573742072656465656d206174206c656173742031207368617265000000006044820152606490fd5b60405162461bcd60e51b815260048101839052600c60248201526b139bdd081c995cdbdb1d995960a21b6044820152606490fd5b503461013b57602036600319011261013b5760043561191f6120d0565b8082526005602052600960408320016003815461194860ff821661194281612059565b156122a0565b60ff19161790557f661ce16e44a34377fc37c19874f4b1bec6e84b072cf8d318838fe17c20c58e446040805160038152846020820152a280f35b503461013b578060031936011261013b576020604051620f42408152f35b503461013b578060031936011261013b576119b96120d0565b600080546001600160a01b0319811682556001600160a01b03167f8be0079c531659141344cd1fd0a4f28419497f9722a3daafe3b4186f6b6457e08280a380f35b503461013b578060031936011261013b576002546040516001600160a01b039091168152602090f35b503461013b57611a3236611eba565b611a3a6120d0565b8183526005602052604083206009810191825491611a5e60ff841661194281612059565b6008810154610e1081018091116110a1574210611ada57600601547f661ce16e44a34377fc37c19874f4b1bec6e84b072cf8d318838fe17c20c58e449360409360ff928410611acd5750600182198254161781555b541690825191611ac281612059565b82526020820152a280f35b8219166002178155611ab3565b60405162461bcd60e51b8152602060048201526009602482015268546f6f206561726c7960b81b6044820152606490fd5b503461013b578060031936011261013b576020604051629896808152f35b503461013b578060031936011261013b576020600454604051908152f35b503461013b578060031936011261013b576020604051620151808152f35b503461013b57611b7436611eba565b90611b7d61219f565b8083526020916005835260408420611b9f60ff600983015416610ecd81612059565b8115611e5357670de0b6b3a7640000820290670de0b6b3a763ffff1983830401610d2b57600254600a820154604051627eeac760e11b808252336004830152602482018390526001600160a01b039493909291908516908981604481855afa8015611e175787908c90611e22575b611c1992501015612202565b600b840180546040519485523360048601526024850152928981604481855afa8015611e175787908c90611de2575b611c549250101561224e565b803b15611dde57604051637a94c56560e11b808252336004830152602482019390935260448101879052908a908290606490829084905af18015611dd357611dbe575b5060025491548992851691823b15610a2b576040519081523360048201526024810191909152604481018690529082908290606490829084905af18015610a2f57611da6575b505080600c600d9201611cf1858254612293565b905501611cff838254612293565b9055620f424080840293840403610d2b5760035460405163a9059cbb60e01b815233600482015260248101859052918691839160449183918b91165af18015610d6e57611d52918791611d8f5750612139565b604051936001855284015260408301527f94b9abffd136807657ff03481129022bb49e2b3b1bd74ff4a970b77d2730ee7560603393a36001805580f35b610d619150863d8811610d6757610d598183611f51565b611daf90611f0a565b611dba578638611cdd565b8680fd5b611dcb9099919299611f0a565b979038611c97565b6040513d8c823e3d90fd5b8980fd5b50508981813d8311611e10575b611df98183611f51565b81010312611e0c5786611c549151611c48565b8a80fd5b503d611def565b6040513d8d823e3d90fd5b50508981813d8311611e4c575b611e398183611f51565b81010312611e0c5786611c199151611c0d565b503d611e2f565b60405162461bcd60e51b815260048101859052601860248201527f4d7573742073656c6c206174206c6561737420312073657400000000000000006044820152606490fd5b905034610a3a5781600319360112610a3a5780670de0b6b3a764000060209252f35b6040906003190112610cdc576004359060243590565b90600182811c92168015611f00575b6020831014611eea57565b634e487b7160e01b600052602260045260246000fd5b91607f1691611edf565b67ffffffffffffffff8111611f1e57604052565b634e487b7160e01b600052604160045260246000fd5b6101e0810190811067ffffffffffffffff821117611f1e57604052565b90601f8019910116810190811067ffffffffffffffff821117611f1e57604052565b9060405191826000825492611f8784611ed0565b908184526001948581169081600014611ff65750600114611fb3575b5050611fb192500383611f51565b565b9093915060005260209081600020936000915b818310611fde575050611fb193508201013880611fa3565b85548884018501529485019487945091830191611fc6565b915050611fb194506020925060ff191682840152151560051b8201013880611fa3565b919082519283825260005b848110612045575050826000602080949584010152601f8019910116010190565b602081830181015184830182015201612024565b6004111561206357565b634e487b7160e01b600052602160045260246000fd5b81601f82011215610cdc5780359067ffffffffffffffff8211611f1e57604051926120ae601f8401601f191660200185611f51565b82845260208383010111610cdc57816000926020809301838601378301015290565b6000546001600160a01b031633036120e457565b60405163118cdaa760e01b8152336004820152602490fd5b929190612113602091604086526040860190612019565b9361211d83612059565b0152565b90816020910312610cdc57518015158103610cdc5790565b1561214057565b60405162461bcd60e51b81526020600482015260146024820152731554d110c81d1c985b9cd9995c8819985a5b195960621b6044820152606490fd5b9190820180921161218957565b634e487b7160e01b600052601160045260246000fd5b6002600154146121b0576002600155565b604051633ee5aeb560e01b8152600490fd5b156121c957565b60405162461bcd60e51b81526020600482015260116024820152704d61726b6574206e6f742061637469766560781b6044820152606490fd5b1561220957565b60405162461bcd60e51b815260206004820152601760248201527f496e73756666696369656e7420594553207368617265730000000000000000006044820152606490fd5b1561225557565b60405162461bcd60e51b8152602060048201526016602482015275496e73756666696369656e74204e4f2073686172657360501b6044820152606490fd5b9190820391821161218957565b156122a757565b60405162461bcd60e51b815260206004820152601060248201526f105b1c9958591e481c995cdbdb1d995960821b6044820152606490fdfea2646970667358221220d32c2c4a72b3edf088cac9490b0cad638aa30d4419fcccbe0080157d22bd09a064736f6c63430008140033",
  "linkReferences": {},
  "deployedLinkReferences": {}
}