{"contracts/MarketFactory.sol":{"MarketFactory":{"abi":[{"inputs":[{"internalType":"address","name":"_shareToken","type":"address"},{"internalType":"address","name":"_collateralToken","type":"address"}],"stateMutability":"nonpayable","type":"constructor"},{"inputs":[{"internalType":"address","name":"owner","type":"address"}],"name":"OwnableInvalidOwner","type":"error"},{"inputs":[{"internalType":"address","name":"account","type":"address"}],"name":"OwnableUnauthorizedAccount","type":"error"},{"inputs":[],"name":"ReentrancyGuardReentrantCall","type":"error"},{"anonymous":false,"inputs":[{"indexed":true,"internalType":"uint256","name":"marketId","type":"uint256"},{"indexed":true,"internalType":"address","name":"scout","type":"address"},{"indexed":false,"internalType":"string","name":"tweetId","type":"string"},{"indexed":false,"internalType":"enum MarketFactory.MetricType","name":"metric","type":"uint8"},{"indexed":false,"internalType":"uint256","name":"currentValue","type":"uint256"},{"indexed":false,"internalType":"uint256","name":"targetValue","type":"uint256"}],"name":"MarketCreated","type":"event"},{"anonymous":false,"inputs":[{"indexed":true,"internalType":"uint256","name":"marketId","type":"uint256"},{"indexed":false,"internalType":"enum MarketFactory.ResolutionStatus","name":"status","type":"uint8"},{"indexed":false,"internalType":"uint256","name":"finalValue","type":"uint256"}],"name":"MarketResolved","type":"event"},{"anonymous":false,"inputs":[{"indexed":true,"internalType":"address","name":"previousOwner","type":"address"},{"indexed":true,"internalType":"address","name":"newOwner","type":"address"}],"name":"OwnershipTransferred","type":"event"},{"anonymous":false,"inputs":[{"indexed":true,"internalType":"uint256","name":"marketId","type":"uint256"},{"indexed":true,"internalType":"address","name":"buyer","type":"address"},{"indexed":false,"internalType":"bool","name":"isYes","type":"bool"},{"indexed":false,"internalType":"uint256","name":"shares","type":"uint256"},{"indexed":false,"internalType":"uint256","name":"cost","type":"uint256"}],"name":"SharesBought","type":"event"},{"anonymous":false,"inputs":[{"indexed":true,"internalType":"uint256","name":"marketId","type":"uint256"},{"indexed":true,"internalType":"address","name":"user","type":"address"},{"indexed":false,"internalType":"uint256","name":"shares","type":"uint256"},{"indexed":false,"internalType":"uint256","name":"payout","type":"uint256"}],"name":"SharesRedeemed","type":"event"},{"anonymous":false,"inputs":[{"indexed":true,"internalType":"uint256","name":"marketId","type":"uint256"},{"indexed":true,"internalType":"address","name":"seller","type":"address"},{"indexed":false,"internalType":"bool","name":"isYes","type":"bool"},{"indexed":false,"internalType":"uint256","name":"shares","type":"uint256"},{"indexed":false,"internalType":"uint256","name":"payout","type":"uint256"}],"name":"SharesSold","type":"event"},{"inputs":[],"name":"INITIAL_LIQUIDITY","outputs":[{"internalType":"uint256","name":"","type":"uint256"}],"stateMutability":"view","type":"function"},{"inputs":[],"name":"MARKET_DURATION","outputs":[{"internalType":"uint256","name":"","type":"uint256"}],"stateMutability":"view","type":"function"},{"inputs":[],"name":"RESOLUTION_DELAY","outputs":[{"internalType":"uint256","name":"","type":"uint256"}],"stateMutability":"view","type":"function"},{"inputs":[],"name":"SHARES_PER_SET","outputs":[{"internalType":"uint256","name":"","type":"uint256"}],"stateMutability":"view","type":"function"},{"inputs":[],"name":"SHARE_PRICE","outputs":[{"internalType":"uint256","name":"","type":"uint256"}],"stateMutability":"view","type":"function"},{"inputs":[{"internalType":"uint256","name":"marketId","type":"uint256"},{"internalType":"uint256","name":"sets","type":"uint256"}],"name":"buyShares","outputs":[],"stateMutability":"nonpayable","type":"function"},{"inputs":[],"name":"collateralToken","outputs":[{"internalType":"contract IERC20","name":"","type":"address"}],"stateMutability":"view","type":"function"},{"inputs":[{"internalType":"string","name":"tweetUrl","type":"string"},{"internalType":"string","name":"tweetId","type":"string"},{"internalType":"string","name":"authorHandle","type":"string"},{"internalType":"enum MarketFactory.MetricType","name":"metric","type":"uint8"},{"internalType":"uint256","name":"currentValue","type":"uint256"},{"internalType":"uint256","name":"targetValue","type":"uint256"}],"name":"createMarket","outputs":[{"internalType":"uint256","name":"marketId","type":"uint256"}],"stateMutability":"nonpayable","type":"function"},{"inputs":[{"internalType":"uint256","name":"marketId","type":"uint256"}],"name":"getMarket","outputs":[{"components":[{"internalType":"uint256","name":"id","type":"uint256"},{"internalType":"string","name":"tweetUrl","type":"string"},{"internalType":"string","name":"tweetId","type":"string"},{"internalType":"string","name":"authorHandle","type":"string"},{"internalType":"address","name":"scout","type":"address"},{"internalType":"enum MarketFactory.MetricType","name":"metric","type":"uint8"},{"internalType":"uint256","name":"currentValue","type":"uint256"},{"internalType":"uint256","name":"targetValue","type":"uint256"},{"internalType":"uint256","name":"startTime","type":"uint256"},{"internalType":"uint256","name":"endTime","type":"uint256"},{"internalType":"enum MarketFactory.ResolutionStatus","name":"status","type":"uint8"},{"internalType":"uint256","name":"yesTokenId","type":"uint256"},{"internalType":"uint256","name":"noTokenId","type":"uint256"},{"internalType":"uint256","name":"totalYesShares","type":"uint256"},{"internalType":"uint256","name":"totalNoShares","type":"uint256"}],"internalType":"struct MarketFactory.Market","name":"","type":"tuple"}],"stateMutability":"view","type":"function"},{"inputs":[{"internalType":"string","name":"tweetId","type":"string"},{"internalType":"enum MarketFactory.MetricType","name":"metric","type":"uint8"}],"name":"getMarketByTweetAndMetric","outputs":[{"internalType":"uint256","name":"marketId","type":"uint256"},{"internalType":"bool","name":"exists","type":"bool"}],"stateMutability":"view","type":"function"},{"inputs":[],"name":"getMarketCount","outputs":[{"internalType":"uint256","name":"","type":"uint256"}],"stateMutability":"view","type":"function"},{"inputs":[{"internalType":"bytes32","name":"","type":"bytes32"}],"name":"marketByHash","outputs":[{"internalType":"uint256","name":"","type":"uint256"}],"stateMutability":"view","type":"function"},{"inputs":[{"internalType":"bytes32","name":"","type":"bytes32"}],"name":"marketExists","outputs":[{"internalType":"bool","name":"","type":"bool"}],"stateMutability":"view","type":"function"},{"inputs":[{"internalType":"uint256","name":"","type":"uint256"}],"name":"markets","outputs":[{"internalType":"uint256","name":"id","type":"uint256"},{"internalType":"string","name":"tweetUrl","type":"string"},{"internalType":"string","name":"tweetId","type":"string"},{"internalType":"string","name":"authorHandle","type":"string"},{"internalType":"address","name":"scout","type":"address"},{"internalType":"enum MarketFactory.MetricType","name":"metric","type":"uint8"},{"internalType":"uint256","name":"currentValue","type":"uint256"},{"internalType":"uint256","name":"targetValue","type":"uint256"},{"internalType":"uint256","name":"startTime","type":"uint256"},{"internalType":"uint256","name":"endTime","type":"uint256"},{"internalType":"enum MarketFactory.ResolutionStatus","name":"status","type":"uint8"},{"internalType":"uint256","name":"yesTokenId","type":"uint256"},{"internalType":"uint256","name":"noTokenId","type":"uint256"},{"internalType":"uint256","name":"totalYesShares","type":"uint256"},{"internalType":"uint256","name":"totalNoShares","type":"uint256"}],"stateMutability":"view","type":"function"},{"inputs":[],"name":"nextMarketId","outputs":[{"internalType":"uint256","name":"","type":"uint256"}],"stateMutability":"view","type":"function"},{"inputs":[],"name":"owner","outputs":[{"internalType":"address","name":"","type":"address"}],"stateMutability":"view","type":"function"},{"inputs":[{"internalType":"uint256","name":"marketId","type":"uint256"},{"internalType":"uint256","name":"shares","type":"uint256"}],"name":"redeem","outputs":[],"stateMutability":"nonpayable","type":"function"},{"inputs":[],"name":"renounceOwnership","outputs":[],"stateMutability":"nonpayable","type":"function"},{"inputs":[{"internalType":"uint256","name":"marketId","type":"uint256"}],"name":"resolveAsInvalid","outputs":[],"stateMutability":"nonpayable","type":"function"},{"inputs":[{"internalType":"uint256","name":"marketId","type":"uint256"},{"internalType":"uint256","name":"finalValue","type":"uint256"}],"name":"resolveMarket","outputs":[],"stateMutability":"nonpayable","type":"function"},{"inputs":[{"internalType":"uint256","name":"marketId","type":"uint256"},{"internalType":"uint256","name":"sets","type":"uint256"}],"name":"sellShares","outputs":[],"stateMutability":"nonpayable","type":"function"},{"inputs":[],"name":"shareToken","outputs":[{"internalType":"contract ShareToken","name":"","type":"address"}],"stateMutability":"view","type":"function"},{"inputs":[{"internalType":"address","name":"newOwner","type":"address"}],"name":"transferOwnership","outputs":[],"stateMutability":"nonpayable","type":"function"}],"evm":{"bytecode":{"linkReferences":{},"object":"608034620000f057601f6200243638819003918201601f19168301916001600160401b03831184841017620000f5578084926040948552833981010312620000f0576200005a602062000052836200010b565b92016200010b565b3315620000d75760008054336001600160a01b0319808316821784556040519590946001600160a01b03949093859391908416907f8be0079c531659141344cd1fd0a4f28419497f9722a3daafe3b4186f6b6457e09080a36001805516836002541617600255169060035416176003556123159081620001218239f35b604051631e4fbdf760e01b815260006004820152602490fd5b600080fd5b634e487b7160e01b600052604160045260246000fd5b51906001600160a01b0382168203620000f05756fe608080604052600436101561001357600080fd5b600090813560e01c90816315e54a3214611e98575080632279a97014611b6557806330dc389c14611b47578063406ef2ef14611b2957806355097bf114611b0b5780636055733314611a235780636c9fa59e146119fa578063715018a6146119a057806371a2fbfa1461198257806374cbc988146119025780637cbc2373146112e85780638da5cb5b146112c1578063a1ce5f9414611297578063b1283e7714611170578063b2016bd414611147578063beebc5da14610e93578063c0ffa4a614610e11578063c3ba325714610479578063d8d039891461044a578063dd899e2c1461042d578063eb44fdd3146101d4578063f2fde38b1461013e5763fd69f3c21461011e57600080fd5b3461013b578060031936011261013b576020600454604051908152f35b80fd5b503461013b57602036600319011261013b576004356001600160a01b03818116918290036101d05761016e6120d0565b81156101b757600054826bffffffffffffffffffffffff60a01b821617600055167f8be0079c531659141344cd1fd0a4f28419497f9722a3daafe3b4186f6b6457e0600080a380f35b604051631e4fbdf760e01b815260048101849052602490fd5b8280fd5b503461013b57602036600319011261013b57806040916101c083516101f881611f34565b828152606060208201526060858201526060808201528260808201528260a08201528260c08201528260e08201528261010082015282610120820152826101408201528261016082015282610180820152826101a082015201526004358152600560205220600d6040519161026c83611f34565b8054835261027c60018201611f73565b602084015261028d60028201611f73565b604084015261029e60038201611f73565b606084015260048101546001600160a01b038116608085015260a01c60ff166102c681612059565b60a0840152600581015460c0840152600681015460e08401526007810154610100840152600881015461012084015260ff60098201541661030681612059565b610140840152600a810154610160840152600b810154610180840152600c8101546101a084015201546101c0820152604051809160208252805160208301526101c061039761036660208401516101e06040870152610200860190612019565b610382604085015191601f199283888303016060890152612019565b90606085015190868303016080870152612019565b9160018060a01b0360808201511660a085015260a08101516103b881612059565b60c085015260c081015160e085015260e08101516101008501526101008101516101208501526101208101516101408501526101408101516103f981612059565b6101608501526101608101516101808501526101808101516101a08501526101a08101518285015201516101e08301520390f35b503461013b578060031936011261013b576020604051610e108152f35b503461013b57602036600319011261013b5760ff60406020926004358152600784522054166040519015158152f35b503461013b5760c036600319011261013b5760043567ffffffffffffffff8111610a3a576104ab903690600401612079565b60243567ffffffffffffffff81116101d0576104cb903690600401612079565b60443567ffffffffffffffff8111610a2b576104eb903690600401612079565b9160046064351015610a2b576104ff61219f565b60843560a4351115610dcc5760405160208101906105328161052460643587866120fc565b03601f198101835282611f51565b519020808552600760205260ff604086205416610d79576003546040516323b872dd60e01b815233600482015230602482015262989680604482015290602090829060649082908a906001600160a01b03165af18015610d6e5761059d918791610d3f575b50612139565b600454936000198514610d2b57600185016004556201518042014211610d2b5760025460405163138a645b60e31b8152600481018790526001600160a01b0390911691602082602481865afa918215610ce9578892610cf4575b5060206024936040519485809263a45569c560e01b82528b60048301525afa928315610ce9578893610cb0575b506040519461063286611f34565b87865260208601528560408601526060850152336080850152610656606435612059565b60643560a085015260843560c085015260a43560e08501524261010085015262015180420161012085015286610140850152610160840152610180830152678ac7230489e800006101a0830152678ac7230489e800006101c083015283855260056020526040852082518155602083015180519067ffffffffffffffff8211610b085781906106e86001850154611ed0565b601f8111610c60575b50602090601f8311600114610bf1578992610be6575b50508160011b916000199060031b1c19161760018201555b604083015180519067ffffffffffffffff8211610b085781906107456002850154611ed0565b601f8111610b96575b50602090601f8311600114610b27578992610b1c575b50508160011b916000199060031b1c19161760028201555b606083015180519067ffffffffffffffff8211610b085781906107a26003850154611ed0565b601f8111610ab8575b50602090601f8311600114610a49578992610a3e575b50508160011b916000199060031b1c19161760038201555b6004810160018060a01b0360808501511681549060a08601516107fb81612059565b61080481612059565b60ff60a01b9060a01b16916affffffffffffffffffffff60a81b161717905560c0830151600582015560e0830151600682015561010083015160078201556101208301516008820155600d6101c060098301946101408101519561086787612059565b61087087612059565b60ff199660ff888354169116179055610160810151600a850155610180810151600b8501556101a0810151600c85015501519101558452600760205260016040852091825416179055600660205281604084205560018060a01b0360025416828452600560205283600a60408220015491803b15610a3a57604051630ab714fb60e11b8082523360048301526024820194909452678ac7230489e8000060448201529082908290606490829084905af18015610a2f57610a17575b50600254848252600560205260408220600b0154906001600160a01b0316803b156101d0576040519384523360048501526024840191909152678ac7230489e8000060448401528290606490829084905af18015610a0c576109f8575b60208383817fd6c1663437064cef92f6aa4b8125518354af71edefa213c58d3d965708e6e4966109c360405193608085526080850190612019565b926109cf606435612059565b60643586820152608435604082015260a43560608201528033940390a360018055604051908152f35b610a028491611f0a565b6101d05782610988565b6040513d86823e3d90fd5b610a2090611f0a565b610a2b57833861092b565b8380fd5b6040513d84823e3d90fd5b5080fd5b0151905038806107c1565b9250600384018952602089209089935b601f1984168510610a9d576001945083601f19811610610a84575b505050811b0160038201556107d9565b015160001960f88460031b161c19169055388080610a74565b81810151835560209485019460019093019290910190610a59565b90915060038401895260208920601f840160051c810160208510610b01575b90849392915b601f830160051c82018110610af35750506107ab565b8b8155859450600101610add565b5080610ad7565b634e487b7160e01b88526041600452602488fd5b015190503880610764565b9250600284018952602089209089935b601f1984168510610b7b576001945083601f19811610610b62575b505050811b01600282015561077c565b015160001960f88460031b161c19169055388080610b52565b81810151835560209485019460019093019290910190610b37565b90915060028401895260208920601f840160051c810160208510610bdf575b90849392915b601f830160051c82018110610bd157505061074e565b8b8155859450600101610bbb565b5080610bb5565b015190503880610707565b9250600184018952602089209089935b601f1984168510610c45576001945083601f19811610610c2c575b505050811b01600182015561071f565b015160001960f88460031b161c19169055388080610c1c565b81810151835560209485019460019093019290910190610c01565b90915060018401895260208920601f840160051c810160208510610ca9575b90849392915b601f830160051c82018110610c9b5750506106f1565b8b8155859450600101610c85565b5080610c7f565b9092506020813d602011610ce1575b81610ccc60209383611f51565b81010312610cdc57519138610624565b600080fd5b3d9150610cbf565b6040513d8a823e3d90fd5b9291506020833d602011610d23575b81610d1060209383611f51565b81010312610cdc579151909160206105f7565b3d9150610d03565b634e487b7160e01b86526011600452602486fd5b610d61915060203d602011610d67575b610d598183611f51565b810190612121565b38610597565b503d610d4f565b6040513d88823e3d90fd5b60405162461bcd60e51b815260206004820152602560248201527f4d61726b657420616c72656164792065786973747320666f722074686973206d604482015264657472696360d81b6064820152608490fd5b60405162461bcd60e51b815260206004820152601860248201527f546172676574206d757374206265203e2063757272656e7400000000000000006044820152606490fd5b503461013b57604036600319011261013b5760043567ffffffffffffffff8111610a3a57610e43903690600401612079565b90602435916004831015610a3a57610524610e6a60409485519283916020830195866120fc565b519020815260076020528160ff8183205416916006602052205490825191825215156020820152f35b503461013b57610ea236611eba565b90610eab61219f565b8083526020916005835260408420610ed360ff600983015416610ecd81612059565b156121c2565b60088101544210156111115781156110cc57620f4240820290620f423f1983830401610d2b576003546040516323b872dd60e01b8152336004820152306024820152604481018490526001600160a01b03918790829060649082908c9087165af18015610ce957610f4a9189916110b55750612139565b670de0b6b3a7640000808502948504036110a1578087916002541690600a84015491803b15610a2b57604051630ab714fb60e11b8082523360048301526024820194909452604481018890529084908290606490829084905af1908115610a0c57849161108d575b50506002541690600b84015490823b15610a2b576040519081523360048201526024810191909152604481018690529082908290606490829084905af18015610a2f57611075575b505080600c600d920161100e85825461217c565b90550161101c83825461217c565b9055604051916001835280858401528160408401527f7cda082fcba0bd59667d9826eac7270e04ca66bfcd492be9af7ed132936b2ed492848460603393a360405194868652850152604084015260603393a36001805580f35b61107e90611f0a565b611089578538610ffa565b8580fd5b61109690611f0a565b6101d0578238610fb2565b634e487b7160e01b87526011600452602487fd5b610d619150883d8a11610d6757610d598183611f51565b60405162461bcd60e51b815260048101859052601760248201527f4d75737420627579206174206c656173742031207365740000000000000000006044820152606490fd5b60405162461bcd60e51b815260048101859052600e60248201526d13585c9ad95d08195e1c1a5c995960921b6044820152606490fd5b503461013b578060031936011261013b576003546040516001600160a01b039091168152602090f35b503461013b57602036600319011261013b576004358152600560205260409020805461119e60018301611f73565b916111ab60028201611f73565b6111b760038301611f73565b91600481015492600582015460068301546007840154600885015490600986015460ff1692600a87015494600b88015496600c89015498600d0154996040519d8e9d8e528d6101e0908160208201520161121091612019565b8d810360408f015261122191612019565b8c810360608e015261123291612019565b6001600160a01b038b1660808d01529960a01c60ff1661125181612059565b60a08c015260c08b015260e08a015261010089015261012088015261127581612059565b6101408701526101608601526101808501526101a08401526101c08301520390f35b503461013b57602036600319011261013b5760406020916004358152600683522054604051908152f35b503461013b578060031936011261013b57546040516001600160a01b039091168152602090f35b503461013b576112f736611eba565b9061130061219f565b808352602060058152604084209060ff6009830154169161132083612059565b82156118ce578415611889578590819361133981612059565b6001810361152a5750600254600a9190910154604051627eeac760e11b81523360048201526024810182905293945091926001600160a01b03909116908481604481855afa8015610a0c57879185916114f4575b509061139a911015612202565b803b156101d057604051637a94c56560e11b815233600482015260248101929092526044820186905282908290606490829084905af18015610a2f576114e0575b5050620f42408302620f423f19848204016114cc57670de0b6b3a76400009004905b60035460405163a9059cbb60e01b815233600482015260248101849052908290829060449082908a906001600160a01b03165af1908115610d6e5786916114af575b501561147b576040519384528301527f693faff7f0019974c7e4470b52030262ebd85d7f2bb9373e1c9eb677f4cabc9760403393a36001805580f35b6064906040519062461bcd60e51b82526004820152600d60248201526c14185e5bdd5d0819985a5b1959609a1b6044820152fd5b6114c69150823d8411610d6757610d598183611f51565b3861143f565b634e487b7160e01b85526011600452602485fd5b6114e990611f0a565b610a2b5783386113db565b945050508383813d8311611523575b61150d8183611f51565b81010312610cdc5761139a86889451909161138d565b503d611503565b61153381612059565b600281036116455750600254600b9190910154604051627eeac760e11b81523360048201526024810182905293945091926001600160a01b03909116908481604481855afa8015610a0c578791859161160f575b509061159491101561224e565b803b156101d057604051637a94c56560e11b815233600482015260248101929092526044820186905282908290606490829084905af18015610a2f576115fb575b5050620f42408302620f423f19848204016114cc57670de0b6b3a76400009004906113fd565b61160490611f0a565b610a2b5783386115d5565b945050508383813d831161163e575b6116288183611f51565b81010312610cdc57611594868894519091611587565b503d61161e565b80611651600392612059565b1461165e575b50506113fd565b600254600a82018054604051627eeac760e11b8082523360048301526024820192909252959650939490936001600160a01b039391928416918784604481865afa93841561184a578794611855575b50600b015460405191825233600483015260248201819052928782604481865afa90811561184a578a928892611815575b50821161176e575050505060025416905490803b156101d057604051637a94c56560e11b815233600482015260248101929092526044820186905282908290606490829084905af18015610a2f5761175a575b50505b620f42408302620f423f19848204016114cc57671bc16d674ec800009004908438611657565b61176390611f0a565b610a2b578338611731565b9295509093501190506117da57908186923b156101d057604051637a94c56560e11b815233600482015260248101929092526044820186905282908290606490829084905af18015610a2f576117c6575b5050611734565b6117cf90611f0a565b610a2b5783386117bf565b60405162461bcd60e51b8152600481018490526013602482015272496e73756666696369656e742073686172657360681b6044820152606490fd5b92509650508681813d8311611843575b61182f8183611f51565b81010312610cdc57518995899190826116de565b503d611825565b6040513d89823e3d90fd5b965092508686813d8111611882575b61186e8183611f51565b81010312610cdc57600b8a965193906116ad565b503d611864565b60405162461bcd60e51b815260048101839052601c60248201527f4d7573742072656465656d206174206c656173742031207368617265000000006044820152606490fd5b60405162461bcd60e51b815260048101839052600c60248201526b139bdd081c995cdbdb1d995960a21b6044820152606490fd5b503461013b57602036600319011261013b5760043561191f6120d0565b8082526005602052600960408320016003815461194860ff821661194281612059565b156122a0565b60ff19161790557f661ce16e44a34377fc37c19874f4b1bec6e84b072cf8d318838fe17c20c58e446040805160038152846020820152a280f35b503461013b578060031936011261013b576020604051620f42408152f35b503461013b578060031936011261013b576119b96120d0565b600080546001600160a01b0319811682556001600160a01b03167f8be0079c531659141344cd1fd0a4f28419497f9722a3daafe3b4186f6b6457e08280a380f35b503461013b578060031936011261013b576002546040516001600160a01b039091168152602090f35b503461013b57611a3236611eba565b611a3a6120d0565b8183526005602052604083206009810191825491611a5e60ff841661194281612059565b6008810154610e1081018091116110a1574210611ada57600601547f661ce16e44a34377fc37c19874f4b1bec6e84b072cf8d318838fe17c20c58e449360409360ff928410611acd5750600182198254161781555b541690825191611ac281612059565b82526020820152a280f35b8219166002178155611ab3565b60405162461bcd60e51b8152602060048201526009602482015268546f6f206561726c7960b81b6044820152606490fd5b503461013b578060031936011261013b576020604051629896808152f35b503461013b578060031936011261013b576020600454604051908152f35b503461013b578060031936011261013b576020604051620151808152f35b503461013b57611b7436611eba565b90611b7d61219f565b8083526020916005835260408420611b9f60ff600983015416610ecd81612059565b8115611e5357670de0b6b3a7640000820290670de0b6b3a763ffff1983830401610d2b57600254600a820154604051627eeac760e11b808252336004830152602482018390526001600160a01b039493909291908516908981604481855afa8015611e175787908c90611e22575b611c1992501015612202565b600b840180546040519485523360048601526024850152928981604481855afa8015611e175787908c90611de2575b611c549250101561224e565b803b15611dde57604051637a94c56560e11b808252336004830152602482019390935260448101879052908a908290606490829084905af18015611dd357611dbe575b5060025491548992851691823b15610a2b576040519081523360048201526024810191909152604481018690529082908290606490829084905af18015610a2f57611da6575b505080600c600d9201611cf1858254612293565b905501611cff838254612293565b9055620f424080840293840403610d2b5760035460405163a9059cbb60e01b815233600482015260248101859052918691839160449183918b91165af18015610d6e57611d52918791611d8f5750612139565b604051936001855284015260408301527f94b9abffd136807657ff03481129022bb49e2b3b1bd74ff4a970b77d2730ee7560603393a36001805580f35b610d619150863d8811610d6757610d598183611f51565b611daf90611f0a565b611dba578638611cdd565b8680fd5b611dcb9099919299611f0a565b979038611c97565b6040513d8c823e3d90fd5b8980fd5b50508981813d8311611e10575b611df98183611f51565b81010312611e0c5786611c549151611c48565b8a80fd5b503d611def565b6040513d8d823e3d90fd5b50508981813d8311611e4c575b611e398183611f51565b81010312611e0c5786611c199151611c0d565b503d611e2f565b60405162461bcd60e51b815260048101859052601860248201527f4d7573742073656c6c206174206c6561737420312073657400000000000000006044820152606490fd5b905034610a3a5781600319360112610a3a5780670de0b6b3a764000060209252f35b6040906003190112610cdc576004359060243590565b90600182811c92168015611f00575b6020831014611eea57565b634e487b7160e01b600052602260045260246000fd5b91607f1691611edf565b67ffffffffffffffff8111611f1e57604052565b634e487b7160e01b600052604160045260246000fd5b6101e0810190811067ffffffffffffffff821117611f1e57604052565b90601f8019910116810190811067ffffffffffffffff821117611f1e57604052565b9060405191826000825492611f8784611ed0565b908184526001948581169081600014611ff65750600114611fb3575b5050611fb192500383611f51565b565b9093915060005260209081600020936000915b818310611fde575050611fb193508201013880611fa3565b85548884018501529485019487945091830191611fc6565b915050611fb194506020925060ff191682840152151560051b8201013880611fa3565b919082519283825260005b848110612045575050826000602080949584010152601f8019910116010190565b602081830181015184830182015201612024565b6004111561206357565b634e487b7160e01b600052602160045260246000fd5b81601f82011215610cdc5780359067ffffffffffffffff8211611f1e57604051926120ae601f8401601f191660200185611f51565b82845260208383010111610cdc57816000926020809301838601378301015290565b6000546001600160a01b031633036120e457565b60405163118cdaa760e01b8152336004820152602490fd5b929190612113602091604086526040860190612019565b9361211d83612059565b0152565b90816020910312610cdc57518015158103610cdc5790565b1561214057565b60405162461bcd60e51b81526020600482015260146024820152731554d110c81d1c985b9cd9995c8819985a5b195960621b6044820152606490fd5b9190820180921161218957565b634e487b7160e01b600052601160045260246000fd5b6002600154146121b0576002600155565b604051633ee5aeb560e01b8152600490fd5b156121c957565b60405162461bcd60e51b81526020600482015260116024820152704d61726b6574206e6f742061637469766560781b6044820152606490fd5b1561220957565b60405162461bcd60e51b815260206004820152601760248201527f496e73756666696369656e7420594553207368617265730000000000000000006044820152606490fd5b1561225557565b60405162461bcd60e51b8152602060048201526016602482015275496e73756666696369656e74204e4f2073686172657360501b6044820152606490fd5b9190820391821161218957565b156122a757565b60405162461bcd60e51b815260206004820152601060248201526f105b1c9958591e481c995cdbdb1d995960821b6044820152606490fdfea2646970667358221220d32c2c4a72b3edf088cac9490b0cad638aa30d4419fcccbe0080157d22bd09a064736f6c63430008140033","opcodes":"PUSH1 0x80 CALLVALUE PUSH3 0xF0 JUMPI PUSH1 0x1F PUSH3 0x2436 CODESIZE DUP2 SWAP1 SUB SWAP2 DUP3 ADD PUSH1 0x1F NOT AND DUP4 ADD SWAP2 PUSH1 0x1 PUSH1 0x1 PUSH1 0x40 SHL SUB DUP4 GT DUP5 DUP5 LT OR PUSH3 0xF5 JUMPI DUP1 DUP5 SWAP3 PUSH1 0x40 SWAP5 DUP6 MSTORE DUP4 CODECOPY DUP2 ADD SUB SLT PUSH3 0xF0 JUMPI PUSH3 0x5A PUSH1 0x20 PUSH3 0x52 DUP4 PUSH3 0x10B JUMP JUMPDEST SWAP3 ADD PUSH3 0x10B JUMP JUMPDEST CALLER ISZERO PUSH3 0xD7 JUMPI PUSH1 0x0 DUP1 SLOAD CALLER PUSH1 0x1 PUSH1 0x1 PUSH1 0xA0 SHL SUB NOT DUP1 DUP4 AND DUP3 OR DUP5 SSTORE PUSH1 0x40 MLOAD SWAP6 SWAP1 SWAP5 PUSH1 0x1 PUSH1 0x1 PUSH1 0xA0 SHL SUB SWAP5 SWAP1 SWAP4 DUP6 SWAP4 SWAP2 SWAP1 DUP5 AND SWAP1 PUSH32 0x8BE0079C531659141344CD1FD0A4F28419497F9722A3DAAFE3B4186F6B6457E0 SWAP1 DUP1 LOG3 PUSH1 0x1 DUP1 SSTORE AND DUP4 PUSH1 0x2 SLOAD AND OR PUSH1 0x2 SSTORE AND SWAP1 PUSH1 0x3 SLOAD AND OR PUSH1 0x3 SSTORE PUSH2 0x2315 SWAP1 DUP2 PUSH3 0x121 DUP3 CODECOPY RETURN JUMPDEST PUSH1 0x40 MLOAD PUSH4 0x1E4FBDF7 PUSH1 0xE0 SHL DUP2 MSTORE PUSH1 0x0 PUSH1 0x4 DUP3 ADD MSTORE PUSH1 0x24 SWAP1 REVERT JUMPDEST PUSH1 0x0 DUP1 REVERT JUMPDEST PUSH4 0x4E487B71 PUSH1 0xE0 SHL PUSH1 0x0 MSTORE PUSH1 0x41 PUSH1 0x4 MSTORE PUSH1 0x24 PUSH1 0x0 REVERT JUMPDEST MLOAD SWAP1 PUSH1 0x1 PUSH1 0x1 PUSH1 0xA0 SHL SUB DUP3 AND DUP3 SUB PUSH3 0xF0 JUMPI JUMP INVALID PUSH1 0x80 DUP1 PUSH1 0x40 MSTORE PUSH1 0x4 CALLDATASIZE LT ISZERO PUSH2 0x13 JUMPI PUSH1 0x0 DUP1 REVERT JUMPDEST PUSH1 0x0 SWAP1 DUP2 CALLDATALOAD PUSH1 0xE0 SHR SWAP1 DUP2 PUSH4 0x15E54A32 EQ PUSH2 0x1E98 JUMPI POP DUP1 PUSH4 0x2279A970 EQ PUSH2 0x1B65 JUMPI DUP1 PUSH4 0x30DC389C EQ PUSH2 0x1B47 JUMPI DUP1 PUSH4 0x406EF2EF EQ PUSH2 0x1B29 JUMPI DUP1 PUSH4 0x55097BF1 EQ PUSH2 0x1B0B JUMPI DUP1 PUSH4 0x60557333 EQ PUSH2 0x1A23 JUMPI DUP1 PUSH4 0x6C9FA59E EQ PUSH2 0x19FA JUMPI DUP1 PUSH4 0x715018A6 EQ PUSH2 0x19A0 JUMPI DUP1 PUSH4 0x71A2FBFA EQ PUSH2 0x1982 JUMPI DUP1 PUSH4 0x74CBC988 EQ PUSH2 0x1902 JUMPI DUP1 PUSH4 0x7CBC2373 EQ PUSH2 0x12E8 JUMPI DUP1 PUSH4 0x8DA5CB5B EQ PUSH2 0x12C1 JUMPI DUP1 PUSH4 0xA1CE5F94 EQ PUSH2 0x1297 JUMPI DUP1 PUSH4 0xB1283E77 EQ PUSH2 0x1170 JUMPI DUP1 PUSH4 0xB2016BD4 EQ PUSH2 0x1147 JUMPI DUP1 PUSH4 0xBEEBC5DA EQ PUSH2 0xE93 JUMPI DUP1 PUSH4 0xC0FFA4A6 EQ PUSH2 0xE11 JUMPI DUP1 PUSH4 0xC3BA3257 EQ PUSH2 0x479 JUMPI DUP1 PUSH4 0xD8D03989 EQ PUSH2 0x44A JUMPI DUP1 PUSH4 0xDD899E2C EQ PUSH2 0x42D JUMPI DUP1 PUSH4 0xEB44FDD3 EQ PUSH2 0x1D4 JUMPI DUP1 PUSH4 0xF2FDE38B EQ PUSH2 0x13E JUMPI PUSH4 0xFD69F3C2 EQ PUSH2 0x11E JUMPI PUSH1 0x0 DUP1 REVERT JUMPDEST CALLVALUE PUSH2 0x13B JUMPI DUP1 PUSH1 0x3 NOT CALLDATASIZE ADD SLT PUSH2 0x13B JUMPI PUSH1 0x20 PUSH1 0x4 SLOAD PUSH1 0x40 MLOAD SWAP1 DUP2 MSTORE RETURN JUMPDEST DUP1 REVERT JUMPDEST POP CALLVALUE PUSH2 0x13B JUMPI PUSH1 0x20 CALLDATASIZE PUSH1 0x3 NOT ADD SLT PUSH2 0x13B JUMPI PUSH1 0x4 CALLDATALOAD PUSH1 0x1 PUSH1 0x1 PUSH1 0xA0 SHL SUB DUP2 DUP2 AND SWAP2 DUP3 SWAP1 SUB PUSH2 0x1D0 JUMPI PUSH2 0x16E PUSH2 0x20D0 JUMP JUMPDEST DUP2 ISZERO PUSH2 0x1B7 JUMPI PUSH1 0x0 SLOAD DUP3 PUSH12 0xFFFFFFFFFFFFFFFFFFFFFFFF PUSH1 0xA0 SHL DUP3 AND OR PUSH1 0x0 SSTORE AND PUSH32 0x8BE0079C531659141344CD1FD0A4F28419497F9722A3DAAFE3B4186F6B6457E0 PUSH1 0x0 DUP1 LOG3 DUP1 RETURN JUMPDEST PUSH1 0x40 MLOAD PUSH4 0x1E4FBDF7 PUSH1 0xE0 SHL DUP2 MSTORE PUSH1 0x4 DUP2 ADD DUP5 SWAP1 MSTORE PUSH1 0x24 SWAP1 REVERT JUMPDEST DUP3 DUP1 REVERT JUMPDEST POP CALLVALUE PUSH2 0x13B JUMPI PUSH1 0x20 CALLDATASIZE PUSH1 0x3 NOT ADD SLT PUSH2 0x13B JUMPI DUP1 PUSH1 0x40 SWAP2 PUSH2 0x1C0 DUP4 MLOAD PUSH2 0x1F8 DUP2 PUSH2 0x1F34 JUMP JUMPDEST DUP3 DUP2 MSTORE PUSH1 0x60 PUSH1 0x20 DUP3 ADD MSTORE PUSH1 0x60 DUP6 DUP3 ADD MSTORE PUSH1 0x60 DUP1 DUP3 ADD MSTORE DUP3 PUSH1 0x80 DUP3 ADD MSTORE DUP3 PUSH1 0xA0 DUP3 ADD MSTORE DUP3 PUSH1 0xC0 DUP3 ADD MSTORE DUP3 PUSH1 0xE0 DUP3 ADD MSTORE DUP3 PUSH2 0x100 DUP3 ADD MSTORE DUP3 PUSH2 0x120 DUP3 ADD MSTORE DUP3 PUSH2 0x140 DUP3 ADD MSTORE DUP3 PUSH2 0x160 DUP3 ADD MSTORE DUP3 PUSH2 0x180 DUP3 ADD MSTORE DUP3 PUSH2 0x1A0 DUP3 ADD MSTORE ADD MSTORE PUSH1 0x4 CALLDATALOAD DUP2 MSTORE PUSH1 0x5 PUSH1 0x20 MSTORE KECCAK256 PUSH1 0xD PUSH1 0x40 MLOAD SWAP2 PUSH2 0x26C DUP4 PUSH2 0x1F34 JUMP JUMPDEST DUP1 SLOAD DUP4 MSTORE PUSH2 0x27C PUSH1 0x1 DUP3 ADD PUSH2 0x1F73 JUMP JUMPDEST PUSH1 0x20 DUP5 ADD MSTORE PUSH2 0x28D PUSH1 0x2 DUP3 ADD PUSH2 0x1F73 JUMP JUMPDEST PUSH1 0x40 DUP5 ADD MSTORE PUSH2 0x29E PUSH1 0x3 DUP3 ADD PUSH2 0x1F73 JUMP JUMPDEST PUSH1 0x60 DUP5 ADD MSTORE PUSH1 0x4 DUP2 ADD SLOAD PUSH1 0x1 PUSH1 0x1 PUSH1 0xA0 SHL SUB DUP2 AND PUSH1 0x80 DUP6 ADD MSTORE PUSH1 0xA0 SHR PUSH1 0xFF AND PUSH2 0x2C6 DUP2 PUSH2 0x2059 JUMP JUMPDEST PUSH1 0xA0 DUP5 ADD MSTORE PUSH1 0x5 DUP2 ADD SLOAD PUSH1 0xC0 DUP5 ADD MSTORE PUSH1 0x6 DUP2 ADD SLOAD PUSH1 0xE0 DUP5 ADD MSTORE PUSH1 0x7 DUP2 ADD SLOAD PUSH2 0x100 DUP5 ADD MSTORE PUSH1 0x8 DUP2 ADD SLOAD PUSH2 0x120 DUP5 ADD MSTORE PUSH1 0xFF PUSH1 0x9 DUP3 ADD SLOAD AND PUSH2 0x306 DUP2 PUSH2 0x2059 JUMP JUMPDEST PUSH2 0x140 DUP5 ADD MSTORE PUSH1 0xA DUP2 ADD SLOAD PUSH2 0x160 DUP5 ADD MSTORE PUSH1 0xB DUP2 ADD SLOAD PUSH2 0x180 DUP5 ADD MSTORE PUSH1 0xC DUP2 ADD SLOAD PUSH2 0x1A0 DUP5 ADD MSTORE ADD SLOAD PUSH2 0x1C0 DUP3 ADD MSTORE PUSH1 0x40 MLOAD DUP1 SWAP2 PUSH1 0x20 DUP3 MSTORE DUP1 MLOAD PUSH1 0x20 DUP4 ADD MSTORE PUSH2 0x1C0 PUSH2 0x397 PUSH2 0x366 PUSH1 0x20 DUP5 ADD MLOAD PUSH2 0x1E0 PUSH1 0x40 DUP8 ADD MSTORE PUSH2 0x200 DUP7 ADD SWAP1 PUSH2 0x2019 JUMP JUMPDEST PUSH2 0x382 PUSH1 0x40 DUP6 ADD MLOAD SWAP2 PUSH1 0x1F NOT SWAP3 DUP4 DUP9 DUP4 SUB ADD PUSH1 0x60 DUP10 ADD MSTORE PUSH2 0x2019 JUMP JUMPDEST SWAP1 PUSH1 0x60 DUP6 ADD MLOAD SWAP1 DUP7 DUP4 SUB ADD PUSH1 0x80 DUP8 ADD MSTORE PUSH2 0x2019 JUMP JUMPDEST SWAP2 PUSH1 0x1 DUP1 PUSH1 0xA0 SHL SUB PUSH1 0x80 DUP3 ADD MLOAD AND PUSH1 0xA0 DUP6 ADD MSTORE PUSH1 0xA0 DUP2 ADD MLOAD PUSH2 0x3B8 DUP2 PUSH2 0x2059 JUMP JUMPDEST PUSH1 0xC0 DUP6 ADD MSTORE PUSH1 0xC0 DUP2 ADD MLOAD PUSH1 0xE0 DUP6 ADD MSTORE PUSH1 0xE0 DUP2 ADD MLOAD PUSH2 0x100 DUP6 ADD MSTORE PUSH2 0x100 DUP2 ADD MLOAD PUSH2 0x120 DUP6 ADD MSTORE PUSH2 0x120 DUP2 ADD MLOAD PUSH2 0x140 DUP6 ADD MSTORE PUSH2 0x140 DUP2 ADD MLOAD PUSH2 0x3F9 DUP2 PUSH2 0x2059 JUMP JUMPDEST PUSH2 0x160 DUP6 ADD MSTORE PUSH2 0x160 DUP2 ADD MLOAD PUSH2 0x180 DUP6 ADD MSTORE PUSH2 0x180 DUP2 ADD MLOAD PUSH2 0x1A0 DUP6 ADD MSTORE PUSH2 0x1A0 DUP2 ADD MLOAD DUP3 DUP6 ADD MSTORE ADD MLOAD PUSH2 0x1E0 DUP4 ADD MSTORE SUB SWAP1 RETURN JUMPDEST POP CALLVALUE PUSH2 0x13B JUMPI DUP1 PUSH1 0x3 NOT CALLDATASIZE ADD SLT PUSH2 0x13B JUMPI PUSH1 0x20 PUSH1 0x40 MLOAD PUSH2 0xE10 DUP2 MSTORE RETURN JUMPDEST POP CALLVALUE PUSH2 0x13B JUMPI PUSH1 0x20 CALLDATASIZE PUSH1 0x3 NOT ADD SLT PUSH2 0x13B JUMPI PUSH1 0xFF PUSH1 0x40 PUSH1 0x20 SWAP3 PUSH1 0x4 CALLDATALOAD DUP2 MSTORE PUSH1 0x7 DUP5 MSTORE KECCAK256 SLOAD AND PUSH1 0x40 MLOAD SWAP1 ISZERO ISZERO DUP2 MSTORE RETURN JUMPDEST POP CALLVALUE PUSH2 0x13B JUMPI PUSH1 0xC0 CALLDATASIZE PUSH1 0x3 NOT ADD SLT PUSH2 0x13B JUMPI PUSH1 0x4 CALLDATALOAD PUSH8 0xFFFFFFFFFFFFFFFF DUP2 GT PUSH2 0xA3A JUMPI PUSH2 0x4AB SWAP1 CALLDATASIZE SWAP1 PUSH1 0x4 ADD PUSH2 0x2079 JUMP JUMPDEST PUSH1 0x24 CALLDATALOAD PUSH8 0xFFFFFFFFFFFFFFFF DUP2 GT PUSH2 0x1D0 JUMPI PUSH2 0x4CB SWAP1 CALLDATASIZE SWAP1 PUSH1 0x4 ADD PUSH2 0x2079 JUMP JUMPDEST PUSH1 0x44 CALLDATALOAD PUSH8 0xFFFFFFFFFFFFFFFF DUP2 GT PUSH2 0xA2B JUMPI PUSH2 0x4EB SWAP1 CALLDATASIZE SWAP1 PUSH1 0x4 ADD PUSH2 0x2079 JUMP JUMPDEST SWAP2 PUSH1 0x4 PUSH1 0x64 CALLDATALOAD LT ISZERO PUSH2 0xA2B JUMPI PUSH2 0x4FF PUSH2 0x219F JUMP JUMPDEST PUSH1 0x84 CALLDATALOAD PUSH1 0xA4 CALLDATALOAD GT ISZERO PUSH2 0xDCC JUMPI PUSH1 0x40 MLOAD PUSH1 0x20 DUP2 ADD SWAP1 PUSH2 0x532 DUP2 PUSH2 0x524 PUSH1 0x64 CALLDATALOAD DUP8 DUP7 PUSH2 0x20FC JUMP JUMPDEST SUB PUSH1 0x1F NOT DUP2 ADD DUP4 MSTORE DUP3 PUSH2 0x1F51 JUMP JUMPDEST MLOAD SWAP1 KECCAK256 DUP1 DUP6 MSTORE PUSH1 0x7 PUSH1 0x20 MSTORE PUSH1 0xFF PUSH1 0x40 DUP7 KECCAK256 SLOAD AND PUSH2 0xD79 JUMPI PUSH1 0x3 SLOAD PUSH1 0x40 MLOAD PUSH4 0x23B872DD PUSH1 0xE0 SHL DUP2 MSTORE CALLER PUSH1 0x4 DUP3 ADD MSTORE ADDRESS PUSH1 0x24 DUP3 ADD MSTORE PUSH3 0x989680 PUSH1 0x44 DUP3 ADD MSTORE SWAP1 PUSH1 0x20 SWAP1 DUP3 SWAP1 PUSH1 0x64 SWAP1 DUP3 SWAP1 DUP11 SWAP1 PUSH1 0x1 PUSH1 0x1 PUSH1 0xA0 SHL SUB AND GAS CALL DUP1 ISZERO PUSH2 0xD6E JUMPI PUSH2 0x59D SWAP2 DUP8 SWAP2 PUSH2 0xD3F JUMPI JUMPDEST POP PUSH2 0x2139 JUMP JUMPDEST PUSH1 0x4 SLOAD SWAP4 PUSH1 0x0 NOT DUP6 EQ PUSH2 0xD2B JUMPI PUSH1 0x1 DUP6 ADD PUSH1 0x4 SSTORE PUSH3 0x15180 TIMESTAMP ADD TIMESTAMP GT PUSH2 0xD2B JUMPI PUSH1 0x2 SLOAD PUSH1 0x40 MLOAD PUSH4 0x138A645B PUSH1 0xE3 SHL DUP2 MSTORE PUSH1 0x4 DUP2 ADD DUP8 SWAP1 MSTORE PUSH1 0x1 PUSH1 0x1 PUSH1 0xA0 SHL SUB SWAP1 SWAP2 AND SWAP2 PUSH1 0x20 DUP3 PUSH1 0x24 DUP2 DUP7 GAS STATICCALL SWAP2 DUP3 ISZERO PUSH2 0xCE9 JUMPI DUP9 SWAP3 PUSH2 0xCF4 JUMPI JUMPDEST POP PUSH1 0x20 PUSH1 0x24 SWAP4 PUSH1 0x40 MLOAD SWAP5 DUP6 DUP1 SWAP3 PUSH4 0xA45569C5 PUSH1 0xE0 SHL DUP3 MSTORE DUP12 PUSH1 0x4 DUP4 ADD MSTORE GAS STATICCALL SWAP3 DUP4 ISZERO PUSH2 0xCE9 JUMPI DUP9 SWAP4 PUSH2 0xCB0 JUMPI JUMPDEST POP PUSH1 0x40 MLOAD SWAP5 PUSH2 0x632 DUP7 PUSH2 0x1F34 JUMP JUMPDEST DUP8 DUP7 MSTORE PUSH1 0x20 DUP7 ADD MSTORE DUP6 PUSH1 0x40 DUP7 ADD MSTORE PUSH1 0x60 DUP6 ADD MSTORE CALLER PUSH1 0x80 DUP6 ADD MSTORE PUSH2 0x656 PUSH1 0x64 CALLDATALOAD PUSH2 0x2059 JUMP JUMPDEST PUSH1 0x64 CALLDATALOAD PUSH1 0xA0 DUP6 ADD MSTORE PUSH1 0x84 CALLDATALOAD PUSH1 0xC0 DUP6 ADD MSTORE PUSH1 0xA4 CALLDATALOAD PUSH1 0xE0 DUP6 ADD MSTORE TIMESTAMP PUSH2 0x100 DUP6 ADD MSTORE PUSH3 0x15180 TIMESTAMP ADD PUSH2 0x120 DUP6 ADD MSTORE DUP7 PUSH2 0x140 DUP6 ADD MSTORE PUSH2 0x160 DUP5 ADD MSTORE PUSH2 0x180 DUP4 ADD MSTORE PUSH8 0x8AC7230489E80000 PUSH2 0x1A0 DUP4 ADD MSTORE PUSH8 0x8AC7230489E80000 PUSH2 0x1C0 DUP4 ADD MSTORE DUP4 DUP6 MSTORE PUSH1 0x5 PUSH1 0x20 MSTORE PUSH1 0x40 DUP6 KECCAK256 DUP3 MLOAD DUP2 SSTORE PUSH1 0x20 DUP4 ADD MLOAD DUP1 MLOAD SWAP1 PUSH8 0xFFFFFFFFFFFFFFFF DUP3 GT PUSH2 0xB08 JUMPI DUP2 SWAP1 PUSH2 0x6E8 PUSH1 0x1 DUP6 ADD SLOAD PUSH2 0x1ED0 JUMP JUMPDEST PUSH1 0x1F DUP2 GT PUSH2 0xC60 JUMPI JUMPDEST POP PUSH1 0x20 SWAP1 PUSH1 0x1F DUP4 GT PUSH1 0x1 EQ PUSH2 0xBF1 JUMPI DUP10 SWAP3 PUSH2 0xBE6 JUMPI JUMPDEST POP POP DUP2 PUSH1 0x1 SHL SWAP2 PUSH1 0x0 NOT SWAP1 PUSH1 0x3 SHL SHR NOT AND OR PUSH1 0x1 DUP3 ADD SSTORE JUMPDEST PUSH1 0x40 DUP4 ADD MLOAD DUP1 MLOAD SWAP1 PUSH8 0xFFFFFFFFFFFFFFFF DUP3 GT PUSH2 0xB08 JUMPI DUP2 SWAP1 PUSH2 0x745 PUSH1 0x2 DUP6 ADD SLOAD PUSH2 0x1ED0 JUMP JUMPDEST PUSH1 0x1F DUP2 GT PUSH2 0xB96 JUMPI JUMPDEST POP PUSH1 0x20 SWAP1 PUSH1 0x1F DUP4 GT PUSH1 0x1 EQ PUSH2 0xB27 JUMPI DUP10 SWAP3 PUSH2 0xB1C JUMPI JUMPDEST POP POP DUP2 PUSH1 0x1 SHL SWAP2 PUSH1 0x0 NOT SWAP1 PUSH1 0x3 SHL SHR NOT AND OR PUSH1 0x2 DUP3 ADD SSTORE JUMPDEST PUSH1 0x60 DUP4 ADD MLOAD DUP1 MLOAD SWAP1 PUSH8 0xFFFFFFFFFFFFFFFF DUP3 GT PUSH2 0xB08 JUMPI DUP2 SWAP1 PUSH2 0x7A2 PUSH1 0x3 DUP6 ADD SLOAD PUSH2 0x1ED0 JUMP JUMPDEST PUSH1 0x1F DUP2 GT PUSH2 0xAB8 JUMPI JUMPDEST POP PUSH1 0x20 SWAP1 PUSH1 0x1F DUP4 GT PUSH1 0x1 EQ PUSH2 0xA49 JUMPI DUP10 SWAP3 PUSH2 0xA3E JUMPI JUMPDEST POP POP DUP2 PUSH1 0x1 SHL SWAP2 PUSH1 0x0 NOT SWAP1 PUSH1 0x3 SHL SHR NOT AND OR PUSH1 0x3 DUP3 ADD SSTORE JUMPDEST PUSH1 0x4 DUP2 ADD PUSH1 0x1 DUP1 PUSH1 0xA0 SHL SUB PUSH1 0x80 DUP6 ADD MLOAD AND DUP2 SLOAD SWAP1 PUSH1 0xA0 DUP7 ADD MLOAD PUSH2 0x7FB DUP2 PUSH2 0x2059 JUMP JUMPDEST PUSH2 0x804 DUP2 PUSH2 0x2059 JUMP JUMPDEST PUSH1 0xFF PUSH1 0xA0 SHL SWAP1 PUSH1 0xA0 SHL AND SWAP2 PUSH11 0xFFFFFFFFFFFFFFFFFFFFFF PUSH1 0xA8 SHL AND OR OR SWAP1 SSTORE PUSH1 0xC0 DUP4 ADD MLOAD PUSH1 0x5 DUP3 ADD SSTORE PUSH1 0xE0 DUP4 ADD MLOAD PUSH1 0x6 DUP3 ADD SSTORE PUSH2 0x100 DUP4 ADD MLOAD PUSH1 0x7 DUP3 ADD SSTORE PUSH2 0x120 DUP4 ADD MLOAD PUSH1 0x8 DUP3 ADD SSTORE PUSH1 0xD PUSH2 0x1C0 PUSH1 0x9 DUP4 ADD SWAP5 PUSH2 0x140 DUP2 ADD MLOAD SWAP6 PUSH2 0x867 DUP8 PUSH2 0x2059 JUMP JUMPDEST PUSH2 0x870 DUP8 PUSH2 0x2059 JUMP JUMPDEST PUSH1 0xFF NOT SWAP7 PUSH1 0xFF DUP9 DUP4 SLOAD AND SWAP2 AND OR SWAP1 SSTORE PUSH2 0x160 DUP2 ADD MLOAD PUSH1 0xA DUP6 ADD SSTORE PUSH2 0x180 DUP2 ADD MLOAD PUSH1 0xB DUP6 ADD SSTORE PUSH2 0x1A0 DUP2 ADD MLOAD PUSH1 0xC DUP6 ADD SSTORE ADD MLOAD SWAP2 ADD SSTORE DUP5 MSTORE PUSH1 0x7 PUSH1 0x20 MSTORE PUSH1 0x1 PUSH1 0x40 DUP6 KECCAK256 SWAP2 DUP3 SLOAD AND OR SWAP1 SSTORE PUSH1 0x6 PUSH1 0x20 MSTORE DUP2 PUSH1 0x40 DUP5 KECCAK256 SSTORE PUSH1 0x1 DUP1 PUSH1 0xA0 SHL SUB PUSH1 0x2 SLOAD AND DUP3 DUP5 MSTORE PUSH1 0x5 PUSH1 0x20 MSTORE DUP4 PUSH1 0xA PUSH1 0x40 DUP3 KECCAK256 ADD SLOAD SWAP2 DUP1 EXTCODESIZE ISZERO PUSH2 0xA3A JUMPI PUSH1 0x40 MLOAD PUSH4 0xAB714FB PUSH1 0xE1 SHL DUP1 DUP3 MSTORE CALLER PUSH1 0x4 DUP4 ADD MSTORE PUSH1 0x24 DUP3 ADD SWAP5 SWAP1 SWAP5 MSTORE PUSH8 0x8AC7230489E80000 PUSH1 0x44 DUP3 ADD MSTORE SWAP1 DUP3 SWAP1 DUP3 SWAP1 PUSH1 0x64 SWAP1 DUP3 SWAP1 DUP5 SWAP1 GAS CALL DUP1 ISZERO PUSH2 0xA2F JUMPI PUSH2 0xA17 JUMPI JUMPDEST POP PUSH1 0x2 SLOAD DUP5 DUP3 MSTORE PUSH1 0x5 PUSH1 0x20 MSTORE PUSH1 0x40 DUP3 KECCAK256 PUSH1 0xB ADD SLOAD SWAP1 PUSH1 0x1 PUSH1 0x1 PUSH1 0xA0 SHL SUB AND DUP1 EXTCODESIZE ISZERO PUSH2 0x1D0 JUMPI PUSH1 0x40 MLOAD SWAP4 DUP5 MSTORE CALLER PUSH1 0x4 DUP6 ADD MSTORE PUSH1 0x24 DUP5 ADD SWAP2 SWAP1 SWAP2 MSTORE PUSH8 0x8AC7230489E80000 PUSH1 0x44 DUP5 ADD MSTORE DUP3 SWAP1 PUSH1 0x64 SWAP1 DUP3 SWAP1 DUP5 SWAP1 GAS CALL DUP1 ISZERO PUSH2 0xA0C JUMPI PUSH2 0x9F8 JUMPI JUMPDEST PUSH1 0x20 DUP4 DUP4 DUP2 PUSH32 0xD6C1663437064CEF92F6AA4B8125518354AF71EDEFA213C58D3D965708E6E496 PUSH2 0x9C3 PUSH1 0x40 MLOAD SWAP4 PUSH1 0x80 DUP6 MSTORE PUSH1 0x80 DUP6 ADD SWAP1 PUSH2 0x2019 JUMP JUMPDEST SWAP3 PUSH2 0x9CF PUSH1 0x64 CALLDATALOAD PUSH2 0x2059 JUMP JUMPDEST PUSH1 0x64 CALLDATALOAD DUP7 DUP3 ADD MSTORE PUSH1 0x84 CALLDATALOAD PUSH1 0x40 DUP3 ADD MSTORE PUSH1 0xA4 CALLDATALOAD PUSH1 0x60 DUP3 ADD MSTORE DUP1 CALLER SWAP5 SUB SWAP1 LOG3 PUSH1 0x1 DUP1 SSTORE PUSH1 0x40 MLOAD SWAP1 DUP2 MSTORE RETURN JUMPDEST PUSH2 0xA02 DUP5 SWAP2 PUSH2 0x1F0A JUMP JUMPDEST PUSH2 0x1D0 JUMPI DUP3 PUSH2 0x988 JUMP JUMPDEST PUSH1 0x40 MLOAD RETURNDATASIZE DUP7 DUP3 RETURNDATACOPY RETURNDATASIZE SWAP1 REVERT JUMPDEST PUSH2 0xA20 SWAP1 PUSH2 0x1F0A JUMP JUMPDEST PUSH2 0xA2B JUMPI DUP4 CODESIZE PUSH2 0x92B JUMP JUMPDEST DUP4 DUP1 REVERT JUMPDEST PUSH1 0x40 MLOAD RETURNDATASIZE DUP5 DUP3 RETURNDATACOPY RETURNDATASIZE SWAP1 REVERT JUMPDEST POP DUP1 REVERT JUMPDEST ADD MLOAD SWAP1 POP CODESIZE DUP1 PUSH2 0x7C1 JUMP JUMPDEST SWAP3 POP PUSH1 0x3 DUP5 ADD DUP10 MSTORE PUSH1 0x20 DUP10 KECCAK256 SWAP1 DUP10 SWAP4 JUMPDEST PUSH1 0x1F NOT DUP5 AND DUP6 LT PUSH2 0xA9D JUMPI PUSH1 0x1 SWAP5 POP DUP4 PUSH1 0x1F NOT DUP2 AND LT PUSH2 0xA84 JUMPI JUMPDEST POP POP POP DUP2 SHL ADD PUSH1 0x3 DUP3 ADD SSTORE PUSH2 0x7D9 JUMP JUMPDEST ADD MLOAD PUSH1 0x0 NOT PUSH1 0xF8 DUP5 PUSH1 0x3 SHL AND SHR NOT AND SWAP1 SSTORE CODESIZE DUP1 DUP1 PUSH2 0xA74 JUMP JUMPDEST DUP2 DUP2 ADD MLOAD DUP4 SSTORE PUSH1 0x20 SWAP5 DUP6 ADD SWAP5 PUSH1 0x1 SWAP1 SWAP4 ADD SWAP3 SWAP1 SWAP2 ADD SWAP1 PUSH2 0xA59 JUMP JUMPDEST SWAP1 SWAP2 POP PUSH1 0x3 DUP5 ADD DUP10 MSTORE PUSH1 0x20 DUP10 KECCAK256 PUSH1 0x1F DUP5 ADD PUSH1 0x5 SHR DUP2 ADD PUSH1 0x20 DUP6 LT PUSH2 0xB01 JUMPI JUMPDEST SWAP1 DUP5 SWAP4 SWAP3 SWAP2 JUMPDEST PUSH1 0x1F DUP4 ADD PUSH1 0x5 SHR DUP3 ADD DUP2 LT PUSH2 0xAF3 JUMPI POP POP PUSH2 0x7AB JUMP JUMPDEST DUP12 DUP2 SSTORE DUP6 SWAP5 POP PUSH1 0x1 ADD PUSH2 0xADD JUMP JUMPDEST POP DUP1 PUSH2 0xAD7 JUMP JUMPDEST PUSH4 0x4E487B71 PUSH1 0xE0 SHL DUP9 MSTORE PUSH1 0x41 PUSH1 0x4 MSTORE PUSH1 0x24 DUP9 REVERT JUMPDEST ADD MLOAD SWAP1 POP CODESIZE DUP1 PUSH2 0x764 JUMP JUMPDEST SWAP3 POP PUSH1 0x2 DUP5 ADD DUP10 MSTORE PUSH1 0x20 DUP10 KECCAK256 SWAP1 DUP10 SWAP4 JUMPDEST PUSH1 0x1F NOT DUP5 AND DUP6 LT PUSH2 0xB7B JUMPI PUSH1 0x1 SWAP5 POP DUP4 PUSH1 0x1F NOT DUP2 AND LT PUSH2 0xB62 JUMPI JUMPDEST POP POP POP DUP2 SHL ADD PUSH1 0x2 DUP3 ADD SSTORE PUSH2 0x77C JUMP JUMPDEST ADD MLOAD PUSH1 0x0 NOT PUSH1 0xF8 DUP5 PUSH1 0x3 SHL AND SHR NOT AND SWAP1 SSTORE CODESIZE DUP1 DUP1 PUSH2 0xB52 JUMP JUMPDEST DUP2 DUP2 ADD MLOAD DUP4 SSTORE PUSH1 0x20 SWAP5 DUP6 ADD SWAP5 PUSH1 0x1 SWAP1 SWAP4 ADD SWAP3 SWAP1 SWAP2 ADD SWAP1 PUSH2 0xB37 JUMP JUMPDEST SWAP1 SWAP2 POP PUSH1 0x2 DUP5 ADD DUP10 MSTORE PUSH1 0x20 DUP10 KECCAK256 PUSH1 0x1F DUP5 ADD PUSH1 0x5 SHR DUP2 ADD PUSH1 0x20 DUP6 LT PUSH2 0xBDF JUMPI JUMPDEST SWAP1 DUP5 SWAP4 SWAP3 SWAP2 JUMPDEST PUSH1 0x1F DUP4 ADD PUSH1 0x5 SHR DUP3 ADD DUP2 LT PUSH2 0xBD1 JUMPI POP POP PUSH2 0x74E JUMP JUMPDEST DUP12 DUP2 SSTORE DUP6 SWAP5 POP PUSH1 0x1 ADD PUSH2 0xBBB JUMP JUMPDEST POP DUP1 PUSH2 0xBB5 JUMP JUMPDEST ADD MLOAD SWAP1 POP CODESIZE DUP1 PUSH2 0x707 JUMP JUMPDEST SWAP3 POP PUSH1 0x1 DUP5 ADD DUP10 MSTORE PUSH1 0x20 DUP10 KECCAK256 SWAP1 DUP10 SWAP4 JUMPDEST PUSH1 0x1F NOT DUP5 AND DUP6 LT PUSH2 0xC45 JUMPI PUSH1 0x1 SWAP5 POP DUP4 PUSH1 0x1F NOT DUP2 AND LT PUSH2 0xC2C JUMPI JUMPDEST POP POP POP DUP2 SHL ADD PUSH1 0x1 DUP3 ADD SSTORE PUSH2 0x71F JUMP JUMPDEST ADD MLOAD PUSH1 0x0 NOT PUSH1 0xF8 DUP5 PUSH1 0x3 SHL AND SHR NOT AND SWAP1 SSTORE CODESIZE DUP1 DUP1 PUSH2 0xC1C JUMP JUMPDEST DUP2 DUP2 ADD MLOAD DUP4 SSTORE PUSH1 0x20 SWAP5 DUP6 ADD SWAP5 PUSH1 0x1 SWAP1 SWAP4 ADD SWAP3 SWAP1 SWAP2 ADD SWAP1 PUSH2 0xC01 JUMP JUMPDEST SWAP1 SWAP2 POP PUSH1 0x1 DUP5 ADD DUP10 MSTORE PUSH1 0x20 DUP10 KECCAK256 PUSH1 0x1F DUP5 ADD PUSH1 0x5 SHR DUP2 ADD PUSH1 0x20 DUP6 LT PUSH2 0xCA9 JUMPI JUMPDEST SWAP1 DUP5 SWAP4 SWAP3 SWAP2 JUMPDEST PUSH1 0x1F DUP4 ADD PUSH1 0x5 SHR DUP3 ADD DUP2 LT PUSH2 0xC9B JUMPI POP POP PUSH2 0x6F1 JUMP JUMPDEST DUP12 DUP2 SSTORE DUP6 SWAP5 POP PUSH1 0x1 ADD PUSH2 0xC85 JUMP JUMPDEST POP DUP1 PUSH2 0xC7F JUMP JUMPDEST SWAP1 SWAP3 POP PUSH1 0x20 DUP2 RETURNDATASIZE PUSH1 0x20 GT PUSH2 0xCE1 JUMPI JUMPDEST DUP2 PUSH2 0xCCC PUSH1 0x20 SWAP4 DUP4 PUSH2 0x1F51 JUMP JUMPDEST DUP2 ADD SUB SLT PUSH2 0xCDC JUMPI MLOAD SWAP2 CODESIZE PUSH2 0x624 JUMP JUMPDEST PUSH1 0x0 DUP1 REVERT JUMPDEST RETURNDATASIZE SWAP2 POP PUSH2 0xCBF JUMP JUMPDEST PUSH1 0x40 MLOAD RETURNDATASIZE DUP11 DUP3 RETURNDATACOPY RETURNDATASIZE SWAP1 REVERT JUMPDEST SWAP3 SWAP2 POP PUSH1 0x20 DUP4 RETURNDATASIZE PUSH1 0x20 GT PUSH2 0xD23 JUMPI JUMPDEST DUP2 PUSH2 0xD10 PUSH1 0x20 SWAP4 DUP4 PUSH2 0x1F51 JUMP JUMPDEST DUP2 ADD SUB SLT PUSH2 0xCDC JUMPI SWAP2 MLOAD SWAP1 SWAP2 PUSH1 0x20 PUSH2 0x5F7 JUMP JUMPDEST RETURNDATASIZE SWAP2 POP PUSH2 0xD03 JUMP JUMPDEST PUSH4 0x4E487B71 PUSH1 0xE0 SHL DUP7 MSTORE PUSH1 0x11 PUSH1 0x4 MSTORE PUSH1 0x24 DUP7 REVERT JUMPDEST PUSH2 0xD61 SWAP2 POP PUSH1 0x20 RETURNDATASIZE PUSH1 0x20 GT PUSH2 0xD67 JUMPI JUMPDEST PUSH2 0xD59 DUP2 DUP4 PUSH2 0x1F51 JUMP JUMPDEST DUP2 ADD SWAP1 PUSH2 0x2121 JUMP JUMPDEST CODESIZE PUSH2 0x597 JUMP JUMPDEST POP RETURNDATASIZE PUSH2 0xD4F JUMP JUMPDEST PUSH1 0x40 MLOAD RETURNDATASIZE DUP9 DUP3 RETURNDATACOPY RETURNDATASIZE SWAP1 REVERT JUMPDEST PUSH1 0x40 MLOAD PUSH3 0x461BCD PUSH1 0xE5 SHL DUP2 MSTORE PUSH1 0x20 PUSH1 0x4 DUP3 ADD MSTORE PUSH1 0x25 PUSH1 0x24 DUP3 ADD MSTORE PUSH32 0x4D61726B657420616C72656164792065786973747320666F722074686973206D PUSH1 0x44 DUP3 ADD MSTORE PUSH5 0x6574726963 PUSH1 0xD8 SHL PUSH1 0x64 DUP3 ADD MSTORE PUSH1 0x84 SWAP1 REVERT JUMPDEST PUSH1 0x40 MLOAD PUSH3 0x461BCD PUSH1 0xE5 SHL DUP2 MSTORE PUSH1 0x20 PUSH1 0x4 DUP3 ADD MSTORE PUSH1 0x18 PUSH1 0x24 DUP3 ADD MSTORE PUSH32 0x546172676574206D757374206265203E2063757272656E740000000000000000 PUSH1 0x44 DUP3 ADD MSTORE PUSH1 0x64 SWAP1 REVERT JUMPDEST POP CALLVALUE PUSH2 0x13B JUMPI PUSH1 0x40 CALLDATASIZE PUSH1 0x3 NOT ADD SLT PUSH2 0x13B JUMPI PUSH1 0x4 CALLDATALOAD PUSH8 0xFFFFFFFFFFFFFFFF DUP2 GT PUSH2 0xA3A JUMPI PUSH2 0xE43 SWAP1 CALLDATASIZE SWAP1 PUSH1 0x4 ADD PUSH2 0x2079 JUMP JUMPDEST SWAP1 PUSH1 0x24 CALLDATALOAD SWAP2 PUSH1 0x4 DUP4 LT ISZERO PUSH2 0xA3A JUMPI PUSH2 0x524 PUSH2 0xE6A PUSH1 0x40 SWAP5 DUP6 MLOAD SWAP3 DUP4 SWAP2 PUSH1 0x20 DUP4 ADD SWAP6 DUP7 PUSH2 0x20FC JUMP JUMPDEST MLOAD SWAP1 KECCAK256 DUP2 MSTORE PUSH1 0x7 PUSH1 0x20 MSTORE DUP2 PUSH1 0xFF DUP2 DUP4 KECCAK256 SLOAD AND SWAP2 PUSH1 0x6 PUSH1 0x20 MSTORE KECCAK256 SLOAD SWAP1 DUP3 MLOAD SWAP2 DUP3 MSTORE ISZERO ISZERO PUSH1 0x20 DUP3 ADD MSTORE RETURN JUMPDEST POP CALLVALUE PUSH2 0x13B JUMPI PUSH2 0xEA2 CALLDATASIZE PUSH2 0x1EBA JUMP JUMPDEST SWAP1 PUSH2 0xEAB PUSH2 0x219F JUMP JUMPDEST DUP1 DUP4 MSTORE PUSH1 0x20 SWAP2 PUSH1 0x5 DUP4 MSTORE PUSH1 0x40 DUP5 KECCAK256 PUSH2 0xED3 PUSH1 0xFF PUSH1 0x9 DUP4 ADD SLOAD AND PUSH2 0xECD DUP2 PUSH2 0x2059 JUMP JUMPDEST ISZERO PUSH2 0x21C2 JUMP JUMPDEST PUSH1 0x8 DUP2 ADD SLOAD TIMESTAMP LT ISZERO PUSH2 0x1111 JUMPI DUP2 ISZERO PUSH2 0x10CC JUMPI PUSH3 0xF4240 DUP3 MUL SWAP1 PUSH3 0xF423F NOT DUP4 DUP4 DIV ADD PUSH2 0xD2B JUMPI PUSH1 0x3 SLOAD PUSH1 0x40 MLOAD PUSH4 0x23B872DD PUSH1 0xE0 SHL DUP2 MSTORE CALLER PUSH1 0x4 DUP3 ADD MSTORE ADDRESS PUSH1 0x24 DUP3 ADD MSTORE PUSH1 0x44 DUP2 ADD DUP5 SWAP1 MSTORE PUSH1 0x1 PUSH1 0x1 PUSH1 0xA0 SHL SUB SWAP2 DUP8 SWAP1 DUP3 SWAP1 PUSH1 0x64 SWAP1 DUP3 SWAP1 DUP13 SWAP1 DUP8 AND GAS CALL DUP1 ISZERO PUSH2 0xCE9 JUMPI PUSH2 0xF4A SWAP2 DUP10 SWAP2 PUSH2 0x10B5 JUMPI POP PUSH2 0x2139 JUMP JUMPDEST PUSH8 0xDE0B6B3A7640000 DUP1 DUP6 MUL SWAP5 DUP6 DIV SUB PUSH2 0x10A1 JUMPI DUP1 DUP8 SWAP2 PUSH1 0x2 SLOAD AND SWAP1 PUSH1 0xA DUP5 ADD SLOAD SWAP2 DUP1 EXTCODESIZE ISZERO PUSH2 0xA2B JUMPI PUSH1 0x40 MLOAD PUSH4 0xAB714FB PUSH1 0xE1 SHL DUP1 DUP3 MSTORE CALLER PUSH1 0x4 DUP4 ADD MSTORE PUSH1 0x24 DUP3 ADD SWAP5 SWAP1 SWAP5 MSTORE PUSH1 0x44 DUP2 ADD DUP9 SWAP1 MSTORE SWAP1 DUP5 SWAP1 DUP3 SWAP1 PUSH1 0x64 SWAP1 DUP3 SWAP1 DUP5 SWAP1 GAS CALL SWAP1 DUP2 ISZERO PUSH2 0xA0C JUMPI DUP5 SWAP2 PUSH2 0x108D JUMPI JUMPDEST POP POP PUSH1 0x2 SLOAD AND SWAP1 PUSH1 0xB DUP5 ADD SLOAD SWAP1 DUP3 EXTCODESIZE ISZERO PUSH2 0xA2B JUMPI PUSH1 0x40 MLOAD SWAP1 DUP2 MSTORE CALLER PUSH1 0x4 DUP3 ADD MSTORE PUSH1 0x24 DUP2 ADD SWAP2 SWAP1 SWAP2 MSTORE PUSH1 0x44 DUP2 ADD DUP7 SWAP1 MSTORE SWAP1 DUP3 SWAP1 DUP3 SWAP1 PUSH1 0x64 SWAP1 DUP3 SWAP1 DUP5 SWAP1 GAS CALL DUP1 ISZERO PUSH2 0xA2F JUMPI PUSH2 0x1075 JUMPI JUMPDEST POP POP DUP1 PUSH1 0xC PUSH1 0xD SWAP3 ADD PUSH2 0x100E DUP6 DUP3 SLOAD PUSH2 0x217C JUMP JUMPDEST SWAP1 SSTORE ADD PUSH2 0x101C DUP4 DUP3 SLOAD PUSH2 0x217C JUMP JUMPDEST SWAP1 SSTORE PUSH1 0x40 MLOAD SWAP2 PUSH1 0x1 DUP4 MSTORE DUP1 DUP6 DUP5 ADD MSTORE DUP2 PUSH1 0x40 DUP5 ADD MSTORE PUSH32 0x7CDA082FCBA0BD59667D9826EAC7270E04CA66BFCD492BE9AF7ED132936B2ED4 SWAP3 DUP5 DUP5 PUSH1 0x60 CALLER SWAP4 LOG3 PUSH1 0x40 MLOAD SWAP5 DUP7 DUP7 MSTORE DUP6 ADD MSTORE PUSH1 0x40 DUP5 ADD MSTORE PUSH1 0x60 CALLER SWAP4 LOG3 PUSH1 0x1 DUP1 SSTORE DUP1 RETURN JUMPDEST PUSH2 0x107E SWAP1 PUSH2 0x1F0A JUMP JUMPDEST PUSH2 0x1089 JUMPI DUP6 CODESIZE PUSH2 0xFFA JUMP JUMPDEST DUP6 DUP1 REVERT JUMPDEST PUSH2 0x1096 SWAP1 PUSH2 0x1F0A JUMP JUMPDEST PUSH2 0x1D0 JUMPI DUP3 CODESIZE PUSH2 0xFB2 JUMP JUMPDEST PUSH4 0x4E487B71 PUSH1 0xE0 SHL DUP8 MSTORE PUSH1 0x11 PUSH1 0x4 MSTORE PUSH1 0x24 DUP8 REVERT JUMPDEST PUSH2 0xD61 SWAP2 POP DUP9 RETURNDATASIZE DUP11 GT PUSH2 0xD67 JUMPI PUSH2 0xD59 DUP2 DUP4 PUSH2 0x1F51 JUMP JUMPDEST PUSH1 0x40 MLOAD PUSH3 0x461BCD PUSH1 0xE5 SHL DUP2 MSTORE PUSH1 0x4 DUP2 ADD DUP6 SWAP1 MSTORE PUSH1 0x17 PUSH1 0x24 DUP3 ADD MSTORE PUSH32 0x4D75737420627579206174206C65617374203120736574000000000000000000 PUSH1 0x44 DUP3 ADD MSTORE PUSH1 0x64 SWAP1 REVERT JUMPDEST PUSH1 0x40 MLOAD PUSH3 0x461BCD PUSH1 0xE5 SHL DUP2 MSTORE PUSH1 0x4 DUP2 ADD DUP6 SWAP1 MSTORE PUSH1 0xE PUSH1 0x24 DUP3 ADD MSTORE PUSH14 0x13585C9AD95D08195E1C1A5C9959 PUSH1 0x92 SHL PUSH1 0x44 DUP3 ADD MSTORE PUSH1 0x64 SWAP1 REVERT JUMPDEST POP CALLVALUE PUSH2 0x13B JUMPI DUP1 PUSH1 0x3 NOT CALLDATASIZE ADD SLT PUSH2 0x13B JUMPI PUSH1 0x3 SLOAD PUSH1 0x40 MLOAD PUSH1 0x1 PUSH1 0x1 PUSH1 0xA0 SHL SUB SWAP1 SWAP2 AND DUP2 MSTORE PUSH1 0x20 SWAP1 RETURN JUMPDEST POP CALLVALUE PUSH2 0x13B JUMPI PUSH1 0x20 CALLDATASIZE PUSH1 0x3 NOT ADD SLT PUSH2 0x13B JUMPI PUSH1 0x4 CALLDATALOAD DUP2 MSTORE PUSH1 0x5 PUSH1 0x20 MSTORE PUSH1 0x40 SWAP1 KECCAK256 DUP1 SLOAD PUSH2 0x119E PUSH1 0x1 DUP4 ADD PUSH2 0x1F73 JUMP JUMPDEST SWAP2 PUSH2 0x11AB PUSH1 0x2 DUP3 ADD PUSH2 0x1F73 JUMP JUMPDEST PUSH2 0x11B7 PUSH1 0x3 DUP4 ADD PUSH2 0x1F73 JUMP JUMPDEST SWAP2 PUSH1 0x4 DUP2 ADD SLOAD SWAP3 PUSH1 0x5 DUP3 ADD SLOAD PUSH1 0x6 DUP4 ADD SLOAD PUSH1 0x7 DUP5 ADD SLOAD PUSH1 0x8 DUP6 ADD SLOAD SWAP1 PUSH1 0x9 DUP7 ADD SLOAD PUSH1 0xFF AND SWAP3 PUSH1 0xA DUP8 ADD SLOAD SWAP5 PUSH1 0xB DUP9 ADD SLOAD SWAP7 PUSH1 0xC DUP10 ADD SLOAD SWAP9 PUSH1 0xD ADD SLOAD SWAP10 PUSH1 0x40 MLOAD SWAP14 DUP15 SWAP14 DUP15 MSTORE DUP14 PUSH2 0x1E0 SWAP1 DUP2 PUSH1 0x20 DUP3 ADD MSTORE ADD PUSH2 0x1210 SWAP2 PUSH2 0x2019 JUMP JUMPDEST DUP14 DUP2 SUB PUSH1 0x40 DUP16 ADD MSTORE PUSH2 0x1221 SWAP2 PUSH2 0x2019 JUMP JUMPDEST DUP13 DUP2 SUB PUSH1 0x60 DUP15 ADD MSTORE PUSH2 0x1232 SWAP2 PUSH2 0x2019 JUMP JUMPDEST PUSH1 0x1 PUSH1 0x1 PUSH1 0xA0 SHL SUB DUP12 AND PUSH1 0x80 DUP14 ADD MSTORE SWAP10 PUSH1 0xA0 SHR PUSH1 0xFF AND PUSH2 0x1251 DUP2 PUSH2 0x2059 JUMP JUMPDEST PUSH1 0xA0 DUP13 ADD MSTORE PUSH1 0xC0 DUP12 ADD MSTORE PUSH1 0xE0 DUP11 ADD MSTORE PUSH2 0x100 DUP10 ADD MSTORE PUSH2 0x120 DUP9 ADD MSTORE PUSH2 0x1275 DUP2 PUSH2 0x2059 JUMP JUMPDEST PUSH2 0x140 DUP8 ADD MSTORE PUSH2 0x160 DUP7 ADD MSTORE PUSH2 0x180 DUP6 ADD MSTORE PUSH2 0x1A0 DUP5 ADD MSTORE PUSH2 0x1C0 DUP4 ADD MSTORE SUB SWAP1 RETURN JUMPDEST POP CALLVALUE PUSH2 0x13B JUMPI PUSH1 0x20 CALLDATASIZE PUSH1 0x3 NOT ADD SLT PUSH2 0x13B JUMPI PUSH1 0x40 PUSH1 0x20 SWAP2 PUSH1 0x4 CALLDATALOAD DUP2 MSTORE PUSH1 0x6 DUP4 MSTORE KECCAK256 SLOAD PUSH1 0x40 MLOAD SWAP1 DUP2 MSTORE RETURN JUMPDEST POP CALLVALUE PUSH2 0x13B JUMPI DUP1 PUSH1 0x3 NOT CALLDATASIZE ADD SLT PUSH2 0x13B JUMPI SLOAD PUSH1 0x40 MLOAD PUSH1 0x1 PUSH1 0x1 PUSH1 0xA0 SHL SUB SWAP1 SWAP2 AND DUP2 MSTORE PUSH1 0x20 SWAP1 RETURN JUMPDEST POP CALLVALUE PUSH2 0x13B JUMPI PUSH2 0x12F7 CALLDATASIZE PUSH2 0x1EBA JUMP JUMPDEST SWAP1 PUSH2 0x1300 PUSH2 0x219F JUMP JUMPDEST DUP1 DUP4 MSTORE PUSH1 0x20 PUSH1 0x5 DUP2 MSTORE PUSH1 0x40 DUP5 KECCAK256 SWAP1 PUSH1 0xFF PUSH1 0x9 DUP4 ADD SLOAD AND SWAP2 PUSH2 0x1320 DUP4 PUSH2 0x2059 JUMP JUMPDEST DUP3 ISZERO PUSH2 0x18CE JUMPI DUP5 ISZERO PUSH2 0x1889 JUMPI DUP6 SWAP1 DUP2 SWAP4 PUSH2 0x1339 DUP2 PUSH2 0x2059 JUMP JUMPDEST PUSH1 0x1 DUP2 SUB PUSH2 0x152A JUMPI POP PUSH1 0x2 SLOAD PUSH1 0xA SWAP2 SWAP1 SWAP2 ADD SLOAD PUSH1 0x40 MLOAD PUSH3 0x7EEAC7 PUSH1 0xE1 SHL DUP2 MSTORE CALLER PUSH1 0x4 DUP3 ADD MSTORE PUSH1 0x24 DUP2 ADD DUP3 SWAP1 MSTORE SWAP4 SWAP5 POP SWAP2 SWAP3 PUSH1 0x1 PUSH1 0x1 PUSH1 0xA0 SHL SUB SWAP1 SWAP2 AND SWAP1 DUP5 DUP2 PUSH1 0x44 DUP2 DUP6 GAS STATICCALL DUP1 ISZERO PUSH2 0xA0C JUMPI DUP8 SWAP2 DUP6 SWAP2 PUSH2 0x14F4 JUMPI JUMPDEST POP SWAP1 PUSH2 0x139A SWAP2 LT ISZERO PUSH2 0x2202 JUMP JUMPDEST DUP1 EXTCODESIZE ISZERO PUSH2 0x1D0 JUMPI PUSH1 0x40 MLOAD PUSH4 0x7A94C565 PUSH1 0xE1 SHL DUP2 MSTORE CALLER PUSH1 0x4 DUP3 ADD MSTORE PUSH1 0x24 DUP2 ADD SWAP3 SWAP1 SWAP3 MSTORE PUSH1 0x44 DUP3 ADD DUP7 SWAP1 MSTORE DUP3 SWAP1 DUP3 SWAP1 PUSH1 0x64 SWAP1 DUP3 SWAP1 DUP5 SWAP1 GAS CALL DUP1 ISZERO PUSH2 0xA2F JUMPI PUSH2 0x14E0 JUMPI JUMPDEST POP POP PUSH3 0xF4240 DUP4 MUL PUSH3 0xF423F NOT DUP5 DUP3 DIV ADD PUSH2 0x14CC JUMPI PUSH8 0xDE0B6B3A7640000 SWAP1 DIV SWAP1 JUMPDEST PUSH1 0x3 SLOAD PUSH1 0x40 MLOAD PUSH4 0xA9059CBB PUSH1 0xE0 SHL DUP2 MSTORE CALLER PUSH1 0x4 DUP3 ADD MSTORE PUSH1 0x24 DUP2 ADD DUP5 SWAP1 MSTORE SWAP1 DUP3 SWAP1 DUP3 SWAP1 PUSH1 0x44 SWAP1 DUP3 SWAP1 DUP11 SWAP1 PUSH1 0x1 PUSH1 0x1 PUSH1 0xA0 SHL SUB AND GAS CALL SWAP1 DUP2 ISZERO PUSH2 0xD6E JUMPI DUP7 SWAP2 PUSH2 0x14AF JUMPI JUMPDEST POP ISZERO PUSH2 0x147B JUMPI PUSH1 0x40 MLOAD SWAP4 DUP5 MSTORE DUP4 ADD MSTORE PUSH32 0x693FAFF7F0019974C7E4470B52030262EBD85D7F2BB9373E1C9EB677F4CABC97 PUSH1 0x40 CALLER SWAP4 LOG3 PUSH1 0x1 DUP1 SSTORE DUP1 RETURN JUMPDEST PUSH1 0x64 SWAP1 PUSH1 0x40 MLOAD SWAP1 PUSH3 0x461BCD PUSH1 0xE5 SHL DUP3 MSTORE PUSH1 0x4 DUP3 ADD MSTORE PUSH1 0xD PUSH1 0x24 DUP3 ADD MSTORE PUSH13 0x14185E5BDD5D0819985A5B1959 PUSH1 0x9A SHL PUSH1 0x44 DUP3 ADD MSTORE REVERT JUMPDEST PUSH2 0x14C6 SWAP2 POP DUP3 RETURNDATASIZE DUP5 GT PUSH2 0xD67 JUMPI PUSH2 0xD59 DUP2 DUP4 PUSH2 0x1F51 JUMP JUMPDEST CODESIZE PUSH2 0x143F JUMP JUMPDEST PUSH4 0x4E487B71 PUSH1 0xE0 SHL DUP6 MSTORE PUSH1 0x11 PUSH1 0x4 MSTORE PUSH1 0x24 DUP6 REVERT JUMPDEST PUSH2 0x14E9 SWAP1 PUSH2 0x1F0A JUMP JUMPDEST PUSH2 0xA2B JUMPI DUP4 CODESIZE PUSH2 0x13DB JUMP JUMPDEST SWAP5 POP POP POP DUP4 DUP4 DUP2 RETURNDATASIZE DUP4 GT PUSH2 0x1523 JUMPI JUMPDEST PUSH2 0x150D DUP2 DUP4 PUSH2 0x1F51 JUMP JUMPDEST DUP2 ADD SUB SLT PUSH2 0xCDC JUMPI PUSH2 0x139A DUP7 DUP9 SWAP5 MLOAD SWAP1 SWAP2 PUSH2 0x138D JUMP JUMPDEST POP RETURNDATASIZE PUSH2 0x1503 JUMP JUMPDEST PUSH2 0x1533 DUP2 PUSH2 0x2059 JUMP JUMPDEST PUSH1 0x2 DUP2 SUB PUSH2 0x1645 JUMPI POP PUSH1 0x2 SLOAD PUSH1 0xB SWAP2 SWAP1 SWAP2 ADD SLOAD PUSH1 0x40 MLOAD PUSH3 0x7EEAC7 PUSH1 0xE1 SHL DUP2 MSTORE CALLER PUSH1 0x4 DUP3 ADD MSTORE PUSH1 0x24 DUP2 ADD DUP3 SWAP1 MSTORE SWAP4 SWAP5 POP SWAP2 SWAP3 PUSH1 0x1 PUSH1 0x1 PUSH1 0xA0 SHL SUB SWAP1 SWAP2 AND SWAP1 DUP5 DUP2 PUSH1 0x44 DUP2 DUP6 GAS STATICCALL DUP1 ISZERO PUSH2 0xA0C JUMPI DUP8 SWAP2 DUP6 SWAP2 PUSH2 0x160F JUMPI JUMPDEST POP SWAP1 PUSH2 0x1594 SWAP2 LT ISZERO PUSH2 0x224E JUMP JUMPDEST DUP1 EXTCODESIZE ISZERO PUSH2 0x1D0 JUMPI PUSH1 0x40 MLOAD PUSH4 0x7A94C565 PUSH1 0xE1 SHL DUP2 MSTORE CALLER PUSH1 0x4 DUP3 ADD MSTORE PUSH1 0x24 DUP2 ADD SWAP3 SWAP1 SWAP3 MSTORE PUSH1 0x44 DUP3 ADD DUP7 SWAP1 MSTORE DUP3 SWAP1 DUP3 SWAP1 PUSH1 0x64 SWAP1 DUP3 SWAP1 DUP5 SWAP1 GAS CALL DUP1 ISZERO PUSH2 0xA2F JUMPI PUSH2 0x15FB JUMPI JUMPDEST POP POP PUSH3 0xF4240 DUP4 MUL PUSH3 0xF423F NOT DUP5 DUP3 DIV ADD PUSH2 0x14CC JUMPI PUSH8 0xDE0B6B3A7640000 SWAP1 DIV SWAP1 PUSH2 0x13FD JUMP JUMPDEST PUSH2 0x1604 SWAP1 PUSH2 0x1F0A JUMP JUMPDEST PUSH2 0xA2B JUMPI DUP4 CODESIZE PUSH2 0x15D5 JUMP JUMPDEST SWAP5 POP POP POP DUP4 DUP4 DUP2 RETURNDATASIZE DUP4 GT PUSH2 0x163E JUMPI JUMPDEST PUSH2 0x1628 DUP2 DUP4 PUSH2 0x1F51 JUMP JUMPDEST DUP2 ADD SUB SLT PUSH2 0xCDC JUMPI PUSH2 0x1594 DUP7 DUP9 SWAP5 MLOAD SWAP1 SWAP2 PUSH2 0x1587 JUMP JUMPDEST POP RETURNDATASIZE PUSH2 0x161E JUMP JUMPDEST DUP1 PUSH2 0x1651 PUSH1 0x3 SWAP3 PUSH2 0x2059 JUMP JUMPDEST EQ PUSH2 0x165E JUMPI JUMPDEST POP POP PUSH2 0x13FD JUMP JUMPDEST PUSH1 0x2 SLOAD PUSH1 0xA DUP3 ADD DUP1 SLOAD PUSH1 0x40 MLOAD PUSH3 0x7EEAC7 PUSH1 0xE1 SHL DUP1 DUP3 MSTORE CALLER PUSH1 0x4 DUP4 ADD MSTORE PUSH1 0x24 DUP3 ADD SWAP3 SWAP1 SWAP3 MSTORE SWAP6 SWAP7 POP SWAP4 SWAP5 SWAP1 SWAP4 PUSH1 0x1 PUSH1 0x1 PUSH1 0xA0 SHL SUB SWAP4 SWAP2 SWAP3 DUP5 AND SWAP2 DUP8 DUP5 PUSH1 0x44 DUP2 DUP7 GAS STATICCALL SWAP4 DUP5 ISZERO PUSH2 0x184A JUMPI DUP8 SWAP5 PUSH2 0x1855 JUMPI JUMPDEST POP PUSH1 0xB ADD SLOAD PUSH1 0x40 MLOAD SWAP2 DUP3 MSTORE CALLER PUSH1 0x4 DUP4 ADD MSTORE PUSH1 0x24 DUP3 ADD DUP2 SWAP1 MSTORE SWAP3 DUP8 DUP3 PUSH1 0x44 DUP2 DUP7 GAS STATICCALL SWAP1 DUP2 ISZERO PUSH2 0x184A JUMPI DUP11 SWAP3 DUP9 SWAP3 PUSH2 0x1815 JUMPI JUMPDEST POP DUP3 GT PUSH2 0x176E JUMPI POP POP POP POP PUSH1 0x2 SLOAD AND SWAP1 SLOAD SWAP1 DUP1 EXTCODESIZE ISZERO PUSH2 0x1D0 JUMPI PUSH1 0x40 MLOAD PUSH4 0x7A94C565 PUSH1 0xE1 SHL DUP2 MSTORE CALLER PUSH1 0x4 DUP3 ADD MSTORE PUSH1 0x24 DUP2 ADD SWAP3 SWAP1 SWAP3 MSTORE PUSH1 0x44 DUP3 ADD DUP7 SWAP1 MSTORE DUP3 SWAP1 DUP3 SWAP1 PUSH1 0x64 SWAP1 DUP3 SWAP1 DUP5 SWAP1 GAS CALL DUP1 ISZERO PUSH2 0xA2F JUMPI PUSH2 0x175A JUMPI JUMPDEST POP POP JUMPDEST PUSH3 0xF4240 DUP4 MUL PUSH3 0xF423F NOT DUP5 DUP3 DIV ADD PUSH2 0x14CC JUMPI PUSH8 0x1BC16D674EC80000 SWAP1 DIV SWAP1 DUP5 CODESIZE PUSH2 0x1657 JUMP JUMPDEST PUSH2 0x1763 SWAP1 PUSH2 0x1F0A JUMP JUMPDEST PUSH2 0xA2B JUMPI DUP4 CODESIZE PUSH2 0x1731 JUMP JUMPDEST SWAP3 SWAP6 POP SWAP1 SWAP4 POP GT SWAP1 POP PUSH2 0x17DA JUMPI SWAP1 DUP2 DUP7 SWAP3 EXTCODESIZE ISZERO PUSH2 0x1D0 JUMPI PUSH1 0x40 MLOAD PUSH4 0x7A94C565 PUSH1 0xE1 SHL DUP2 MSTORE CALLER PUSH1 0x4 DUP3 ADD MSTORE PUSH1 0x24 DUP2 ADD SWAP3 SWAP1 SWAP3 MSTORE PUSH1 0x44 DUP3 ADD DUP7 SWAP1 MSTORE DUP3 SWAP1 DUP3 SWAP1 PUSH1 0x64 SWAP1 DUP3 SWAP1 DUP5 SWAP1 GAS CALL DUP1 ISZERO PUSH2 0xA2F JUMPI PUSH2 0x17C6 JUMPI JUMPDEST POP POP PUSH2 0x1734 JUMP JUMPDEST PUSH2 0x17CF SWAP1 PUSH2 0x1F0A JUMP JUMPDEST PUSH2 0xA2B JUMPI DUP4 CODESIZE PUSH2 0x17BF JUMP JUMPDEST PUSH1 0x40 MLOAD PUSH3 0x461BCD PUSH1 0xE5 SHL DUP2 MSTORE PUSH1 0x4 DUP2 ADD DUP5 SWAP1 MSTORE PUSH1 0x13 PUSH1 0x24 DUP3 ADD MSTORE PUSH19 0x496E73756666696369656E7420736861726573 PUSH1 0x68 SHL PUSH1 0x44 DUP3 ADD MSTORE PUSH1 0x64 SWAP1 REVERT JUMPDEST SWAP3 POP SWAP7 POP POP DUP7 DUP2 DUP2 RETURNDATASIZE DUP4 GT PUSH2 0x1843 JUMPI JUMPDEST PUSH2 0x182F DUP2 DUP4 PUSH2 0x1F51 JUMP JUMPDEST DUP2 ADD SUB SLT PUSH2 0xCDC JUMPI MLOAD DUP10 SWAP6 DUP10 SWAP2 SWAP1 DUP3 PUSH2 0x16DE JUMP JUMPDEST POP RETURNDATASIZE PUSH2 0x1825 JUMP JUMPDEST PUSH1 0x40 MLOAD RETURNDATASIZE DUP10 DUP3 RETURNDATACOPY RETURNDATASIZE SWAP1 REVERT JUMPDEST SWAP7 POP SWAP3 POP DUP7 DUP7 DUP2 RETURNDATASIZE DUP2 GT PUSH2 0x1882 JUMPI JUMPDEST PUSH2 0x186E DUP2 DUP4 PUSH2 0x1F51 JUMP JUMPDEST DUP2 ADD SUB SLT PUSH2 0xCDC JUMPI PUSH1 0xB DUP11 SWAP7 MLOAD SWAP4 SWAP1 PUSH2 0x16AD JUMP JUMPDEST POP RETURNDATASIZE PUSH2 0x1864 JUMP JUMPDEST PUSH1 0x40 MLOAD PUSH3 0x461BCD PUSH1 0xE5 SHL DUP2 MSTORE PUSH1 0x4 DUP2 ADD DUP4 SWAP1 MSTORE PUSH1 0x1C PUSH1 0x24 DUP3 ADD MSTORE PUSH32 0x4D7573742072656465656D206174206C65617374203120736861726500000000 PUSH1 0x44 DUP3 ADD MSTORE PUSH1 0x64 SWAP1 REVERT JUMPDEST PUSH1 0x40 MLOAD PUSH3 0x461BCD PUSH1 0xE5 SHL DUP2 MSTORE PUSH1 0x4 DUP2 ADD DUP4 SWAP1 MSTORE PUSH1 0xC PUSH1 0x24 DUP3 ADD MSTORE PUSH12 0x139BDD081C995CDBDB1D9959 PUSH1 0xA2 SHL PUSH1 0x44 DUP3 ADD MSTORE PUSH1 0x64 SWAP1 REVERT JUMPDEST POP CALLVALUE PUSH2 0x13B JUMPI PUSH1 0x20 CALLDATASIZE PUSH1 0x3 NOT ADD SLT PUSH2 0x13B JUMPI PUSH1 0x4 CALLDATALOAD PUSH2 0x191F PUSH2 0x20D0 JUMP JUMPDEST DUP1 DUP3 MSTORE PUSH1 0x5 PUSH1 0x20 MSTORE PUSH1 0x9 PUSH1 0x40 DUP4 KECCAK256 ADD PUSH1 0x3 DUP2 SLOAD PUSH2 0x1948 PUSH1 0xFF DUP3 AND PUSH2 0x1942 DUP2 PUSH2 0x2059 JUMP JUMPDEST ISZERO PUSH2 0x22A0 JUMP JUMPDEST PUSH1 0xFF NOT AND OR SWAP1 SSTORE PUSH32 0x661CE16E44A34377FC37C19874F4B1BEC6E84B072CF8D318838FE17C20C58E44 PUSH1 0x40 DUP1 MLOAD PUSH1 0x3 DUP2 MSTORE DUP5 PUSH1 0x20 DUP3 ADD MSTORE LOG2 DUP1 RETURN JUMPDEST POP CALLVALUE PUSH2 0x13B JUMPI DUP1 PUSH1 0x3 NOT CALLDATASIZE ADD SLT PUSH2 0x13B JUMPI PUSH1 0x20 PUSH1 0x40 MLOAD PUSH3 0xF4240 DUP2 MSTORE RETURN JUMPDEST POP CALLVALUE PUSH2 0x13B JUMPI DUP1 PUSH1 0x3 NOT CALLDATASIZE ADD SLT PUSH2 0x13B JUMPI PUSH2 0x19B9 PUSH2 0x20D0 JUMP JUMPDEST PUSH1 0x0 DUP1 SLOAD PUSH1 0x1 PUSH1 0x1 PUSH1 0xA0 SHL SUB NOT DUP2 AND DUP3 SSTORE PUSH1 0x1 PUSH1 0x1 PUSH1 0xA0 SHL SUB AND PUSH32 0x8BE0079C531659141344CD1FD0A4F28419497F9722A3DAAFE3B4186F6B6457E0 DUP3 DUP1 LOG3 DUP1 RETURN JUMPDEST POP CALLVALUE PUSH2 0x13B JUMPI DUP1 PUSH1 0x3 NOT CALLDATASIZE ADD SLT PUSH2 0x13B JUMPI PUSH1 0x2 SLOAD PUSH1 0x40 MLOAD PUSH1 0x1 PUSH1 0x1 PUSH1 0xA0 SHL SUB SWAP1 SWAP2 AND DUP2 MSTORE PUSH1 0x20 SWAP1 RETURN JUMPDEST POP CALLVALUE PUSH2 0x13B JUMPI PUSH2 0x1A32 CALLDATASIZE PUSH2 0x1EBA JUMP JUMPDEST PUSH2 0x1A3A PUSH2 0x20D0 JUMP JUMPDEST DUP2 DUP4 MSTORE PUSH1 0x5 PUSH1 0x20 MSTORE PUSH1 0x40 DUP4 KECCAK256 PUSH1 0x9 DUP2 ADD SWAP2 DUP3 SLOAD SWAP2 PUSH2 0x1A5E PUSH1 0xFF DUP5 AND PUSH2 0x1942 DUP2 PUSH2 0x2059 JUMP JUMPDEST PUSH1 0x8 DUP2 ADD SLOAD PUSH2 0xE10 DUP2 ADD DUP1 SWAP2 GT PUSH2 0x10A1 JUMPI TIMESTAMP LT PUSH2 0x1ADA JUMPI PUSH1 0x6 ADD SLOAD PUSH32 0x661CE16E44A34377FC37C19874F4B1BEC6E84B072CF8D318838FE17C20C58E44 SWAP4 PUSH1 0x40 SWAP4 PUSH1 0xFF SWAP3 DUP5 LT PUSH2 0x1ACD JUMPI POP PUSH1 0x1 DUP3 NOT DUP3 SLOAD AND OR DUP2 SSTORE JUMPDEST SLOAD AND SWAP1 DUP3 MLOAD SWAP2 PUSH2 0x1AC2 DUP2 PUSH2 0x2059 JUMP JUMPDEST DUP3 MSTORE PUSH1 0x20 DUP3 ADD MSTORE LOG2 DUP1 RETURN JUMPDEST DUP3 NOT AND PUSH1 0x2 OR DUP2 SSTORE PUSH2 0x1AB3 JUMP JUMPDEST PUSH1 0x40 MLOAD PUSH3 0x461BCD PUSH1 0xE5 SHL DUP2 MSTORE PUSH1 0x20 PUSH1 0x4 DUP3 ADD MSTORE PUSH1 0x9 PUSH1 0x24 DUP3 ADD MSTORE PUSH9 0x546F6F206561726C79 PUSH1 0xB8 SHL PUSH1 0x44 DUP3 ADD MSTORE PUSH1 0x64 SWAP1 REVERT JUMPDEST POP CALLVALUE PUSH2 0x13B JUMPI DUP1 PUSH1 0x3 NOT CALLDATASIZE ADD SLT PUSH2 0x13B JUMPI PUSH1 0x20 PUSH1 0x40 MLOAD PUSH3 0x989680 DUP2 MSTORE RETURN JUMPDEST POP CALLVALUE PUSH2 0x13B JUMPI DUP1 PUSH1 0x3 NOT CALLDATASIZE ADD SLT PUSH2 0x13B JUMPI PUSH1 0x20 PUSH1 0x4 SLOAD PUSH1 0x40 MLOAD SWAP1 DUP2 MSTORE RETURN JUMPDEST POP CALLVALUE PUSH2 0x13B JUMPI DUP1 PUSH1 0x3 NOT CALLDATASIZE ADD SLT PUSH2 0x13B JUMPI PUSH1 0x20 PUSH1 0x40 MLOAD PUSH3 0x15180 DUP2 MSTORE RETURN JUMPDEST POP CALLVALUE PUSH2 0x13B JUMPI PUSH2 0x1B74 CALLDATASIZE PUSH2 0x1EBA JUMP JUMPDEST SWAP1 PUSH2 0x1B7D PUSH2 0x219F JUMP JUMPDEST DUP1 DUP4 MSTORE PUSH1 0x20 SWAP2 PUSH1 0x5 DUP4 MSTORE PUSH1 0x40 DUP5 KECCAK256 PUSH2 0x1B9F PUSH1 0xFF PUSH1 0x9 DUP4 ADD SLOAD AND PUSH2 0xECD DUP2 PUSH2 0x2059 JUMP JUMPDEST DUP2 ISZERO PUSH2 0x1E53 JUMPI PUSH8 0xDE0B6B3A7640000 DUP3 MUL SWAP1 PUSH8 0xDE0B6B3A763FFFF NOT DUP4 DUP4 DIV ADD PUSH2 0xD2B JUMPI PUSH1 0x2 SLOAD PUSH1 0xA DUP3 ADD SLOAD PUSH1 0x40 MLOAD PUSH3 0x7EEAC7 PUSH1 0xE1 SHL DUP1 DUP3 MSTORE CALLER PUSH1 0x4 DUP4 ADD MSTORE PUSH1 0x24 DUP3 ADD DUP4 SWAP1 MSTORE PUSH1 0x1 PUSH1 0x1 PUSH1 0xA0 SHL SUB SWAP5 SWAP4 SWAP1 SWAP3 SWAP2 SWAP1 DUP6 AND SWAP1 DUP10 DUP2 PUSH1 0x44 DUP2 DUP6 GAS STATICCALL DUP1 ISZERO PUSH2 0x1E17 JUMPI DUP8 SWAP1 DUP13 SWAP1 PUSH2 0x1E22 JUMPI JUMPDEST PUSH2 0x1C19 SWAP3 POP LT ISZERO PUSH2 0x2202 JUMP JUMPDEST PUSH1 0xB DUP5 ADD DUP1 SLOAD PUSH1 0x40 MLOAD SWAP5 DUP6 MSTORE CALLER PUSH1 0x4 DUP7 ADD MSTORE PUSH1 0x24 DUP6 ADD MSTORE SWAP3 DUP10 DUP2 PUSH1 0x44 DUP2 DUP6 GAS STATICCALL DUP1 ISZERO PUSH2 0x1E17 JUMPI DUP8 SWAP1 DUP13 SWAP1 PUSH2 0x1DE2 JUMPI JUMPDEST PUSH2 0x1C54 SWAP3 POP LT ISZERO PUSH2 0x224E JUMP JUMPDEST DUP1 EXTCODESIZE ISZERO PUSH2 0x1DDE JUMPI PUSH1 0x40 MLOAD PUSH4 0x7A94C565 PUSH1 0xE1 SHL DUP1 DUP3 MSTORE CALLER PUSH1 0x4 DUP4 ADD MSTORE PUSH1 0x24 DUP3 ADD SWAP4 SWAP1 SWAP4 MSTORE PUSH1 0x44 DUP2 ADD DUP8 SWAP1 MSTORE SWAP1 DUP11 SWAP1 DUP3 SWAP1 PUSH1 0x64 SWAP1 DUP3 SWAP1 DUP5 SWAP1 GAS CALL DUP1 ISZERO PUSH2 0x1DD3 JUMPI PUSH2 0x1DBE JUMPI JUMPDEST POP PUSH1 0x2 SLOAD SWAP2 SLOAD DUP10 SWAP3 DUP6 AND SWAP2 DUP3 EXTCODESIZE ISZERO PUSH2 0xA2B JUMPI PUSH1 0x40 MLOAD SWAP1 DUP2 MSTORE CALLER PUSH1 0x4 DUP3 ADD MSTORE PUSH1 0x24 DUP2 ADD SWAP2 SWAP1 SWAP2 MSTORE PUSH1 0x44 DUP2 ADD DUP7 SWAP1 MSTORE SWAP1 DUP3 SWAP1 DUP3 SWAP1 PUSH1 0x64 SWAP1 DUP3 SWAP1 DUP5 SWAP1 GAS CALL DUP1 ISZERO PUSH2 0xA2F JUMPI PUSH2 0x1DA6 JUMPI JUMPDEST POP POP DUP1 PUSH1 0xC PUSH1 0xD SWAP3 ADD PUSH2 0x1CF1 DUP6 DUP3 SLOAD PUSH2 0x2293 JUMP JUMPDEST SWAP1 SSTORE ADD PUSH2 0x1CFF DUP4 DUP3 SLOAD PUSH2 0x2293 JUMP JUMPDEST SWAP1 SSTORE PUSH3 0xF4240 DUP1 DUP5 MUL SWAP4 DUP5 DIV SUB PUSH2 0xD2B JUMPI PUSH1 0x3 SLOAD PUSH1 0x40 MLOAD PUSH4 0xA9059CBB PUSH1 0xE0 SHL DUP2 MSTORE CALLER PUSH1 0x4 DUP3 ADD MSTORE PUSH1 0x24 DUP2 ADD DUP6 SWAP1 MSTORE SWAP2 DUP7 SWAP2 DUP4 SWAP2 PUSH1 0x44 SWAP2 DUP4 SWAP2 DUP12 SWAP2 AND GAS CALL DUP1 ISZERO PUSH2 0xD6E JUMPI PUSH2 0x1D52 SWAP2 DUP8 SWAP2 PUSH2 0x1D8F JUMPI POP PUSH2 0x2139 JUMP JUMPDEST PUSH1 0x40 MLOAD SWAP4 PUSH1 0x1 DUP6 MSTORE DUP5 ADD MSTORE PUSH1 0x40 DUP4 ADD MSTORE PUSH32 0x94B9ABFFD136807657FF03481129022BB49E2B3B1BD74FF4A970B77D2730EE75 PUSH1 0x60 CALLER SWAP4 LOG3 PUSH1 0x1 DUP1 SSTORE DUP1 RETURN JUMPDEST PUSH2 0xD61 SWAP2 POP DUP7 RETURNDATASIZE DUP9 GT PUSH2 0xD67 JUMPI PUSH2 0xD59 DUP2 DUP4 PUSH2 0x1F51 JUMP JUMPDEST PUSH2 0x1DAF SWAP1 PUSH2 0x1F0A JUMP JUMPDEST PUSH2 0x1DBA JUMPI DUP7 CODESIZE PUSH2 0x1CDD JUMP JUMPDEST DUP7 DUP1 REVERT JUMPDEST PUSH2 0x1DCB SWAP1 SWAP10 SWAP2 SWAP3 SWAP10 PUSH2 0x1F0A JUMP JUMPDEST SWAP8 SWAP1 CODESIZE PUSH2 0x1C97 JUMP JUMPDEST PUSH1 0x40 MLOAD RETURNDATASIZE DUP13 DUP3 RETURNDATACOPY RETURNDATASIZE SWAP1 REVERT JUMPDEST DUP10 DUP1 REVERT JUMPDEST POP POP DUP10 DUP2 DUP2 RETURNDATASIZE DUP4 GT PUSH2 0x1E10 JUMPI JUMPDEST PUSH2 0x1DF9 DUP2 DUP4 PUSH2 0x1F51 JUMP JUMPDEST DUP2 ADD SUB SLT PUSH2 0x1E0C JUMPI DUP7 PUSH2 0x1C54 SWAP2 MLOAD PUSH2 0x1C48 JUMP JUMPDEST DUP11 DUP1 REVERT JUMPDEST POP RETURNDATASIZE PUSH2 0x1DEF JUMP JUMPDEST PUSH1 0x40 MLOAD RETURNDATASIZE DUP14 DUP3 RETURNDATACOPY RETURNDATASIZE SWAP1 REVERT JUMPDEST POP POP DUP10 DUP2 DUP2 RETURNDATASIZE DUP4 GT PUSH2 0x1E4C JUMPI JUMPDEST PUSH2 0x1E39 DUP2 DUP4 PUSH2 0x1F51 JUMP JUMPDEST DUP2 ADD SUB SLT PUSH2 0x1E0C JUMPI DUP7 PUSH2 0x1C19 SWAP2 MLOAD PUSH2 0x1C0D JUMP JUMPDEST POP RETURNDATASIZE PUSH2 0x1E2F JUMP JUMPDEST PUSH1 0x40 MLOAD PUSH3 0x461BCD PUSH1 0xE5 SHL DUP2 MSTORE PUSH1 0x4 DUP2 ADD DUP6 SWAP1 MSTORE PUSH1 0x18 PUSH1 0x24 DUP3 ADD MSTORE PUSH32 0x4D7573742073656C6C206174206C656173742031207365740000000000000000 PUSH1 0x44 DUP3 ADD MSTORE PUSH1 0x64 SWAP1 REVERT JUMPDEST SWAP1 POP CALLVALUE PUSH2 0xA3A JUMPI DUP2 PUSH1 0x3 NOT CALLDATASIZE ADD SLT PUSH2 0xA3A JUMPI DUP1 PUSH8 0xDE0B6B3A7640000 PUSH1 0x20 SWAP3 MSTORE RETURN JUMPDEST PUSH1 0x40 SWAP1 PUSH1 0x3 NOT ADD SLT PUSH2 0xCDC JUMPI PUSH1 0x4 CALLDATALOAD SWAP1 PUSH1 0x24 CALLDATALOAD SWAP1 JUMP JUMPDEST SWAP1 PUSH1 0x1 DUP3 DUP2 SHR SWAP3 AND DUP1 ISZERO PUSH2 0x1F00 JUMPI JUMPDEST PUSH1 0x20 DUP4 LT EQ PUSH2 0x1EEA JUMPI JUMP JUMPDEST PUSH4 0x4E487B71 PUSH1 0xE0 SHL PUSH1 0x0 MSTORE PUSH1 0x22 PUSH1 0x4 MSTORE PUSH1 0x24 PUSH1 0x0 REVERT JUMPDEST SWAP2 PUSH1 0x7F AND SWAP2 PUSH2 0x1EDF JUMP JUMPDEST PUSH8 0xFFFFFFFFFFFFFFFF DUP2 GT PUSH2 0x1F1E JUMPI PUSH1 0x40 MSTORE JUMP JUMPDEST PUSH4 0x4E487B71 PUSH1 0xE0 SHL PUSH1 0x0 MSTORE PUSH1 0x41 PUSH1 0x4 MSTORE PUSH1 0x24 PUSH1 0x0 REVERT JUMPDEST PUSH2 0x1E0 DUP2 ADD SWAP1 DUP2 LT PUSH8 0xFFFFFFFFFFFFFFFF DUP3 GT OR PUSH2 0x1F1E JUMPI PUSH1 0x40 MSTORE JUMP JUMPDEST SWAP1 PUSH1 0x1F DUP1 NOT SWAP2 ADD AND DUP2 ADD SWAP1 DUP2 LT PUSH8 0xFFFFFFFFFFFFFFFF DUP3 GT OR PUSH2 0x1F1E JUMPI PUSH1 0x40 MSTORE JUMP JUMPDEST SWAP1 PUSH1 0x40 MLOAD SWAP2 DUP3 PUSH1 0x0 DUP3 SLOAD SWAP3 PUSH2 0x1F87 DUP5 PUSH2 0x1ED0 JUMP JUMPDEST SWAP1 DUP2 DUP5 MSTORE PUSH1 0x1 SWAP5 DUP6 DUP2 AND SWAP1 DUP2 PUSH1 0x0 EQ PUSH2 0x1FF6 JUMPI POP PUSH1 0x1 EQ PUSH2 0x1FB3 JUMPI JUMPDEST POP POP PUSH2 0x1FB1 SWAP3 POP SUB DUP4 PUSH2 0x1F51 JUMP JUMPDEST JUMP JUMPDEST SWAP1 SWAP4 SWAP2 POP PUSH1 0x0 MSTORE PUSH1 0x20 SWAP1 DUP2 PUSH1 0x0 KECCAK256 SWAP4 PUSH1 0x0 SWAP2 JUMPDEST DUP2 DUP4 LT PUSH2 0x1FDE JUMPI POP POP PUSH2 0x1FB1 SWAP4 POP DUP3 ADD ADD CODESIZE DUP1 PUSH2 0x1FA3 JUMP JUMPDEST DUP6 SLOAD DUP9 DUP5 ADD DUP6 ADD MSTORE SWAP5 DUP6 ADD SWAP5 DUP8 SWAP5 POP SWAP2 DUP4 ADD SWAP2 PUSH2 0x1FC6 JUMP JUMPDEST SWAP2 POP POP PUSH2 0x1FB1 SWAP5 POP PUSH1 0x20 SWAP3 POP PUSH1 0xFF NOT AND DUP3 DUP5 ADD MSTORE ISZERO ISZERO PUSH1 0x5 SHL DUP3 ADD ADD CODESIZE DUP1 PUSH2 0x1FA3 JUMP JUMPDEST SWAP2 SWAP1 DUP3 MLOAD SWAP3 DUP4 DUP3 MSTORE PUSH1 0x0 JUMPDEST DUP5 DUP2 LT PUSH2 0x2045 JUMPI POP POP DUP3 PUSH1 0x0 PUSH1 0x20 DUP1 SWAP5 SWAP6 DUP5 ADD ADD MSTORE PUSH1 0x1F DUP1 NOT SWAP2 ADD AND ADD ADD SWAP1 JUMP JUMPDEST PUSH1 0x20 DUP2 DUP4 ADD DUP2 ADD MLOAD DUP5 DUP4 ADD DUP3 ADD MSTORE ADD PUSH2 0x2024 JUMP JUMPDEST PUSH1 0x4 GT ISZERO PUSH2 0x2063 JUMPI JUMP JUMPDEST PUSH4 0x4E487B71 PUSH1 0xE0 SHL PUSH1 0x0 MSTORE PUSH1 0x21 PUSH1 0x4 MSTORE PUSH1 0x24 PUSH1 0x0 REVERT JUMPDEST DUP2 PUSH1 0x1F DUP3 ADD SLT ISZERO PUSH2 0xCDC JUMPI DUP1 CALLDATALOAD SWAP1 PUSH8 0xFFFFFFFFFFFFFFFF DUP3 GT PUSH2 0x1F1E JUMPI PUSH1 0x40 MLOAD SWAP3 PUSH2 0x20AE PUSH1 0x1F DUP5 ADD PUSH1 0x1F NOT AND PUSH1 0x20 ADD DUP6 PUSH2 0x1F51 JUMP JUMPDEST DUP3 DUP5 MSTORE PUSH1 0x20 DUP4 DUP4 ADD ADD GT PUSH2 0xCDC JUMPI DUP2 PUSH1 0x0 SWAP3 PUSH1 0x20 DUP1 SWAP4 ADD DUP4 DUP7 ADD CALLDATACOPY DUP4 ADD ADD MSTORE SWAP1 JUMP JUMPDEST PUSH1 0x0 SLOAD PUSH1 0x1 PUSH1 0x1 PUSH1 0xA0 SHL SUB AND CALLER SUB PUSH2 0x20E4 JUMPI JUMP JUMPDEST PUSH1 0x40 MLOAD PUSH4 0x118CDAA7 PUSH1 0xE0 SHL DUP2 MSTORE CALLER PUSH1 0x4 DUP3 ADD MSTORE PUSH1 0x24 SWAP1 REVERT JUMPDEST SWAP3 SWAP2 SWAP1 PUSH2 0x2113 PUSH1 0x20 SWAP2 PUSH1 0x40 DUP7 MSTORE PUSH1 0x40 DUP7 ADD SWAP1 PUSH2 0x2019 JUMP JUMPDEST SWAP4 PUSH2 0x211D DUP4 PUSH2 0x2059 JUMP JUMPDEST ADD MSTORE JUMP JUMPDEST SWAP1 DUP2 PUSH1 0x20 SWAP2 SUB SLT PUSH2 0xCDC JUMPI MLOAD DUP1 ISZERO ISZERO DUP2 SUB PUSH2 0xCDC JUMPI SWAP1 JUMP JUMPDEST ISZERO PUSH2 0x2140 JUMPI JUMP JUMPDEST PUSH1 0x40 MLOAD PUSH3 0x461BCD PUSH1 0xE5 SHL DUP2 MSTORE PUSH1 0x20 PUSH1 0x4 DUP3 ADD MSTORE PUSH1 0x14 PUSH1 0x24 DUP3 ADD MSTORE PUSH20 0x1554D110C81D1C985B9CD9995C8819985A5B1959 PUSH1 0x62 SHL PUSH1 0x44 DUP3 ADD MSTORE PUSH1 0x64 SWAP1 REVERT JUMPDEST SWAP2 SWAP1 DUP3 ADD DUP1 SWAP3 GT PUSH2 0x2189 JUMPI JUMP JUMPDEST PUSH4 0x4E487B71 PUSH1 0xE0 SHL PUSH1 0x0 MSTORE PUSH1 0x11 PUSH1 0x4 MSTORE PUSH1 0x24 PUSH1 0x0 REVERT JUMPDEST PUSH1 0x2 PUSH1 0x1 SLOAD EQ PUSH2 0x21B0 JUMPI PUSH1 0x2 PUSH1 0x1 SSTORE JUMP JUMPDEST PUSH1 0x40 MLOAD PUSH4 0x3EE5AEB5 PUSH1 0xE0 SHL DUP2 MSTORE PUSH1 0x4 SWAP1 REVERT JUMPDEST ISZERO PUSH2 0x21C9 JUMPI JUMP JUMPDEST PUSH1 0x40 MLOAD PUSH3 0x461BCD PUSH1 0xE5 SHL DUP2 MSTORE PUSH1 0x20 PUSH1 0x4 DUP3 ADD MSTORE PUSH1 0x11 PUSH1 0x24 DUP3 ADD MSTORE PUSH17 0x4D61726B6574206E6F7420616374697665 PUSH1 0x78 SHL PUSH1 0x44 DUP3 ADD MSTORE PUSH1 0x64 SWAP1 REVERT JUMPDEST ISZERO PUSH2 0x2209 JUMPI JUMP JUMPDEST PUSH1 0x40 MLOAD PUSH3 0x461BCD PUSH1 0xE5 SHL DUP2 MSTORE PUSH1 0x20 PUSH1 0x4 DUP3 ADD MSTORE PUSH1 0x17 PUSH1 0x24 DUP3 ADD MSTORE PUSH32 0x496E73756666696369656E742059455320736861726573000000000000000000 PUSH1 0x44 DUP3 ADD MSTORE PUSH1 0x64 SWAP1 REVERT JUMPDEST ISZERO PUSH2 0x2255 JUMPI JUMP JUMPDEST PUSH1 0x40 MLOAD PUSH3 0x461BCD PUSH1 0xE5 SHL DUP2 MSTORE PUSH1 0x20 PUSH1 0x4 DUP3 ADD MSTORE PUSH1 0x16 PUSH1 0x24 DUP3 ADD MSTORE PUSH22 0x496E73756666696369656E74204E4F20736861726573 PUSH1 0x50 SHL PUSH1 0x44 DUP3 ADD MSTORE PUSH1 0x64 SWAP1 REVERT JUMPDEST SWAP2 SWAP1 DUP3 SUB SWAP2 DUP3 GT PUSH2 0x2189 JUMPI JUMP JUMPDEST ISZERO PUSH2 0x22A7 JUMPI JUMP JUMPDEST PUSH1 0x40 MLOAD PUSH3 0x461BCD PUSH1 0xE5 SHL DUP2 MSTORE PUSH1 0x20 PUSH1 0x4 DUP3 ADD MSTORE PUSH1 0x10 PUSH1 0x24 DUP3 ADD MSTORE PUSH16 0x105B1C9958591E481C995CDBDB1D9959 PUSH1 0x82 SHL PUSH1 0x44 DUP3 ADD MSTORE PUSH1 0x64 SWAP1 REVERT INVALID LOG2 PUSH5 0x6970667358 0x22 SLT KECCAK256 0xD3 0x2C 0x2C 0x4A PUSH19 0xB3EDF088CAC9490B0CAD638AA30D4419FCCCBE STOP DUP1 ISZERO PUSH30 0x22BD09A064736F6C63430008140033000000000000000000000000000000 "},"methodIdentifiers":{"INITIAL_LIQUIDITY()":"55097bf1","MARKET_DURATION()":"30dc389c","RESOLUTION_DELAY()":"dd899e2c","SHARES_PER_SET()":"15e54a32","SHARE_PRICE()":"71a2fbfa","buyShares(uint256,uint256)":"beebc5da","collateralToken()":"b2016bd4","createMarket(string,string,string,uint8,uint256,uint256)":"c3ba3257","getMarket(uint256)":"eb44fdd3","getMarketByTweetAndMetric(string,uint8)":"c0ffa4a6","getMarketCount()":"fd69f3c2","marketByHash(bytes32)":"a1ce5f94","marketExists(bytes32)":"d8d03989","markets(uint256)":"b1283e77","nextMarketId()":"406ef2ef","owner()":"8da5cb5b","redeem(uint256,uint256)":"7cbc2373","renounceOwnership()":"715018a6","resolveAsInvalid(uint256)":"74cbc988","resolveMarket(uint256,uint256)":"60557333","sellShares(uint256,uint256)":"2279a970","shareToken()":"6c9fa59e","transferOwnership(address)":"f2fde38b"}}}}}